:020000040800F2
:10000000D8070020350200083D0200083F02000822
:1000100041020008430200084502000800000000F9
:10002000000000000000000000000000470200087F
:1000300049020008000000004B0200084D020008C1
:100040004F0200084F0200084F0200084F0200084C
:100050004F0200084F0200084F0200084F0200083C
:100060004F0200084F0200084F0200084F0200082C
:100070004F0200084F0200084F0200084F0200081C
:100080004F0200084F020008091800084F0200083C
:100090004F0200084F0200084F0200084F020008FC
:1000A0004F0200084F0200084F0200084F020008EC
:1000B0004F0200084F020008E12600084F02000826
:1000C0004F0200084F0200084F0200084F020008CC
:1000D0004F020008493000084F0200084F02000894
:1000E0004F0200084F0200084F02000800F002F81B
:1000F00000F090F80AA090E8000C82448344AAF132
:100100000107DA4501D100F085F8AFF2090EBAE82F
:100110000F0013F0010F18BFFB1A43F0010318473B
:100120002C4700004C470000103A24BF78C878C123
:10013000FAD8520724BF30C830C144BF04680C60ED
:10014000704700000023002400250026103A28BF35
:1001500078C1FBD8520728BF30C148BF0B60704739
:100160006E2900F04D81702900F09782662904F015
:10017000F781652904F0F481672904F0F181612990
:10018000AFF3008003681B0A28BF41F08001692992
:1001900000F0FA80642900F0F780752900F0F480FF
:1001A0006F2900F02582782900F06382E92900F0A8
:1001B000BF81E42900F0BC81F52900F0B981EF2965
:1001C00000F02282F82900F062820368DB0928BF70
:1001D00041F08001632900F0E885732900F0ED8586
:1001E000E32900F0F885F32900F0FD850020704731
:1001F0001FB500F04FFE04000020002103F05CFC5E
:10020000401C60600020002103F040FCE0601FBD46
:1002100010B510BD00F010FE1146FFF7E9FF03F026
:1002200075FB00F0E9FE03B4FFF7F2FF03BC00F03A
:1002300029FF00000948804709480047FEE7FEE71C
:10024000FEE7FEE7FEE7FEE7FEE7FEE7FEE7FEE786
:1002500004480549054A064B7047000085220008FE
:10026000ED000008D8010020D8070020D8030020A6
:10027000D80300207CB51D4616460C00009001D026
:100280002044401E074B7B442A4669460190304675
:1002900000F0CFF805461CB10020694600F0DCF8FC
:1002A00028467CBDD901000070477047704710B5E3
:1002B00000F0C2FA006810BD10B5044600F0BCFAA8
:1002C000046010BD70B5044685690068C10601D59B
:1002D000302600E02026C00707D070BDD4E90121F8
:1002E00030469047206A401C20626D1EF6D570BDD6
:1002F00070B5044685690078C00707D170BDD4E9A0
:10030000012120209047206A401C20626D1EF6D5F6
:1003100070BD09684A0501D540B27047C905FCD5D2
:1003200000B2704709684A0501D5C0B27047C905D7
:10033000FCD580B2704770B50C460546012A05D041
:100340002878800600D5EA69002302E0012305E051
:100350005B1C934202D2E05C0028F9D1A869E61840
:10036000C01AA861286A184428622846FFF7AAFF25
:1003700004E0D5E9012114F8010B9047B442F8D309
:100380002846FFF7B5FF70BD2DE9F0410646002471
:1003900010687529314616A510D0FFF7BAFF00285E
:1003A00002DA404213A507E031688A0701D512A599
:1003B00002E0490704D511A5012401E0FFF7B2FFCF
:1003C00000210A2206F1240709E0B0FBF2FCB0FB91
:1003D000F2F302FB1C00303078541846491C002808
:1003E000F3D123462A463046BDE8F04100F06DBA0D
:1003F000000000002D0000002B0000002000000085
:1004000011680268006A530501D508700AE0D30537
:1004100001D5088006E0130603D5C217C1E9000222
:1004200000E008600120704701694A1C02610878F9
:10043000704700B58FB0CDE9013100210591054924
:100440007944CDE903101146684600F031F90FB048
:1004500000BD0000E5FFFFFF0A6802F8010B0A601B
:100460007047D1E900239A4202D2531C0B601070EE
:10047000704700002DE9FF5F15468A460446DFF805
:10048000AC80F8440027D8E900103E46CDE90010C2
:1004900010E03AF816106A4602A800F0A8FC411CC9
:1004A00007D02178890603D5E269391891420DD821
:1004B0000744761C2078800602D5E069B84205DD45
:1004C000AE42E6DB3AF816000028E2D1A069C01B74
:1004D000A0612046FFF7F6FED8E90010CDE9001034
:1004E000002017E03AF818106A4602A800F07FFCD6
:1004F000B0F1FF3F81460BD000250DF1080B05E060
:10050000D4E901211BF8050090476D1C4D45F7D338
:1005100008F10100B0428046E4DB206A38442062E2
:100520002046FFF7E5FEBDE8FF9F0000CE4100003A
:100530002DE9F0418046D21D22F007020025D2E9C4
:100540000002F52915A614D0011E72F1000106DA89
:100550000023D0EB030063EB020211A608E0D8F8F9
:1005600000108B0701D50FA602E0490701D50EA6A2
:1005700001251146002408F1240704E000F060F989
:1005800030323A55641C50EA0102F7D12B4632460C
:1005900021464046BDE8F04100F097B90000000058
:1005A0002D0000002B0000002000000030B40021CE
:1005B00000F1240408E002F00705D208303542EAD1
:1005C0004372DB086554491C52EA0305F3D1046801
:1005D000002310A2250708D504F020040C4304D002
:1005E000C46901230CA2641EC46130BC00F06DB963
:1005F00010B5044621461068FFF794FE02462046D7
:10060000BDE810400023D1E7D21D22F00701D1E957
:100610000023CBE70000000030000000F0B40D46DE
:100620000188090502D5214C7C4402E01F4C7C4422
:100630000E34002100F1240608E002F00F07120931
:10064000E75D42EA03721B097754491C52EA03072B
:10065000F3D102780023120704D5702D06D009B11A
:10066000022311342246F0BC00F02FB901231034CC
:10067000F8E770B504460D4621461068FFF752FEB4
:10068000024629462046BDE870400023C6E7D21D39
:1006900022F00703D3E90023C0E70368126843F0A0
:1006A000200303600823C3610023B7E73040000044
:1006B0002DE9F05F894604464FF0000ADFF874B177
:1006C000FB44C0F820A02046E1688847002874D089
:1006D000252806D0D4E901219047206A401C2062D9
:1006E000F1E700265F462046E16888472028054656
:1006F00007DB312D05D2781910F8200C08B106431C
:10070000F1E7B00701D526F00406C4F81CA00027C5
:10071000C4F818A02A2D09D0284603F0CDF838B324
:1007200004EB8708303DC8F8185019E059F8041B4D
:10073000204604EB87029161E1688847012F054656
:1007400018D1E069002820DA26F020061DE0D8F84C
:10075000180000EB800005EB40003038C8F81800A6
:100760002046E1688847054603F0A6F80028EED148
:10077000012F0AD02E2D08D12046E16888477F1C22
:100780000546022F46F02006C4DBA069002803DAE4
:10079000404246F00106A061F00701D026F01006A5
:1007A0006C2D0BD0682D09D04C2D39D06A2D35D049
:1007B000742D35D07A2D33D016E038E0E1682F461D
:1007C00020468847B842054609D16C2F26D04FF401
:1007D0008060E168064320468847054604E06C2FA8
:1007E0001AD04FF4807006430DB3A5F141001928CB
:1007F00002D8203546F400664A462946204626603F
:100800004E46FFF7ADFC80B101280BD0F61D26F057
:10081000070000F1080956E74020E4E78020D8E708
:100820000020D6E706F104094DE7284652E7206A82
:10083000BDE8F09FC03F00000048704778010020ED
:1008400030B5B0F10A024FEA900E71F100034EEAA2
:10085000817EB0EB0E0061EB91014FEA101E4EEA73
:10086000017E10EB0E0041EB11114FEA102E4EEA03
:10087000016E10EB0E0041EB11214FEA104E4EEAD3
:10088000014E10EB0E0041EB1141401841F1000107
:100890004FEAD00040EA41704FEAD10110EB8005E9
:1008A0004FEA810444EA907444EB01046D1944EB6F
:1008B0000404521BA3414FF0000348BF0A3200D585
:1008C00030BD401C41F1000130BD2DE9F0470D461F
:1008D00099469246044600F124080168880604D52A
:1008E000E06921F01001216000E00120A84201DD53
:1008F000471B00E00027A1697A1902EB0900081ADA
:10090000A0612078C00602D42046FFF7DBFC002659
:1009100008E0D4E901211AF806009047206A401C3B
:10092000761C20624E45F4DB2078C0060AD52046AE
:10093000FFF7C8FC06E0D4E9012130209047206A87
:10094000401C2062381EA7F10107F4DC07E0D4E95F
:10095000012118F805009047206A401C2062281EDB
:10096000A5F10105F3DC2046FFF7C2FC2078000664
:1009700002D50220BDE8F0870120FBE770472DE992
:10098000FF4F0C461E464FF0FF378BB0D2E90001F7
:10099000DDF860800A908A46C1F30A5505B93D46E4
:1009A000002108464FF00000BAF1000F00F44000AB
:1009B00005DA00EB80004FF4400101EA50004FEAF5
:1009C0009059B9F1010F00DDB9460A9850EA4A0082
:1009D0000ED044F61050A5F2FF3545432F14B8F160
:1009E000000F1ED07542291E1EDDC9F100021CE059
:1009F000B8F1010F4FF0000001D0302103E0F243C5
:100A000005E02154401CB042FBDB304600220021AF
:100A100021540B99C1F80880C1E900200FB0BDE84E
:100A2000F08FBD1B6D1CDEE74A4600DA694206A85E
:100A300000F074FA06AB93E8070003AB83E8070005
:100A400050460A9900F025FB8DE80700A0F50050FC
:100A50001F3800900398002D09DD42F21F014A461D
:100A6000084403A90390684600F084FD08E0A0F55F
:100A700000504A461F3803A90390684600F08EFDD7
:100A80008DE807000004000C03D04FF0FF30410850
:100A900000E01046B8F1000F03D000220092154686
:100AA0001EE0751E05D4FFF7CBFE303262556D1E79
:100AB000F9D5B3460122084302D000227F1C04E08E
:100AC0002078302801D100227F1E002A099786D085
:100AD0001DE0112D07DAFFF7B3FE303262556D1CB1
:100AE00050EA0102F5D1084302D00098C8B10EE0E7
:100AF0000021681E05E0235C625C63542254401EA2
:100B0000491C8142F7DBAB46A81B401E0990002020
:100B100004F80B000B98099AC0F80880C0E9002B74
:100B20007CE711264FF0000859E72DE9F04F884681
:100B30000446D21D22F0070191B0D1E90001CDE9B0
:100B40000A0102F084FB02460B98C00F01D02D2051
:100B500007E02068810701D52B2002E0202101EA6F
:100B6000C000032A099001D0072A05DB034641464D
:100B7000204600F093F90BE12078800601D5E0696A
:100B800000E00620B8F1650F814606D0B8F1660F87
:100B900018D0B8F1670F70D131E00020B9F1110F12
:100BA000009001DB112301E009F101030AAA01A968
:100BB0000CA8FFF7E4FEDDE90C70002609F1010541
:100BC000834647E001204B4600904FF000470AAAB9
:100BD00001A90CA8FFF7D3FEDDE90DB00C995D4625
:100BE000002610B909F101000D18B9EB050003D476
:100BF000C0F1FF3609F10105A5EB09002BE0B9F1C1
:100C0000010F01DA4FF001090020B9F1110F009036
:100C1000484601DD112300E003460AAA01A90CA8F9
:100C2000FFF7ADFEDDE90C704D46002683462078C7
:100C300000070AD4AB4500DA5D4601A8012D04DDAA
:100C4000411911F8011C302907D04F4502DA17F17C
:100C5000040F04DA012082460FE06D1EEEE7002F3C
:100C600002DCED1B3E4403E0781CA84200DD7D1C45
:100C7000B81B00F1010A4FF000472078000703D4A9
:100C8000AA4501DB4FF0FF3A0021B7F1004F0DF10B
:100C900043088DF8431024D002202B23002F01DAC3
:100CA0007F422D230A21021EA0F1010000DC5FB16A
:100CB00097FBF1FC97FBF1F201FB1C7C17460CF152
:100CC000300C08F801CDEEE7A8F10100037021888F
:100CD000090501D5452100E06521A0F1010800F8D2
:100CE000011C09980FA9A1EB0807FF1D00B1012005
:100CF000411901EBEA70A1693844081A401EA0614D
:100D00002078C00602D42046FFF7DCFA099828B103
:100D1000D4E901219047206A401C20622078C00657
:100D200022D52046FFF7CEFA1EE0002E04DBB345A5
:100D300002DD01A8805D00E03020D4E90121904768
:100D4000206A401C2062761CAAF101005FEA000ABA
:100D50000AD100F09FF8C0680168405CD4E9012125
:100D60009047206A401C2062281EA5F10105DCDCAA
:100D700007E0D4E9012118F8010B9047206A401CD4
:100D80002062381EA7F10107F3DC2046FFF7B0FA16
:100D9000032011B043E610B5436913B1AFF30080EF
:100DA00001E0FFF7C8FA012010BD127800F124011C
:100DB0000A7000224A700122EDE711684FF0FF32FD
:100DC000E9E710B5436913B1AFF3008001E0FFF725
:100DD00051FB012010BD128800F124018284002201
:100DE000C2840122EDE711684FF0FF32E9E770B5E8
:100DF00016460C46054600F045F8036893F80101D5
:100E0000012806D0FF2C0FD8185D68B101202C7086
:100E100070BDD3F807013246214603F2071303449D
:100E20002846BDE8704018474FF0FF3070BD000005
:100E300000487047780100207546FFF7F9FFAE467D
:100E400005006946534620F00700854618B020B5D6
:100E5000FFF7FEF9BDE820404FF000064FF0000715
:100E60004FF000084FF0000B21F00701AC46ACE852
:100E7000C009ACE8C009ACE8C009ACE8C0098D46BF
:100E80007047000010B500F005F8001D10BD00BF50
:100E9000292C000000487047980100202DE9F041FE
:100EA0001F46044603260168072A01F4006004DB9C
:100EB00008B116A505E016A503E008B115A500E0E8
:100EC00015A521F010002060A069C01EA0610FB11F
:100ED000401EA0612046FFF7F5F94FB1D4E901218A
:100EE00038469047206A401C2062C01C206206E001
:100EF000206AFAE7D4E9012115F8010B9047761E24
:100F0000F8D22046FFF7F4F9BDE8F0814E414E00DB
:100F10006E616E00494E4600696E66002DE9F0472D
:100F2000814616468AB0334878440DC88DE80D00D6
:100F300030487844801C03AC0DC884E80D0041F6AD
:100F40009B300844372190FBF1F290FBF1F5A5F1BD
:100F5000800501FB12041B3C02D56442012000E025
:100F60000020DFF890A080460027FA44AAF1BE0ACC
:100F70000DE0E00709D03246684607EB47010AEB6F
:100F8000810100F00BFB8DE8070064107F1C002C32
:100F9000EFD1184F7F44AC3F18E0E80714D007EBBF
:100FA00004100DF1180A90E80E008AE80E00C068DF
:100FB000F04201D198190890324606A903A800F022
:100FC000EDFA03AB83E807006D10641C002DE4D13B
:100FD00032466946B8F1000F03A802D000F0CAFA01
:100FE00001E000F0DBFAC9E90001C9F808200AB005
:100FF000BDE8F087083900000446AFF300802046C2
:10100000FFF711F94FF0013C50F8042B51F8043B65
:101010009A4221D1A2EB0C03934313EACC1317D1CC
:1010200050F8042B51F8043B9A4215D1A2EB0C0363
:10103000934313EACC130BD150F8042B51F8043B23
:101040009A4209D1A2EB0C03934313EACC13DBD0F1
:101050004FF00000704700BFD01A01BAB1FA81F119
:1010600001F0180122FA01F0CB40C1F12001DBB2FE
:10107000C0B2C01A2CFA01F3D11A914311EAC3117C
:10108000E6D1704701491820ABBEFEE726000200FA
:1010900070475FEA400C08BF91F0000F4FEA8C23C5
:1010A0004FEAC12243EA51514FEA1C5018BF00F5E4
:1010B000F0404FEA300018BF41F000415FEA6C5C3D
:1010C00000F02980BCF1FF3F08BF40F0804070472E
:1010D000130C06BF12044FF0100C4FF0000C130E4F
:1010E00004BF12020CF1080C130F04BF12010CF123
:1010F000040C930F04BF92000CF1020CD30F04BF39
:1011000052000CF1010C11464FF00002A0F11F003B
:10111000A0EB0C00704711F0004F08BF704731F092
:1011200000413FF4D5AF0B0C06BF09044FF0100C83
:101130004FF0000C0B0E04BF09020CF1080C0B0F52
:1011400004BF09010CF1040C8B0F04BF89000CF1E2
:10115000020CCB0F04BF49000CF1010CCCF12003B1
:10116000A0EB0C0022FA03F302FA0CF241EA0301AD
:1011700000F10100704720F07F4C80EA030023F06B
:101180007F47ACEB070303F57C5300F0004003F10D
:10119000FF032DE980494FEA154B09B44FEA144388
:1011A00025EA0B4E24EA03480FF2042606EB132728
:1011B00049083E785FEA320203FB0667C7F500077D
:1011C00007FB06F64FEA54374FEAD64606F1020609
:1011D00007FB066CCCF1005C4FEA1C472CEA074C7D
:1011E00007FB06F40CFB06F504EB15464FEA9616D2
:1011F00034BF00204FF000404FEAD13706FB07FC18
:101200004FEA1C4C0CFB0BF7D21B03FB0CF761EBFA
:1012100007010CFB0EF7B0EB074072EB17420CFB1B
:1012200008F734BFA2EB0742B2EB074261EB17416C
:101230004FEA0C444FEA910706FB07FC4FEA1C4CAF
:101240000CFB0BF7B0EBC74072EB573203FB0CF70C
:1012500034BFA2EBC742B2EBC74261EB57310CFB84
:101260000EF7B0EBC70072EB57720CFB08F734BFF8
:10127000A2EBC702B2EBC70261EB5771039F4FEAC3
:10128000816141EA921104EBCC044FEAD1374FEA75
:10129000826206FB07FC42EA90124FEA80604FEA46
:1012A0001C4C0CFB0BF7D21B03FB0CF761EB07018B
:1012B0000CFB0EF7B0EB074072EB17420CFB08F784
:1012C00034BFA2EB0742B2EB074261EB17414FEA92
:1012D0008C554FEA910704EB9C2406FB07FC4FEA70
:1012E0001C4C0CFB0BF7B0EBC74072EB573203FB07
:1012F0000CF734BFA2EBC742B2EBC74261EB5731E8
:101300000CFB0EF7B0EBC70072EB57720CFB08F743
:1013100034BFA2EBC702B2EBC70261EB577115EB0A
:101320004C254FEA816141EA92114FEA82624FEA0D
:10133000D13742EA901206FB07FC44F100044FEA61
:1013400080604FEA1C4C0CFB0BF7D21B03FB0CF725
:1013500061EB07010CFB0EF7B0EB074072EB174295
:101360000CFB08F734BFA2EB0742B2EB074261EB7C
:10137000174115EB1C154FEA813141EA92414FEAC2
:10138000823242EA90424FEA80304FEA0C7644F1D2
:10139000000448EA03434EEA0B484FF0000EB2EB5C
:1013A000080C71EB030724BF624639464EEB0E0E64
:1013B0004FF0000B0018524149414BEB0B0BB2EBC5
:1013C000080C71EB03077BF1000B24BF6246394622
:1013D0004EEB0E0E4FF0000B0018524149414BEB03
:1013E0000B0BB2EB080C71EB03077BF1000B24BF76
:1013F000624639464EEB0E0E51EA020718BF46F020
:10140000010616EB0E7655F1000254F1000103D5EA
:10141000BDE88901BDE80088BDE88901BDE8004854
:10142000B619524141EB0101A3F1010370478080DD
:101430007F7E7D7C7B7A797877767675747372712E
:1014400071706F6E6E6D6C6C6B6A6A6968686766E6
:1014500066656464636362616160605F5F5E5E5D78
:101460005D5C5C5B5B5A5A595958585757565655EC
:1014700055555454535352525251515050504F4F4E
:101480004F4E4E4D4D4D4C4C4C4B4B4B4A4A4A499E
:1014900049494848484747474746464645454544E1
:1014A0004444444343434342424242414141002B6E
:1014B00026D4770021D01CB54FEA370703B44FF08C
:1014C00010004FF010014FF000000FBCBDE81040BD
:1014D0000BF1010BBBF1010F08BF5FEA170722BF39
:1014E00012F1010211F101014FF0004143F100033B
:1014F00000F0004043EA00007047F9D35708DAE7EC
:1015000046EA064613F1400F4FEA16461FDD13F177
:10151000200FDFBF16430A46002120335B42C8D0AC
:10152000C3F1200746EA064602FA07F74FEA1646D5
:1015300046EA0706C3F1200722FA03F201FA07F789
:1015400021FA03F14FF0000342EA0702B1E746EA4D
:10155000020646EA06464FEA164646EA0106BCBFC0
:1015600046EA0646360C4FF000034FF000024FF0FB
:1015700000019EE72DE9C048934630B491E8380059
:1015800007C831EA400C48BF34EA430C03D5FFF7E3
:10159000F2FDFFF78CFFF0BCBDE800882DE9C048E4
:1015A000934630B491E8380007C810F0804F08BF68
:1015B00013F0804F03D100F005F8FFF778FFF0BC7F
:1015C000BDE8008820F07F4780EA030023F07F4CCD
:1015D00007EB0C03A3F57C5300F00040A3F1FE03DE
:1015E00092F0000F00F0B38095F0000F00F07780CC
:1015F0002DE901494FEA11404FEA144621EA00481B
:1016000000FB06FC24EA064708FB06F607FB08F881
:1016100000FB07F718EB06484CEB164C4FEA124B51
:1016200018EB07484FEA15464CEB174022EA0B4EE1
:101630000BFB06FC25EA06470EFB06F607FB0EFE33
:101640000BFB07F71EEB064E4CEB164C4FF000065B
:101650001EEB074E4CEB174B18EB0B0840F100004C
:1016600018EB0E0B58EB000840F100008F1A4FF0FA
:1016700000013CBFC943661B14BFB5EB040C00213D
:101680003CBFC943F61B4FEA17444EEA8E0E27EAC9
:1016900004454FEA1C4704FB07622CEA074C05FB94
:1016A00007F70CFB05F604FB0CFC16EB074642EBB8
:1016B000174216EB0C4642EB1C421BEB060658EB9E
:1016C0000202414146EA9E0601D5BDE80189B619EC
:1016D000524141EB0101A3F10103BDE801894FEA49
:1016E00014454FEA114724EA054621EA074C05FB59
:1016F00007F406FB07F70CFB06F105FB0CFC11EBEE
:10170000074144EB17444FEA124711EB0C4144EBFD
:101710001C4422EA074C05FB07F206FB07F70CFB0B
:1017200006F605FB0CFC16EB074642EB174216EBE0
:101730000C4642EB1C456A1854F1000148BF704743
:10174000B619524141EB0101A3F10103704795F035
:10175000000F37D04FEA11424FEA144721EA024600
:1017600024EA074C02FB07F106FB07F70CFB06F423
:1017700002FB0CFC14EB074441EB17414FEA154701
:1017800014EB0C4441EB1C4125EA074C02FB07F526
:1017900006FB07F70CFB06F602FB0CFC16EB0746F4
:1017A00045EB174516EB0C4645EB1C42121951F15F
:1017B000000148BF7047B619524141EB0101A3F146
:1017C000010370474FEA14454FEA114724EA0546E2
:1017D00021EA074C05FB07F106FB07F70CFB06F2B5
:1017E0004FF0000605FB0CFC12EB074241EB1741E2
:1017F00012EB0C4251EB1C4148BF7047921841EB71
:101800000101A3F101037047704700000549096811
:1018100021F01001034A116011460968014311606B
:10182000704700000020024001460020034A106873
:1018300000F03800084310607047000000200240AC
:101840002DE9F04102460025002600200023002457
:10185000002791F803C00CF00F0591F803C00CF0BD
:10186000100CBCF1000F03D091F802C04CEA050542
:1018700091F800C0BCF1000F31D0146800202BE0BB
:101880004FF0010C0CFA00F3B1F800C00CEA0306AB
:101890009E4220D183004FF00F0C0CFA03F7BC439B
:1018A00005FA03FC4CEA040491F803C0BCF1280FCC
:1018B00006D14FF0010C0CFA00FCC2F814C00AE08B
:1018C00091F803C0BCF1480F05D14FF0010C0CFAA0
:1018D00000FCC2F810C0401C0828D1D31460B1F835
:1018E00000C0BCF1FF0F34DD546800202EE000F191
:1018F000080C4FF0010808FA0CF3B1F800C00CEA2C
:1019000003069E4221D183004FF00F0C0CFA03F71F
:10191000BC4305FA03FC4CEA040491F803C0BCF193
:10192000280F05D100F1080C08FA0CF8C2F8148051
:1019300091F803C0BCF1480F07D100F1080C4FF03B
:10194000010808FA0CF8C2F81080401C0828CED311
:101950005460BDE8F0810000F0B50A460023002481
:101960000021002500F00046B6F1004F02D11D4EC7
:10197000F16901E01B4E7168C0F3034583B200F4C6
:101980004016B6F5401F08D121F07061154E7668FB
:1019900026F07066134F7E6012E000F48016B6F5F4
:1019A000801F06D1032606FA05F4A14341F07061B9
:1019B00006E0460D360103FA06F6B14341F07061C8
:1019C00022B1460D360103FA06F6314300F0004617
:1019D000B6F1004F02D1034EF16101E0014E71609A
:1019E000F0BD000000000140016170470146002980
:1019F00006DA4842064A10800020121D108004E0DA
:101A00000020034A1080121D118000207047000042
:101A1000340400400146002906DA4842064A108094
:101A20000020121D108004E00020034A1080121DC7
:101A300011800020704700003C04004000200D4948
:101A4000096808600B49096848600A4909688860A4
:101A50000849096808620749096848620021064880
:101A6000044A1268C2E904100448024A1268C2E932
:101A70000610704734000020000018400000D03FDE
:101A80002DE9FF4782466B48007818BB6A4800681A
:101A9000AAEB0000694908604FF47A706849088031
:101AA00066480068002816DD64480068B1F9001037
:101AB000884204DD40F6B8306249088028E05F487B
:101AC000006840F6B83148430A2190FBF1F000B2BB
:101AD0005C4908801CE059490868002801DB014680
:101AE00000E04142564AB2F90020914204DD4FF233
:101AF0004840544908800BE05048006840F6B8312F
:101B000048430A2190FBF1F0404200B24D49088061
:101B10004D480068C0F800A04B48006800684B4979
:101B20000968401A48490968086247480068406ADD
:101B300045490968096A08444349096848624248B6
:101B4000006800221346D0E90641204602F0DEF983
:101B500024D03D480068D0E90663324600203C4965
:101B600002F07CF804460D4637490968486A02F0DD
:101B700066FA804622462B4602F0C6FB0ED2324859
:101B80000068D0E9064322460020314902F066F899
:101B9000064602F0F7F92C49096848622A490968A3
:101BA000486A02F04CFA044627480068D0E9066308
:101BB0003246204602F0AAFA804689462249096840
:101BC000086A02F03CFA04461F480068D0E9046342
:101BD0003246204602F09AFA42464B46CDE90001D1
:101BE00001F080FFCDE9020102F0CCF91649096845
:101BF000886015480068806840F6B831884203DB89
:101C000008461149096888600F48006880681149D2
:101C1000884203DC10480C49096888600A49096851
:101C20008868FFF7F7FE08480068806804B0BDE8E0
:101C3000F0870000050000204C0000204800002034
:101C40005000002052000020400000203C000020F6
:101C50000040AF4048F4FFFFD08AFFFF00200D494D
:101C6000096808600B49096848600A490968886082
:101C7000084909680862074909684862002106485E
:101C8000044A1268C2E904100448024A1268C2E910
:101C90000610704740000020000018400000D03FB0
:101CA00008B54FF4A06000F057F81E208DF8000032
:101CB00000208DF8010002208DF8020001208DF82F
:101CC0000300684600F010F825208DF80000012080
:101CD0008DF8010002208DF8020001208DF803002C
:101CE000684600F001F808BD70B5002100230F22FE
:101CF000C47804B3154C246804F4E064C4F5E064CB
:101D0000210AC1F10403CA40447804FA03F184783B
:101D10001440214309010E4C0678A155047804F0C3
:101D20001F050124AC4005786D11AD0005F1E025DB
:101D3000C5F8004109E0047804F01F050124AC4017
:101D4000044D0678761145F8264070BD0CED00E094
:101D500000E400E080E100E002490143024A116032
:101D6000704700000000FA050CED00E030B589B0C6
:101D700005460C460121022000F070F801210C20DC
:101D800000F08CF8C020ADF8200018208DF823005A
:101D900003208DF8220008A92D48FFF751FD0320EC
:101DA000ADF8200018208DF8230003208DF82200C4
:101DB00008A92848FFF744FDADF81850ADF81440C5
:101DC0000020ADF81A00ADF8160005A9224801F070
:101DD00099F86020ADF804000120ADF8060000205D
:101DE000ADF80A00ADF80C0001A91B4800F002FF95
:101DF0000020ADF80A0001A9174800F051FF0020AB
:101E0000ADF80A0001A9144800F0AAFF0020ADF8BF
:101E10000A0001A9104800F0FDFF08210E4800F05B
:101E200035FF08210C4800F08DFF08210A4800F01A
:101E3000E7FF0821084801F02BF80121064800F0CF
:101E400029FD0121044800F037FD09B030BD000034
:101E500000080140000C01400004004029B1064A7E
:101E6000D2690243044BDA6104E0034AD269824337
:101E7000014BDA61704700000010024029B1064AA8
:101E800012690243044B1A6104E0034A1269824357
:101E9000014B1A61704700000010024029B1064A48
:101EA00092690243044B9A6104E0034A92698243B7
:101EB000014B9A61704700000010024029B1064AA8
:101EC000D2680243044BDA6004E0034AD2688243DA
:101ED000014BDA6070470000001002400F480068B4
:101EE00040F001000D490860084640680C49084070
:101EF0000A494860084600680A49084007490860DE
:101F00000846006820F4802008600846406820F4F5
:101F1000FE0048604FF41F008860704700100240C8
:101F20000000FFF8FFFFF6FE30B50021002200247C
:101F300000232D4D6D6805F00C0121B1042905D059
:101F4000082923D105E0294D056022E0274D0560D1
:101F50001FE0254D6D6805F47012234D6D6805F482
:101F60008034022505EB92421CB9214D5543056092
:101F70000BE01D4D6D6805F400351DB11C4D55433A
:101F8000056002E0194D5543056002E0174D0560FC
:101F900000BF00BF144D6D6805F0F0010909154D33
:101FA0006B5C0568DD4045600F4D6D6805F4E061D0
:101FB000090A104D6B5C4568DD4085600A4D6D680F
:101FC00005F46051C90A0B4D6B5C4568DD40C56086
:101FD000054D6D6805F44041890B074D6B5CC56884
:101FE000B5FBF3F5056130BD0010024000127A0028
:101FF00000093D001C0000202C00002010B5014607
:102000000022002300204A11012A02D1094C236832
:1020100006E0022A02D1074C236A01E0054C636AFC
:1020200001F01F02012494401C400CB1012000E08B
:10203000002010BD001002400248406800F00C0073
:10204000704700000010024001460020034A50681B
:1020500020F0F0000843506070470000001002407C
:102060001149096821F480310F4A1160114609684D
:1020700021F480211160B0F5803F03D0B0F5802FAE
:102080000ED106E00849096841F48031064A116022
:1020900007E00549096841F4A021034A116000E006
:1020A00000BF00BF70470000001002400146002042
:1020B000034A506820F4E060084350607047000015
:1020C0000010024001460020034A506820F460508E
:1020D00040EAC100506070470010024001490866A4
:1020E000704700000000424202460020044B58683E
:1020F00020F47C1042EA01031843014B58607047FA
:102100000010024001460020034A506820F00300FE
:1021100008435060704700000010024038B50020AE
:1021200000900024002500BF3120FFF767FF05461F
:102130000098401C00900098B0F5A06F01D0002DD1
:10214000F2D03120FFF75AFF08B1012400E000244B
:10215000204638BD10B500F0C5F8012144F63D20F9
:10216000FFF79CFE01210248FFF778FE10BD00003A
:102170000700020010B500F001F810BD0CB50020FA
:10218000019000903348006840F480303149086085
:1021900000BF3048006800F4003000900198401CF7
:1021A0000190009818B90198B0F5A06FF1D12948B5
:1021B000006800F4003010B10120009001E0002020
:1021C00000900098012843D12348006840F0100097
:1021D000214908600846006820F0030008600846AE
:1021E000006840F0020008601A48406819494860D9
:1021F0000846406848600846406840F4806048608F
:102200000846406820F47C1048600846406840F466
:10221000E81048600846006840F08070086000BF21
:102220000C48006800F000700028F9D009484068A8
:1022300020F00300074948600846406840F002006B
:10224000486000BF0348406800F00C000828F9D13E
:102250000CBD00000010024000200240042808D1FC
:102260004FF0E021096941F004014FF0E0221161D3
:1022700007E04FF0E021096921F004014FF0E0226E
:102280001161704710B51348006840F00100114912
:10229000086008464068104908400E4948600846F2
:1022A00000680E4908400B4908600846006820F4A1
:1022B000802008600846406820F4FE0048604FF423
:1022C0001F008860FFF756FF4FF000600449086068
:1022D00010BD0000001002400000FFF8FFFFF6FEF6
:1022E00008ED00E010B5FFF7F9FD4FF48030FFF77F
:1022F000B7FEFFF713FF0446012C27D10220FFF79A
:1023000093FA1020FFF782FA0020FFF7E7FE002083
:10231000FFF79AFE0020FFF7D5FEA002FFF7C6FEEA
:102320004FF4E0112004FFF7DFFE0120FFF7D6FE97
:1023300000BF3920FFF762FE0028FAD00220FFF725
:10234000E1FE00BFFFF778FE0828FBD110BD0000BA
:10235000F0B50C46154600220021068C4FF6FE779C
:102360003E400684028B018C4FF60C7632407E1C78
:1023700006EA03162E433243104EB0420ED0104EE2
:10238000B0420BD0B0F1804F08D00E4EB04205D015
:102390000D4EB04202D00D4EB04206D14FF6FD7642
:1023A000314044F00106314305E04FF6F576314007
:1023B00044F00106314302830184F0BD002C01404A
:1023C000003401400004004000080040000C0040C0
:1023D000F0B50C461546002200210026078C4FF66A
:1023E000EF7C07EA0C070784028B018C4FF6FF771E
:1023F00007EA041640F6FF473A404FF6FF7707EA30
:1024000003373A434FF6FF7707EA05273A43114F60
:10241000B8420ED0104FB8420BD0B0F1804F08D068
:102420000E4FB84205D00E4FB84202D00D4FB84201
:1024300006D14FF6DF77394046F01007394305E003
:102440004FF65F77394044F0100739430283018427
:10245000F0BD0000002C01400034014000040040A9
:1024600000080040000C0040F0B50C461546002264
:1024700000210026078C4FF6FF6C07EA0C07078443
:10248000828B018C4FF6FF7707EA04264FF60C7714
:102490003A404FF6FF7707EA03172F433A43114FAD
:1024A000B8420ED0104FB8420BD0B0F1804F08D0D8
:1024B0000E4FB84205D00E4FB84202D00D4FB84271
:1024C00006D14FF6FF57394046F48077394305E08F
:1024D0004FF2FF57394044F48077394382830184B7
:1024E000F0BD0000002C0140003401400004004019
:1024F00000080040000C0040F0B50C4615460022D4
:1025000000210026078C4EF6FF7C07EA0C070784A3
:10251000828B018C4FF6FF7707EA043640F6FF47BF
:102520003A404FF6FF7707EA05273A434FF6FF7721
:1025300007EA03373A43114FB8420ED0104FB84262
:102540000BD0B0F1804F08D00E4FB84205D00E4FDF
:10255000B84202D00D4FB84206D14DF6FF77394050
:1025600046F48057394305E047F6FF57394044F4B5
:102570008057394382830184F0BD0000002C014064
:10258000003401400004004000080040000C0040FE
:1025900000B587B0012140F60400FFF77FFC04205E
:1025A0008DF81B0003208DF81A000002ADF818000A
:1025B00006A91E48FFF744F91D4800F089F903A851
:1025C00000F0F2FC0020ADF80C004FF6FF70ADF803
:1025D00010000020ADF81200ADF80E0003A9144859
:1025E00000F090FC00231A460321114800F064FA21
:1025F000684600F0EDFA0620ADF8080069460C4880
:1026000000F090FA01210A4800F050F90122114629
:10261000074800F0E6FA41F270700549243108805D
:102620000121034800F048F907B000BD000801404F
:10263000002C014000B587B001210420FFF72EFCDB
:1026400001210846FFF70AFC04208DF81B00032037
:102650008DF81A00ADF8180006A92048FFF7F0F829
:102660004FF0804000F034F903A800F09DFC0020FA
:10267000ADF80C004FF6FF70ADF810000020ADF87B
:102680001200ADF80E0003A94FF0804000F03AFCB4
:1026900000231A4603214FF0804000F00DFA6846EF
:1026A00000F096FA0620ADF8080069464FF0804029
:1026B00000F038FA0121880700F0F8F801221146ED
:1026C000900700F08EFA41F270704FF080418884DC
:1026D0000121880700F0F0F807B000BD00080140B4
:1026E0002DE9F0470121434800F00AFA00287FD085
:1026F0000121404800F0DDF83F4800F0FEF9A0F568
:10270000B85070383D49086041F270703A49243140
:102710000880080700F0F1F9A0F5B8507038384982
:10272000086041F270704FF080418884354800782D
:1027300008BB3548B0F9000001F081FC0646334A79
:10274000334B01F0CFF9044601F01CFC00B22E49D6
:102750000880B1F9000001F072FC804601F000F938
:10276000064600222B4B01F0D1FC044601F03AFC56
:102770002949086014E029480088401C00B2274914
:1027800008800846B0F900004FF4967190FBF1F212
:1027900001FB120020B92048006840421E49086031
:1027A0004FF4FA60FFF722F914480068FFF768F960
:1027B0001B480088401C1A490880084600881E28CB
:1027C00016D1154817A10268174801F019F90B48EE
:1027D00016A10268144801F013F9094818A102680B
:1027E000114801F00DF900200D4900E000E00880DB
:1027F000BDE8F08700080040002C014038000020B0
:102800003C0000205800002056000020FCA9F1D216
:102810004D62503F00407F40000000205A000020E1
:102820005400002025640A000038014046656564B4
:102830006261636B5F4D6F746F722025640A0000E4
:10284000466565646261636B5F4D6F746F725F5361
:102850006C6176652025640A000000003EB50546DF
:102860000C46ADF80450ADF800400020ADF806006D
:10287000ADF802006946064800F044FB0121044817
:1028800000F01AF801221146014800F0AAF93EBDF5
:102890000008004021B1028842F08002028004E07A
:1028A00002884FF67F731A4002807047CA43028243
:1028B0007047CA430282704721B1028842F0010288
:1028C000028004E002884FF6FE731A4002807047CF
:1028D00010B504466848844208D10121C014FFF7AE
:1028E000EDFA0021E014FFF7E9FAC4E0B4F1804FFB
:1028F00008D101210846FFF7C1FA00210120FFF7A6
:10290000BDFAB8E05D48844208D101210220FFF7FA
:10291000B5FA00210220FFF7B1FAACE05848844232
:1029200008D101210420FFF7A9FA00210420FFF7B4
:10293000A5FAA0E05348844208D101210820FFF7FE
:102940009DFA00210820FFF799FA94E04E4884424E
:1029500008D101211020FFF791FA00211020FFF784
:102960008DFA88E04948844208D101212020FFF7F0
:1029700085FA00212020FFF781FA7CE04448844258
:1029800008D101214014FFF799FA00216014FFF7E4
:1029900095FA70E03F48844209D10121C804FFF74D
:1029A0008DFA00214FF40020FFF788FA63E03A48DF
:1029B000844209D101210805FFF780FA00214FF474
:1029C0008010FFF77BFA56E03448844209D1012198
:1029D0004805FFF773FA00214FF40010FFF76EFA75
:1029E00049E02F48844208D101214020FFF746FAF0
:1029F00000214020FFF742FA3DE02A48844208D1F6
:102A000001218020FFF73AFA00218020FFF736FAF3
:102A100031E02548844208D101218015FFF72EFAC4
:102A20000021A015FFF72AFA25E02048844209D1A9
:102A300001210804FFF742FA00214FF48030FFF72C
:102A40003DFA18E01A48844209D101214804FFF7F1
:102A500035FA00214FF40030FFF730FA0BE015484B
:102A6000844208D101218804FFF728FA00214FF49D
:102A70008020FFF723FA10BD002C01400004004025
:102A800000080040000C004000100040001400400E
:102A900000340140004C014000500140005401400E
:102AA00000180040001C0040002000400040014091
:102AB0000044014000480140F0B50C4615461E4652
:102AC0000021002200230189028B038C4FF6F87746
:102AD000394021434FF6FC473A4040F201173A4350
:102AE0004FF6DD773B404FF6FF7707EA06172F4397
:102AF0003B43018102830384F0BD0146888C70470B
:102B000030B50246002000230024158A05EA01039F
:102B1000958905EA010413B10CB1012000E0002001
:102B200030BD000070B505460C46244885420ED0E5
:102B3000234885420BD0B5F1804F08D0214885420B
:102B400005D02148854202D02048854200D100E0CE
:102B500000BF208850B92389A28861882846FFF7E2
:102B6000F7FBE188284600F0A0F925E0208804283A
:102B70000AD12389A28861882846FFF729FCE188C9
:102B8000284600F09BF917E0208808280AD12389FD
:102B9000A28861882846FFF767FCE188284600F094
:102BA0009AF909E02389A28861882846FFF7A4FCE6
:102BB000E188284600F098F970BD0000002C014023
:102BC000003401400004004000080040000C0040B8
:102BD000002101804180012181800021C18001818B
:102BE00070471AB183890B43838102E083898B4349
:102BF0008381704770B5002400220023058C4FF6B6
:102C0000FE7635400584028C8388048B4FF68F75E1
:102C10002C40B51E2C400D882C43751E2A400D8972
:102C20002A434D882A43144DA8420BD0134DA84285
:102C300008D0134DA84205D0124DA84202D0124D23
:102C4000A84213D14FF6F7752A404D892A434FF613
:102C5000FB752A408D882A434FF6FF652B404FF6BF
:102C6000FF552B408D892B43CD892B4383800483D3
:102C7000CD888586028470BD002C0140003401405F
:102C80000040014000440140004801400A46002144
:102C9000018B4FF6F7731940114301837047000011
:102CA00070B5002400220023058C4FF6EF763540E6
:102CB0000584028C8388048B48F6FF752C404FF600
:102CC000FF452C400D884FF6FF7606EA05252C437C
:102CD0004FF6DF752A400D8906EA05152A434D880F
:102CE00006EA05152A43154DA84202D0144DA84204
:102CF0001DD14FF67F752A404D894FF6FF7606EAC3
:102D000005152A434FF6BF752A408D8806EA05153A
:102D10002A434FF6FF352B404FF2FF752B408D892C
:102D200006EA85052B43CD8906EA85052B4383807A
:102D30000483CD880587028470BD0000002C01400B
:102D4000003401400A460021018B4FF2FF73194005
:102D50004FF6FF7303EA0223194301837047000013
:102D600070B5002400220023058C4FF6FF66354025
:102D70000584028C8388848B4FF68F752C404FF628
:102D8000FC752C400D882C434FF6FF552A400D89C9
:102D90004FF6FF7606EA05252A434D8806EA052503
:102DA0002A43154DA84202D0144DA8421DD14FF21E
:102DB000FF752A404D894FF6FF7606EA05252A431E
:102DC0004FF6FF352A408D8806EA05252A434EF640
:102DD000FF752B404DF6FF752B408D8906EA0515D2
:102DE0002B43CD8906EA05152B4383808483CD8848
:102DF0008587028470BD0000002C01400034014032
:102E00000A460021818B4FF6F773194011438183E5
:102E10007047000070B5002200230024058C4EF698
:102E2000FF7635400584038C8488828B48F6FF75D5
:102E30002A404FF6FF452A400D884FF6FF7606EAF6
:102E400005252A434DF6FF752B400D8906EA053509
:102E50002B434D8806EA05352B430B4DA84202D083
:102E60000A4DA84208D14BF6FF752C408D894FF6CC
:102E7000FF7606EA85152C4384808283CD88A0F8EE
:102E80004050038470BD0000002C0140003401401C
:102E90000A460021818B4FF2FF7319404FF6FF73F2
:102EA00003EA0223194381837047028B4FF6F373C1
:102EB0001A400283028B0A4302837047028B4FF24F
:102EC000FF331A400283028B4FF6FF7303EA01239C
:102ED0001A4302837047828B4FF6F3731A40828342
:102EE000828B0A4382837047828B4FF2FF331A40F2
:102EF0008283828B4FF6FF7303EA01231A43828396
:102F000070470000002202881D4B98420ED01D4BD6
:102F100098420BD0B0F1804F08D01B4B984205D09F
:102F20001A4B984202D01A4B984204D14FF68F7335
:102F30001A404B881A43174B984207D0164B9842B9
:102F400004D04FF6FF431A40CB881A4302808B8887
:102F500083850B8803850A4B98420BD0094B984216
:102F600008D00E4B984205D00D4B984202D00D4B25
:102F7000984201D10B7A03860123838270470000B7
:102F8000002C0140003401400004004000080040D3
:102F9000000C0040001000400014004000400140C0
:102FA00000440140004801404FF6FF71818000213C
:102FB0000180C18041800172704700001FB54FF44D
:102FC000E13000900020ADF80600ADF80400ADF847
:102FD0000800ADF80C000C20ADF80A00694607485F
:102FE00000F0C0F8012240F22551044800F094F8A6
:102FF0000121024800F04DF81FBD000000380140DB
:1030000008B54020ADF8000018208DF8030003201B
:103010008DF8020069460B48FEF712FC8020ADF8DF
:10302000000004208DF8030069460648FEF708FCFE
:1030300001210920FEF732FF01210420FEF78CFC5C
:1030400008BD0000000C014010B540F225510948B0
:1030500000F038F860B1074800F0F0F8C4B2064854
:1030600001880088401C044A10800448445400BF72
:1030700010BD00000038014030000020600000203A
:1030800001F40072B2F5007F00D100BFCA43028094
:10309000704721B1828942F40052828104E0828922
:1030A0004DF6FF731A408281704702460020B1F549
:1030B000007F00D100BF13880B400BB1012000E05E
:1030C0000020704770B50246002400230025002030
:1030D00040F66A16B14200D100BFC1F3421501F0BB
:1030E0001F03012606FA03F3012D02D1968933400E
:1030F00006E0022D02D1168A334001E0968A334061
:103100000C12012606FA04F41688344013B10CB1EF
:10311000012000E0002070BDF0B503460024002629
:103120000025002040F66A17B94200D100BF1846BA
:10313000C1F3421401F01F06012707FA06F5012C1E
:1031400001D10C3004E0022C01D1103000E0143029
:103150001AB107682F43076002E00768AF430760B2
:10316000F0BD00002DE9F04786B005460E4600246C
:10317000A24600BFA1460027B08900B100BF2F467C
:103180002C8A4CF6FF700440F08804432C82AC89F2
:103190004EF6F3100440B088318908437189084322
:1031A0000443AC81AC8A4FF6FF400440B08904432D
:1031B000AC8201A8FEF7B8FE1F48874202D1DDF8B5
:1031C00010A001E0DDF80CA0A88900F4004040B197
:1031D0000AEBCA0000EB0A1031684900B0FBF1F8B5
:1031E00007E00AEBCA0000EB0A1031688900B0FB67
:1031F000F1F86420B8FBF0F004012009642101FB20
:103200001089A88900F4004040B1322000EBC900C9
:10321000B0FBF1F000F00700044308E0322000EBBF
:1032200009106421B0FBF1F000F00F0004432C8181
:1032300006B0BDE8F08700000038014001468888EC
:10324000C0F308007047C1F308028280704749004C
:1032500050EAC12018BF04204A0D18BF40F00100F9
:1032600040F2FF72B2EB515F08BF40F0020001284C
:1032700008BF0520704700002DE9F74F144694B0B1
:103280000021C4E902111599079121F00045C949AF
:103290008D4206DC1599C4E9000117B00020BDE895
:1032A000F08FC549DFF814A3A9423CDD0799C44E4D
:1032B0000029C44FC44A1599534619DD01F066F838
:1032C000554506D0C14AC24B01F060F8C4E900017F
:1032D0000AE04FF0D352BE4B01F058F832463B465D
:1032E00001F054F8C4E9000117B00120BDE8F08FE7
:1032F00000F0F8FB554506D0B44AB54B00F0F2FBA0
:10330000C4E900010AE04FF0D352B14B00F0EAFBF0
:1033100032463B4600F0E6FBC4E9000117B04FF02F
:10332000FF30BDE8F08FAB49A942159978DB21F059
:10333000004183468846A84AA84B00F0E7FE0022D9
:10334000A74B00F0CFFB00F01DFE099000F077FEC8
:1033500006460F469C4A534600F0D8FE43465A465E
:1033600001F008F880468A46984A994B304639461B
:1033700000F0CCFE2A0D01250B924246534600F088
:10338000F9FF032DC4E9000139D00B98C1F30A51AC
:10339000401A05EB45111139814230DA9148C34694
:1033A000784400EB0510CDF80CA00C90D0E9002378
:1033B0003046394600F0AAFE02460B4604910690BC
:1033C0005846039900F0E2FF80468A4602460B46C3
:1033D0005846039900F0DAFF049B069A00F0D6FFE6
:1033E00083460C9803913946D0E90223304600F019
:1033F0008DFE5A46039B00F0C9FF6D1CBDE7079880
:103400000028A2BF099817B0BDE8F08F616881F06D
:1034100000416160099817B04042BDE8F08FFFE7B6
:1034200084461598C1F31301C0F30A50A0F2F53099
:103430004FEA601800F01F06C6F12000139000202C
:103440000690079041F4801E05206D4676B1664ACD
:1034500008EB00017A4452F8213002EB8101B340BD
:103460004A68139922FA01F1194305E05F4908EB14
:103470000002794451F82210A1FB0E27A1FB0C1386
:103480001A449A4234BF0123002303EB070A05EBD9
:103490008003D3E901B70F448F4234BF01210021DB
:1034A00093448B4411B1934502D903E0934501D273
:1034B000012100E00021C3E901B7514445F8201083
:1034C000011EA0F10100C1DC0298059F00F100502F
:1034D000800F12900298DDE90356800000F0AFFDE6
:1034E000834628460D9100F0C1FD6FF01D0201F0EA
:1034F0006BF8CDE90E01304600F0B8FD6FF03D02EB
:1035000001F062F880468A46384600F0AFFD6FF061
:103510005D0201F059F8074642465346119100F00A
:10352000E1FADDE90E2300F0DDFA5A460D9B00F0CA
:10353000D9FA00250E465A4628460D9B00F026FF74
:10354000DDE90E2300F022FF4246534600F01EFF45
:103550003A46119B00F00EFFDFF898A0244A53462C
:1035600000F0D4FD07468846234A244B31462846BE
:1035700000F0CCFD3A46434600F0B4FA07468846D0
:103580004FF0A84253463146284600F0BFFD3A4668
:10359000434600F0A7FA159A12F0004F04D0129A91
:1035A00081F0004152421292C4E90001129817B012
:1035B000BDE8F08FFB21E93F7CD90240FB21F93FB8
:1035C0007370032E8A19A33B000040543163621AC2
:1035D00061B4D03DFB21394183C8C96D305FE43F00
:1035E0000000E03F24130000A0120000821200003F
:1035F000182D4454FB21F93D3326A611460B113CEE
:103600002DE9FF4D21F0004807460C46B8F1795FDF
:1036100008DA00F0B7FC002801BF0020324904B0EE
:10362000BDE8F08D3A4623461046194600F06EFD7F
:10363000054602462D480E460B460621784400F00A
:103640005DF82A46334600F061FDDDE9022382463B
:103650008B463846214600F059FD04460F46524637
:103660005B462846314600F051FD22463B4600F0BD
:103670008DFE07468A464FF0FF322846314600F05D
:10368000A3FF1B4A90450ADA3A46534600F07EFEF5
:1036900004B00022BDE8F04D134B00F06BBE154A9C
:1036A0004245A8BFA8F500154FF00004B8BF124D61
:1036B00022462B4600F06AFE0646884622462B46E6
:1036C0000020094900F062FE04460D463A46534682
:1036D0003046414600F05AFE04B022462B46BDE873
:1036E000F04D00F047BE00000000F03F5810000011
:1036F0003333D33F0000E93F0000D23F2DE9F041D2
:103700004F1E00EBC7010446D1E9000115461E46D5
:1037100037F006020DD02A46334600F0F7FC7F1E34
:1037200004EBC703D3E9002300F0DCF937F006020D
:10373000F1D1022F25D0042F13D0062F18BFBDE8DA
:10374000F0812A46334600F0E1FCD4E90A2300F078
:10375000C9F92A46334600F0D9FCD4E9082300F021
:10376000C1F92A46334600F0D1FCD4E9062300F023
:10377000B9F92A46334600F0C9FCD4E9042300F025
:10378000B1F92A46334600F0C1FCD4E9022300F027
:10379000A9F92A46334600F0B9FCD4E90023BDE874
:1037A000F04100F09FB900002DE9FF4D054621F0E2
:1037B000004084B00C46B0F1795F0BDA2846FFF781
:1037C00046FD042808BF00F06FF8284608B02146DF
:1037D000BDE8F08D2A460B46104600F097FC0646E1
:1037E0000F462A46234600F091FC804626488A462A
:1037F00032463B4605217844FFF780FF8346109808
:10380000029160B3214A224B4046514600F07EFCB3
:10381000CDE900015A4640465146029B00F076FC35
:1038200082468846DDE906014FF0FF3200F0CCFE0B
:103830005246434600F0AAFD32463B4600F066FC85
:10384000DDE9062300F0A2FDDDE9002300F09EFD86
:1038500008B02A462346BDE8F04D00F08BBD0B466C
:103860005A463046394600F051FC084A084B00F0F1
:1038700039F94246534600F049FC08B02A4623462F
:10388000BDE8F04D00F02EB9960F00004955555592
:103890005555C5BF012200F097BE002213461046C1
:1038A000114600F0DBB90000024A0020110700F0C9
:1038B0008BBE000001FDFFFF30380A2801D2012035
:1038C000704700207047000010B56FF00400FEF74D
:1038D000C5FC0A4800680A49B0FBF1F009490870C4
:1038E0000846007800EB4001C1EBC0104FF6FF71B5
:1038F00001EAC0000449088010BD00000800002053
:1039000000127A005C0000205E000020FEF722FC1E
:10391000FEF7C6F9FFF7D8FF02210F48FEF764F85B
:10392000002140F69F70FEF721FAFFF769FBFFF7D1
:1039300045FBFEF72DFEFEF77DFE472141F2873065
:10394000FEF78CFFFEF78AF9FEF778F800200349AE
:10395000087000BFFEE700000010014005000020D5
:1039600000B5254B21F0004287B09A4203DC0022CB
:10397000134600922BE0214B9A4208D140B94FF0F8
:103980000100FCF799FCFFF788FF07B000BD03DBDF
:10399000FFF780FF07B000BD02AAFFF76DFC10F033
:1039A00003014FF001000DD0012914D002291AD0D3
:1039B0000DF1080C9CE80F00FFF722FE07B081F024
:1039C000004100BD0DF1080C00909CE80F00FFF7CE
:1039D000EBFE07B000BD0DF1080C9CE80F00FFF7EF
:1039E0000FFE07B000BD0DF1080C00909CE80F0021
:1039F000FFF7DAFEE2E70000FB21E93F0000F07F7D
:103A00000FB430B5A1B00546002426A8009080214F
:103A100001A8009B259AFCF72DFC80212846FFF782
:103A20002FFB26E001A8005D0A2813D10D212846AE
:103A3000FFF709FC00BF80212846FFF736FB00286E
:103A4000F9D02046621CD4B201AA115C2846FFF7C7
:103A5000FAFB07E02046621CD4B201AA115C28469A
:103A6000FFF7F1FB00BF80212846FFF71EFB00286F
:103A7000F9D0802C03DA01A8005D0028D2D1002003
:103A8000009021B030BC5DF814FB000010B5002997
:103A90000AD00878002807D005487844FDF7B2FA24
:103AA000002801D0002010BD0248784410BD00005D
:103AB000D20D0000CA0D000010B500290AD0087808
:103AC000002807D005487844FDF79CFA002801D06B
:103AD000002010BD0248784410BD0000C20D000057
:103AE000BA0D000010B591EA030F48BF83F0004300
:103AF00000F15484841A71EB030C05D2121943EBC4
:103B00000C03001B61EB0C01DFF824E14FEA1154B8
:103B1000A4EB135C1EEA430F18BF9EEA445F73D008
:103B200023EA0E03DCF1200E21EA045143F4801352
:103B300032D322FA0CFE10EB0E0023FA0CFE41EBFE
:103B40000E01CCF1200E03FA0EFE10EB0E0051F127
:103B50000001B1F5801FCCF1200E32D201EB0451EF
:103B600012FA0EF2BDE8104058BF7047401C38BF33
:103B70005FEA420218BF7047002814BF20F001001E
:103B800041F100014FEA410313F5001F38BF7047B0
:103B9000A1F1C04100F0B2BB012A43EB0302ACF13A
:103BA000200CDCF11F0E32BF4FF0000E23FA0CF395
:103BB00010EB030041EB0451B4EB115FD0D0A1EB4B
:103BC000045101F5801149085FEA300001EB04510E
:103BD0000ED350F1000038BF12FA0EFE08D1BDE836
:103BE0001040C9E7401C38BF5FEA4202CAD1C3E7B0
:103BF000BDE810404FEA410313F5001F38BF70477E
:103C0000A1F1C04100F07ABB9EEA445F08D011EAFE
:103C10005E0FBDE8104004BF01F000410020704776
:103C2000BDE8104070B500F01BFB00BF64FBBE3E5A
:103C30000000E0FF02494FF0000000F093BC00BF1D
:103C40000000F87F491058BFC1F140415B1058BFD8
:103C5000C3F140438B42EFF3008070472DE9C04130
:103C600030B4DFF8A0C23CEA111418BF3CEA1314C8
:103C700000F0EC8081EA03051CEA111444EAD574D3
:103C800018BF1CEA131500F0C780A4EB05044FF021
:103C9000004545EAC12145EAC32341EA505143EAC0
:103CA000525304F17F74994204F500344FEAC02066
:103CB0004FEAC22208BF904200F09C804FEA136591
:103CC0000FF24016765D4FEA134506FB05F7C7F184
:103CD000807706FB07F74FEAD737A7FB03687642E2
:103CE000C8F58038A7FB06CE38BFA8F1010807FB4E
:103CF00008E64FF0000EA6FB028CE6FB03CEDCF1DB
:103D0000000CCEF1004E38BFAEF1010EA6FB0C58F0
:103D10004FF000074FF00005E6FB0E87A1FB08C639
:103D2000A0FB07CE16EB0E0645F10005E1FB07658B
:103D300015F1E04E7EBFA4F580345FEA46066D4182
:103D400016F1800745F100054FEA17274FEA06668E
:103D500047EA0567A6F1DE46B6F1805F4FEA152512
:103D60001FD9384624F0010C05EBC471BCF1FE6F7D
:103D700001EB0C1102D8F0BCBDE8008124425CBF0D
:103D800001F5801E9EEAC47F02D4F0BCBDE800812C
:103D9000244238D4F0BCA1F1C041BDE8004100F09C
:103DA000ADBA4FEAD22242EA43524FEAD323A7FBED
:103DB00002864FEAD02040EA415007FB03661EEA24
:103DC0000E0F4FEAD12105FB026658BFA6EB005645
:103DD000B6EB00564FEA520E4EEAC37E18EB0E0EBB
:103DE00056EB530EBDD518EB02085E417F1C55F112
:103DF0000005B6E74FF480154FF000074FF00006BE
:103E00004FF00008ADE7F0BC4FF0000001F1C041F9
:103E100001F00041BDE8008111EA0C1F0CEA131506
:103E200000D00CE013EA0C1F00F025804FF00000DA
:103E3000F0BC81EA030101F00041BDE80081F0BC63
:103E4000BDE8004181EA030100F058BAF0BCBDE8CA
:103E5000004170B500F004FA097EFC3E00F007B89E
:103E600081EA03014FF0000001F00041704781EA50
:103E7000030100F043BAF0BCBDE800414FF0000080
:103E800021497047FFFDFBF9F7F5F4F2F0EEEDEB99
:103E9000E9E8E6E4E3E1E0DEDDDBDAD8D7D5D4D348
:103EA000D1D0CFCDCCCBCAC8C7C6C5C4C2C1C0BF94
:103EB000BEBDBCBBBAB9B8B7B6B5B4B3B2B1B0AF9A
:103EC000AEADACABAAA9A8A8A7A6A5A4A3A3A2A17E
:103ED000A09F9F9E9D9C9C9B9A9999989797969539
:103EE00095949393929191908F8F8E8E8D8C8C8BD5
:103EF0008B8A89898888878786858584848383825D
:103F0000828181800000FF070000F87F51EA030CE6
:103F100017D41CF5801F58BFBCF5801F00F1068028
:103F2000994218BF704708BF9042704707D711F5F4
:103F3000801F58BF13F5801F19D4994270478942DA
:103F400070471CF5801F08D5BCF5801FF7D58B4244
:103F500018BF704708BF824270474FF4001C1CEB2B
:103F6000410F38BF1CEB430F01D28B42704770B535
:103F700000F076F9922449004FF000514FF0805341
:103F8000FFF760BE4FEA41034FEA5353A3F5806346
:103F9000D3F11E03C8BFD3F1210C0CDD4FF000425A
:103FA00042EAC12242EA505232FA03FC8CEAE17C36
:103FB000ACEBE1707047102BC4BF0020704703F5D5
:103FC000787CBCF1FF3F04D06FF0004282EA210010
:103FD000704770B500F044F9499224800020704782
:103FE000F2E700004FEA1153A3F58063D3F11E03FB
:103FF000A8BFD3F1200C08DB4FF0004242EAC122F7
:1040000052EA505232FA03F0704709420BD4102B97
:10401000C4BF0020704703F5787CBCF1FF3F05D09A
:104020004FF0FF3070474FF00000704770B500F060
:1040300017F900BF4992248000207047F0E710F084
:10404000004248BF4042B0FA80F310FA03F10AD0B0
:10405000C3F11D0303F580634FEA415002EB0352A5
:1040600002EBD12170474FF000007047B0FA80F3A7
:1040700010FA03F10AD0C3F11D0303F580634FEA80
:1040800041504FEA035202EBD12170474FF000003C
:104090007047000051EA030C17D41CF5801F58BF6D
:1040A000BCF5801F00F10680994218BF704708BF19
:1040B0009042704707D711F5801F58BF13F5801F36
:1040C00019D499427047894270471CF5801F08D562
:1040D000BCF5801FF7D58B4218BF704708BF8242DE
:1040E00070474FF4001C1CEB410F38BF1CEB430F13
:1040F00001D28B42704770B500F0B2F892244900AB
:104100004FF000514FF08053FFF79CBDDFF848C1DE
:1041100070B51CEA111E1EBF1CEA13159EEA0C0F97
:1041200095EA0C0F00F06F8081EA030423EA4C1338
:104130004EEAD47E21EA4C1141F4801143F48013FD
:10414000AE44A1FB024CA0FB0365AEF17F7E3619A5
:1041500055EB0C05A1FB034C4CF10003A0FB021C2A
:1041600016EB0C06654153F10003094218BF46F0F7
:10417000010613F4007F0BD14FEA03314FEA0530FB
:10418000340341EA155140EA16506FF003020AE089
:104190004FEAC3214FEAC520F40241EA555140EAF3
:1041A00056506FF0020202EB2E4201EB025585EAF7
:1041B000CE710AD05FEA440C18BF24F0004450F1DD
:1041C000000041F1000120EAD47040F2FE7C62451B
:1041D00000D270BDA84214BF4FF080444FF040445D
:1041E000002E08BF0024BEF1806FA8BFA1F1C0411E
:1041F000BDE8704080F282804FF0000001F1C041C4
:1042000001F0004170479EEA0C0F0CEA131518BF2D
:1042100095EA0C0F06D04FF0000081EA030E0EF075
:10422000004170BD00F01CF88900013E00F007B8A5
:1042300000F009B84FEA430C5FEA5C5C08D081EA01
:10424000030100F05BB84FEA410C5FEA5C5CF6D119
:104250004FF00000014970470000FF070000F87FA1
:104260000EF1020E2EF0030E5EF8046B364205D4FA
:10427000012A43EB030515F5001F12D8012841EB75
:10428000010C1CF5001F0CD80ED14FEAD17C15F59E
:10429000001F0CEB4C0C0CF1020C08BF4CEBD37C58
:1042A00004E04FF0080C01E04FEAD37C0CEB4C0526
:1042B00026FA05F606F00706B6F1040C06D20EEB58
:1042C000860CBDE870404CF0010C6047DFE80CF054
:1042D000090B02024FF000414FF00000A1F5002150
:1042E00070BD19461046012851EB010418BFD4F5E2
:1042F000001484BF002001F0004170BD0808A0F543
:1043000000114FEA3101704753EA010C17D41CF534
:10431000801F58BFBCF5801F00F106808B4218BF7C
:10432000704708BF8242704707D713F5801F58BFF8
:1043300011F5801F19D48B4270479B4270471CF5C2
:10434000801F08D5BCF5801FF7D5994218BF70476C
:1043500008BF904270474FF4001C1CEB430F38BF5E
:104360001CEB410F01D2994270470FB40CBC03BC47
:10437000FFF7C1BE91EA030F10B581F000413FF590
:10438000B9AB83F0004300F009B8000010B591EA22
:10439000030F48BF83F000433FF5ACAB841A71EBC9
:1043A000030C07D212198CF0004C43EB0C03001BDA
:1043B00061EB0C01DFF8A4E14FEA1154A4EB135CAC
:1043C0001EEA430F18BF9EEA445F00F0B08023EA64
:1043D0006E03524221EA0451C3EB6E0338BF5B1EE9
:1043E000DCF1200E25D322FA0CFE10EB0E0043FA6E
:1043F0000CFE41EB0E01CCF1200E03FA0EFE10EB89
:104400000E0051F10001CCF1200E29D412FA0EF267
:1044100001EB0451BDE8104058BF7047401C1CBF61
:10442000B2F1004F704700280CBF491C20F001007A
:10443000704712EB020E43EB030218BF4FF0010E60
:104440004EEA4202ACF1200CDCF11E0E54D943FAC4
:104450000CFE10EB0E0051F1FF31CCF11E0ED5D544
:104460000EF1010E12FA0EFE404141EB010101EB8B
:10447000445C5FEA5C5C10D910EBDE7001EB045128
:1044800038BFBEF1004FBDE8104018BF704700288C
:104490000CBF491C20F00100704730D24FEAD42CE9
:1044A00011F5001124F400641BD0B1FA81F20B3A2B
:1044B000A41AA41ED2F12003914030FA03F3194349
:1044C000904001EBCC71002C01EB0451BDE8104091
:1044D000A8BF704701F1C0414FF0000001F000415A
:1044E0007047B0FA80F310FA03F100D110BDE41A5E
:1044F000173C4805C90AE4E701EB045110BD491017
:1045000001EB0451BDE810404FEA300002E04FF0EB
:10451000000170474A0008BF0042F8D0B2F5001F02
:1045200028BF704701F000414FF0000070479EEA3D
:10453000445F07D011EA5E0FBDE8104004BF0021C0
:1045400000207047BDE8104070B5FFF789FE00BF3E
:1045500040DFF63E83F00041104670470000E0FF68
:10456000FCF7E3BA0CF00F03092B08BF082000F09A
:1045700059800A2B0BD0082B18BF704708BF1CF0BE
:10458000400F0AD04FF000004FF0000170471CF0C0
:10459000400F18BF4FF0004070471CF0100F08D0BC
:1045A00020F0704300F07F4242EAD3014FEA4370AB
:1045B000704700F0604021F07F4242EA000201F0C3
:1045C0007F4040EA727070474FF0FF0C4CF4E06C93
:1045D0001CEA11531CBF9CEA030C9445C2BFDA428B
:1045E00001EB02517047002B0DD0BCF1000F0FD032
:1045F000002A01F00041A4BF41F0E04141F07F6199
:104600004FF00000704701F000414FF0000070478C
:1046100050EA01334FF09B0C18BF4CF0806C7FF4D4
:1046200009AB70471CF4801F11D01CF4E02F03D09D
:104630006FEACC31490070474FF04050EFF30082F1
:1046400022F0704242EA000282F3008870474FF085
:1046500000007047000000000000000030313233DD
:1046600034353637383941424344454640305800A6
:1046700030313233343536373839616263646566D8
:104680004030780004000008000000000000000234
:1046900000010000100000004C5555555555A53F30
:1046A0007751C1166CC156BF9015CB19A001FA3EC7
:1046B000AD529C804F7E92BEC4B1B4BD9EEE213EF1
:1046C000D43888BEE9FAA8BD00004054FB21F93F68
:1046D0003163621A61B4D03D0000601A61B4D03D0C
:1046E0007370032E8A19A33B0000002E8A19A33B86
:1046F000C14920259A837B3900000000000000009A
:104700006E83F9A22915444ED15727FCC0DD34F53C
:10471000999562DB4190433CAB6351FE61C5BBDEC2
:104720003A6E24B7E0D24D42EA2E49061C92D109D6
:104730001CEB1DFE3EA729B1F53582E88444BB2E53
:1047400026709CE9417E5FB439D69139F4395383A0
:104750008B5F849C3B28F9BDFF97F81F0F9805DEFF
:104760008B112FEF1F6D0A5ACF7E366DB709CB27FD
:10477000663F464F2DEA5F9EC7BA27757BF1E5EB92
:10478000F739073DEA92528AB15FFB6B085D8D1FD6
:10479000A6F810111111813FD561C119A0012ABFDE
:1047A0007DFEB157E31DC73EEB9C2B8AE6E55ABE62
:1047B0007CD5CF5A3AD9E53D02400000000000A068
:1047C0000000000005400000000000C800000000DC
:1047D0000C4000000000409C000000001940000058
:1047E0000020BCBE0000000034400000BFC91B8E8A
:1047F00000000004B5400000504BCFD06607E2CF68
:10480000010000006C4100003E8251AADFEEA73497
:1048100001000000D9420000DCB5A0E23A301F9749
:10482000FFFFFFFFB4450000FD25A0C8E9A3C14F6D
:10483000FFFFFFFFFF3F00000000008000000000BE
:10484000FF3F0000000000800000000098490008C1
:10485000000000206000000028010008F84900085E
:104860006000002078070000440100081C000000E0
:1048700043000000F8FFFFFF0C0000000E000000E6
:104880000F0000002E000000100100004300000097
:10489000F8FFFFFF00404040404040404040414161
:1048A0004141414040404040404040404040404005
:1048B000404040404005020202020202020202029F
:1048C000020202020220202020202020202020029C
:1048D000020202020202909090909090101010102C
:1048E00010101010101010101010101010101010C8
:1048F000020202020202888888888888080808085C
:104900000808080808080808080808080808080827
:10491000020202024000000000000000000000004F
:104920000000000000000000000000000000000087
:104930000000000000000000000000000000000077
:104940000000000000000000000000000000000067
:104950000000000000000000000000000000000057
:104960000000000000000000000000000000000047
:104970000000000000000000000000000000000037
:104980000000000000000000000000000000000027
:104990000000000000000000C8000000000000004F
:1049A00000A24A040000000000000000010203040D
:1049B00006070809000000000102030401020304C5
:1049C000060708090204060800000000280100206C
:1049D0000000000000000000500100200000000066
:1049E00000000000000000000000000000000000C7
:0849F0000100000000000000BE
:04000005080000ED02
:00000001FF
