:020000040800F2
:10000000200A0020E1500008050400080704000849
:100010000B0400080F04000813040008000000008F
:1000200000000000000000000000000017040008AD
:1000300019040008000000001B0400081D0400084B
:10004000FB500008FB500008FB500008FB50000864
:10005000FB500008FB500008FB500008FB50000854
:10006000FB500008FB500008FB500008FB50000844
:10007000FB500008FB500008FB500008FB50000834
:10008000FB500008FB500008FB500008FB50000824
:10009000FB500008FB500008FB500008FB50000814
:1000A000FB500008FB500008FB500008FB50000804
:1000B000FB500008FB50000801060008FB50000838
:1000C000FB500008FB500008FB500008FB500008E4
:1000D000FB50000835190008FB500008FB500008D1
:1000E000FB500008FB500008FB500008FB500008C4
:1000F000FB500008FB500008FB500008FB500008B4
:10010000FB500008FB500008FB500008FB500008A3
:10011000FB500008FB500008FB500008FB50000893
:10012000FB500008FB500008FB500008FB50000883
:1001300000F002F800F0B4F80AA090E8000C824445
:100140008344AAF10107DA4501D100F0A9F8AFF222
:10015000090EBAE80F0013F0010F18BFFB1A43F0A5
:1001600001031847F0C3000010C400000A444FF018
:10017000000C10F8013B13F0070408BF10F8014B06
:100180001D1108BF10F8015B641E05D010F8016B4B
:10019000641E01F8016BF9D113F0080F1EBF10F8AF
:1001A000014BAD1C0C1B09D16D1E58BF01F801CBD2
:1001B000FAD505E014F8016B01F8016B6D1EF9D555
:1001C0009142D6D37047000000230024002500266A
:1001D000103A28BF78C1FBD8520728BF30C148BFAA
:1001E0000B6070476E2907F0EC80702906F0B5852A
:1001F00066290BF0468165290BF0438167290BF0D6
:1002000040816129AFF3008003681B0A28BF41F0D9
:100210008001692906F02685642906F02385752961
:1002200006F020856F2907F0D781782906F08185AF
:10023000E92907F07181E42907F06E81F52907F0BB
:100240006B81EF2907F0D481F82906F080850368D7
:10025000DB0928BF41F08001632907F0CC847329B2
:1002600007F0D184E32907F0DC84F32907F0E18467
:10027000002070471FB59DE8030006F02FFF07F030
:1002800055FD04000020002109F0F0FE401C6060D4
:100290000020002109F0D4FEE0601FBD10B510BDA4
:1002A00007F016FD1146FFF7E5FF00F033F808F000
:1002B00041F803B4FFF7F2FF03BC04F0B2FE000004
:1002C00008B54FF4A06005F0AFFC012144F61C0016
:1002D00005F042FA0121072005F04BFA1E208DF8A7
:1002E000000001208DF801008DF802008DF8030058
:1002F000684605F09EFC25208DF8000000208DF852
:1003000001008DF8020001208DF80300684605F019
:1003100090FC08BD00F0F3F84FF4A06005F084FCF9
:10032000FFF7CEFF04F010FE002140F6B83000F0D9
:1003300033FD002140F6B83000F09FFD01F0F2F9E6
:1003400000F00AFE1E4B1F4A1F49204800F0D2F958
:100350001F4B1C4A1F49204800F0CCF901F047FC14
:100360004FF4FA7004F02DFE00BF04F005FC0028E5
:10037000FBD1472142F20F7000F08FF917A11C4802
:1003800001F025FA1AE000F009FE1A480078012869
:1003900014D1194800680AF065FE18490860184829
:1003A00000680AF05FFE154948600848406864210B
:1003B00090FBF1F01149886004F063FDE3E7000071
:1003C0000000C842CDCC4C3E0000F041600200204D
:1003D00000004843000070428002002020CFB5CDCD
:1003E000B3C6F4B6AFB3C9B9A6210D0A0000000028
:1003F000003801400100002004000020AC03002070
:1004000008000020704700BFFEE700BFFEE700BF06
:10041000FEE700BFFEE77047704770477047000077
:100420000CB50020019000906C48006840F48030CA
:100430006A49086000BF6948006800F40030009015
:100440000198401C0190009818B90198B0F5A06F70
:10045000F1D16248006800F4003010B10120009032
:1004600001E0002000900098012843D15C4800681A
:1004700040F010005A4908600846006820F0030068
:1004800008600846006840F0020008605348406871
:10049000524948600846406848600846406840F451
:1004A000806048600846406820F47C104860084638
:1004B000406840F4E81048600846006840F08070EA
:1004C000086000BF4548006800F000700028F9D0BF
:1004D0004248406820F003004049486008464068B0
:1004E00040F00200486000BF3C48406800F00C004B
:1004F0000828F9D10CBD10B5FFF792FF10BD10B55B
:100500003648006840F001003449086008464068F9
:10051000344908403149486008460068324908407B
:100520002E4908600846006820F4802008600846CC
:10053000406820F4FE0048604FF41F008860FFF719
:10054000DAFF4FF000602949086010BD10B50021A6
:1005500000200022214B5B6803F00C0121B104292B
:1005600006D0082928D107E0214B224C236027E040
:100570001F4B204C236023E0184B5B6803F4701082
:10058000164B5B6803F48032022303EB904022B9E0
:10059000194B4343174C23600DE0104B5B6803F489
:1005A000003323B1144B4343124C236003E0104B40
:1005B0004343104C236003E00D4B0E4C236000BFFF
:1005C00000BF064B5B68C3F303130C4CE15C094BA3
:1005D0001B68CB40074C236010BD00000010024098
:1005E000002002400000FFF8FFFFF6FE08ED00E0EB
:1005F00000127A001C00002000093D0020000020AD
:1006000010B50121364806F076FA30B3354A36493E
:10061000364804F007FB36480078072817D2DFE891
:1006200000F01604070A0D10130000F000F90FE0A7
:1006300000F077F90CE000F0EEF909E000F006FBBD
:1006400006E000F04DFB03E000F04AFB00E000BFD5
:1006500000BF0121224806F05FFA10BD3EB50546F5
:100660000C46ADF80450ADF800400020ADF806008F
:10067000ADF8020069464FF0804005F017FC0121FB
:10068000880706F035FA0121880705F06BFF012283
:100690001146900705F081FF3EBD3EB505460C466C
:1006A0000121042005F065F8ADF80450ADF80040D4
:1006B0000020ADF80600ADF802006946084805F0D4
:1006C000F5FB0121064806F013FA0121044805F064
:1006D00049FF01221146024805F05FFF3EBD0000C0
:1006E000000800400C00002008000020040000204A
:1006F0000000002010B50024046044608160C260E6
:10070000036144618461C46110BD2DE9F84F044662
:100710000D46164625602168881B0AF0DFFC6061E3
:10072000D4E905010AF038FE00906169E0690AF039
:1007300035FBE0610021E0680AF060FC0DD01D4847
:10074000E1680AF099FB0746E1690AF0F3FC04D27C
:100750001848E1680AF090FBE061216900980AF00E
:100760001DFD8146E169E0680AF018FD8246A16836
:1007700060690AF013FD834651460AF00FFB80467C
:1007800049460AF00BFB07460AF06CFC606040F635
:10079000B7316068884201DB0846606006496068DE
:1007A000884201DC084660606069A0616068BDE85D
:1007B000F88F000000703B4549F4FFFF0146002917
:1007C0000CDA0020FE4A1080484212069087002072
:1007D000FC4A10804842121D108009E0F84A11803E
:1007E000002012069087F74A121D1080121F1180F8
:1007F00000207047014600290DDA00204FF08042AA
:100800009086484210874842EE4A121F108000200E
:10081000121F108009E04FF080429186002010875F
:10082000E84A121F1080121F1180002070472DE926
:10083000F04F85B0E44804900020039002900190AE
:100840000090E2480068401DE049086008460068E2
:100850000AF05CFC0446DC490AF00EFB01900198AA
:100860000AF070FA0646DA4ADA4B09F05BFF0446F2
:1008700009F012FC0090D849D84800680AF0FCFA48
:1008800082460AF05FFA804609F0CAF806464FF041
:100890004042D34B09F046FF044609F0FDFB0290AD
:1008A00000980AF04FFA804609F054FB04460D46C2
:1008B00002980AF047FA064622462B4609F032FF14
:1008C000824609F0E9FB0390C64BC74AC749C848AE
:1008D000FFF710FFC34BC44AC449C548FFF70AFFDE
:1008E000C44800680AF0BEFB054603980AF0BAFB4C
:1008F00006462A463146BE48FFF707FF0446FFF783
:100900005DFFBD4800680AF0ADFB05462A460021A0
:10091000BA48FFF7FAFE0446FFF76CFF05B0BDE8E2
:10092000F08F2DE9F04F85B0B5480490002003907A
:10093000029001900090B3480068401DB1490860E2
:10094000084600680AF0E2FB0446AD490AF094FA52
:10095000019001980AF0F6F906469D4A9D4B09F070
:10096000E1FE044609F098FB0090A7499B48006807
:100970000AF082FA82460AF0E5F9804609F050F85A
:1009800006464FF04042964B09F0CCFE044609F073
:1009900083FB029000980AF0D5F9804609F0DAFA54
:1009A00004460D4602980AF0CDF9064622462B462B
:1009B00009F0B8FE824609F06FFB0390934B8A4A18
:1009C00093498B48FFF796FE904B874A9049884899
:1009D000FFF790FE874800680AF044FB054603983D
:1009E0000AF040FB06462A4631468148FFF78DFE55
:1009F0000446FFF7E3FE804800680AF033FB054633
:100A00002A4600217D48FFF780FE0446FFF7F2FEEC
:100A100005B0BDE8F08F2DE9F04F9FB07D481D90E7
:100A20004C227D490AA806F097FA00200990089008
:100A300007900690059004900390029077497848BB
:100A400000680AF019FA04460AF028FB0490754879
:100A50000068401D73490860084600680AF056FBAC
:100A600004466C490AF008FA039003980AF06AF900
:100A70000646574A574B09F055FE044609F00CFB51
:100A800002905549554800680AF0F6F982460AF086
:100A900059F9804608F0C4FF06464FF04042504BDB
:100AA00009F040FE044609F0F7FA05905C4800683A
:100AB0000AF048F980465C4A5C4B09F033FE064672
:100AC00009F094F982468B4605980AF03BF95246A4
:100AD0005B46CDE9000109F025FE044609F0DCFA89
:100AE00007904F4800680AF02DF906464E4A4F4BD2
:100AF00009F018FE044609F02DFA8046894605984B
:100B00000AF020F942464B46CDE9000109F00AFE01
:100B1000824609F0C1FA069002980AF013F982465B
:100B200009F018FA06460F4607980AF00BF98046B6
:100B300032463B4609F0F6FD044609F0ADFA09904D
:100B40000AAA049852F8201002980AF027F9019096
:100B50000AF0F8F8804609F0FDF906460F460698B7
:100B60000AF0F0F8824632463B4609F0DBFD0446C7
:100B700009F092FA0890254B1B4A25491C48FFF7BB
:100B8000B9FD224B184A22491948FFF7B3FD19480D
:100B900000680AF067FA054608980AF063FA064604
:100BA0002A4631461248FFF7B0FD0446FFF706FE1D
:100BB000114800680AF056FA0546099838E0000026
:100BC000400000403C0400400040B0443C00002095
:100BD0006E861BF0F92119400000CC423000002045
:100BE000DCA54C400000C842CDCC4C3E0000F0419A
:100BF0006002002008000020040000208002002085
:100C00000020EE44400000200000DC420000484389
:100C1000000070420060E04484B5000800002041FC
:100C20003400002044000020514CDE0033DF913FAF
:100C30000AF018FA06462A4631464848FFF765FD8D
:100C40000446FFF7D7FD1FB0BDE8F08F2DE9F04156
:100C5000434800680AF076F8054606F04DF9044668
:100C600009F0F9FC074600223E4B09F01FFD35D282
:100C70003D4800680AF066F8054606F03DF904466E
:100C800009F0E9FC07460022364B09F00FFD25D29A
:100C9000364B374A37493848FFF72CFD334B344A37
:100CA00034493548FFF726FD2F4800680AF0DAF985
:100CB00005462A4600213048FFF727FD0446FFF786
:100CC0007DFD274800680AF0CDF905462A46002137
:100CD0002248FFF71AFD0446FFF78CFDBDE8F081BE
:100CE0002DE9F04F87B0DFF894B000200690059012
:100CF000049003908246029021480068401D2049DC
:100D00000860084600680AF001FA044659460AF0ED
:100D1000B3F8824650460AF015F80646194A1A4BAF
:100D200009F000FD044609F0B7F902901749184888
:100D300000680AF0A1F801900AF004F8804608F073
:100D40006FFE06464FF04042124B09F0EBFC0446A2
:100D500009F0A2F9049007B0BDE8F08F80020020EE
:100D600004000020008046400800002000004843A6
:100D7000CDCC4C3E00007042600200200040B044E8
:100D8000480000206E861BF0F92119400000B04297
:100D900030000020DCA54C4030B589B005460C463B
:100DA0000121022004F0E5FC01210C2004F0D4FC18
:100DB000C020ADF8200018208DF8230003208DF806
:100DC000220008A9614804F00BFA0320ADF82000C6
:100DD00018208DF8230003208DF8220008A95C4814
:100DE00004F0FEF9ADF81850ADF814400020ADF84D
:100DF0001A00ADF8160005A9564805F057F860200E
:100E0000ADF804000120ADF806000020ADF80A009E
:100E1000ADF80C0001A94F4805F085F80020ADF8A9
:100E20000A0001A94B4805F0C0F80020ADF80A00FF
:100E300001A9484805F006F90020ADF80A0001A90B
:100E4000444805F04AF90821424805F0BBFC082156
:100E5000404805F0C0FC08213E4805F0C9FC0821C7
:100E60003C4805F0CEFC01213A4805F07BFC01210D
:100E7000384805F077FB09B030BD30B589B005467C
:100E80000C460121082004F074FC0121042004F028
:100E900063FC0F20ADF8200018208DF823000320FC
:100EA0008DF8220008A9294804F09AF9ADF81850E5
:100EB000ADF814400020ADF81A00ADF8160005A9F1
:100EC0004FF0804004F0F2FF6020ADF804000120F4
:100ED000ADF806000020ADF80A00ADF80C0001A93D
:100EE0004FF0804005F01FF80020ADF80A0001A97E
:100EF0004FF0804005F059F80020ADF80A0001A934
:100F00004FF0804005F09EF80020ADF80A0001A9DE
:100F10004FF0804005F0E1F80821C80605F052FCCA
:100F20000821C80605F057FC0821C80605F060FC3A
:100F30000821C80605F065FC0121880705F012FCB0
:100F40000121880705F00EFB09B030BD0008014003
:100F5000000C01400004004008B50121082004F005
:100F6000FBFB10208DF8030003208DF802004FF4E6
:100F70007060ADF8000069467B4804F031F9282024
:100F80008DF8030003208DF802004FF47040ADF897
:100F900000006946744804F023F908BD10B5002428
:100FA00071480C3000684FF2FF02104040F470614D
:100FB0006D4804F0CBF96C480830006800F47040CC
:100FC00008B9601E10BD052003F0FBFF664808301D
:100FD000006800F4704010B94FF0FF30F2E762484B
:100FE0000C3000684FF2FF02104040F480715E4800
:100FF00004F0ACF95C480830006800F47040B0F5CB
:10100000805F09D0B0F5005F0FD0B0F5804F15D0EC
:10101000B0F5004F1DD11AE001240120534908709A
:1010200053A1574800F0D3FB13E0022402204F499C
:10103000087054A1524800F0CAFB0AE003240320C0
:101040004A49087054A14E4800F0C1FB01E00A244F
:1010500000BF00BF44480C3000684FF2FF02104050
:1010600040F40071404804F071F93F4808300068CE
:1010700000F47040B0F5805F09D0B0F5005F0FD08C
:10108000B0F5804F15D0B0F5004F1DD11AE0042403
:1010900004203649087045A1394800F098FB13E058
:1010A000052405203149087045A1354800F08FFB23
:1010B0000AE0062406202D49087046A1304800F0B9
:1010C00086FB01E00B2400BF00BF27480C300068FE
:1010D0004FF2FF02104040F48061234804F036F9DB
:1010E00021480830006800F47040B0F5805F09D0F6
:1010F000B0F5005F08D0B0F5804F07D0B0F5004FD5
:1011000008D105E0072405E0082403E0092401E0F4
:101110000C2400BF00BF14480C3000684FF2FF02DF
:10112000104040F40061104804F010F90E480830F7
:10113000006800F47040B0F5805F09D0B0F5005F42
:1011400008D0B0F5804F07D0B0F5004F08D105E0CA
:101150000E2405E0002403E00F2401E00D2400BF6D
:1011600000BF20462EE70000000C014000000020D8
:1011700020C9E8D6C3CEAAB5DAD2BBCCE20D0A00AC
:101180000038014020C9E8D6C3CEAAB5DAB6FECCF5
:10119000E2210D0A0000000020C9E8D6C3CEAAB59E
:1011A000DAC8FDCCE2210D0A0000000020C9E8D613
:1011B000C3CEAAB5DACBC4CCE2210D0A00000000F0
:1011C00020C9E8D6C3CEAAB5DACEE5CCE2210D0A15
:1011D0000000000020C9E8D6C3CEAAB5DAC1F9CC18
:1011E000E2210D0A0000000010B5022003F0C5FE48
:1011F00010BD08B50121102004F0AEFA4FF4C05024
:10120000ADF8000010208DF8030003208DF80200D7
:101210006946864803F0E4FF4FF4C051834804F068
:101220008CF808BD10B58148406820F470407F49B3
:1012300048600846406840F44050486001207C49BE
:1012400008607C49C1F8B001FFF7CEFF0020784963
:101250000860FFF7C9FF00207649C1F8B00110BD52
:1012600010B57248406820F47040704948600846E4
:10127000406840F44050486000206D49091D0860F6
:101280006C49C1F8AC01FFF7AFFF01206849091DA7
:1012900008606849C1F8AC01FFF7A6FF10BD10B5A2
:1012A00000246248406820F4704060494860084665
:1012B000406840F40040486001205D490860FFF745
:1012C00093FF01205B49C1F8B001FFF78DFF07E0F4
:1012D000601CC4B2FA2C03DDFFF7C2FF012010BD71
:1012E0005348803800680028F2D15149091D086030
:1012F00000BFF4E710B500204D49091D08604B48B8
:10130000406820F47040494948600846406840F40D
:101310004050486000204749C1F8AC01FFF764FF26
:1013200001204349091D0860FFF75EFF0020414985
:10133000C1F8B00110BD10B500203D49091D08607D
:101340003A48406820F47040384948600846406890
:1013500040F44050486001203649C1F8AC01FFF725
:1013600043FF01203249091D0860FFF73DFF0020BF
:101370003049C1F8B00110BD70B504462B48406833
:1013800020F47040294948600846406840F44050C5
:10139000486000202649091D0860002512E0E00988
:1013A000234908606006040E01202249C1F8B001FB
:1013B000FFF71AFF00201E49091D0860FFF714FF00
:1013C000681CC5B2082DEADB70BD70B50546002467
:1013D0001648406820F47040144948600846406848
:1013E00040F400404860002615E000201049091D27
:1013F0000860FFF7F9FE01200E49C1F8B001600650
:10140000040E0B488038006808B1601CC4B2FFF7B6
:10141000EBFE701CC6B2082EE7DB15B9FFF78BFF99
:1014200001E0FFF767FF204670BD0000001001409B
:10143000AC0122420000224270B504460D46002055
:10144000FFF7BCF90020FFF7D5F9002076490870B6
:1014500076A1794800F0BBF970BD2DE9F041044652
:101460000D46022C03DA75A1734800F0B0F96868E4
:1014700008F0A6FC064609F0C1F87549087075A188
:101480006D4800F0A4F9BDE8F0812DE9F041044673
:101490000D46022C03DA69A1674800F098F96868E4
:1014A00008F08EFC064608F0F7FD6D4988608868F4
:1014B00009F048FC064632460B466AA15E4800F039
:1014C00086F9BDE8F0812DE9F04104460D46022C75
:1014D00003DA5AA1584800F07AF9686808F070FCFD
:1014E000064608F0D9FD5E49C860C86809F02AFCC4
:1014F000064632460B465FA14F4800F068F9BDE84A
:10150000F0812DE9F04104460D46022C03DA4BA18F
:10151000494800F05CF9686808F052FC064608F09B
:10152000BBFD4F490861086909F00CFC06463246CC
:101530000B4655A1404800F04AF9BDE8F0812DE97D
:10154000F04104460D46022C03DA3CA13A4800F073
:101550003EF9686808F034FC064608F09DFD4F49E6
:101560008860886809F0EEFB064632460B464CA1BF
:10157000314800F02CF9BDE8F0812DE9F041044636
:101580000D46022C03DA2DA12B4800F020F96868E3
:1015900008F016FC064608F07FFD4049C860C868A0
:1015A00009F0D0FB064632460B4645A1224800F022
:1015B0000EF9BDE8F0812DE9F04104460D46022CFC
:1015C00003DA1EA11C4800F002F9686808F0F8FB75
:1015D000064608F061FD31490861086909F0B2FB6F
:1015E000064632460B463EA1134800F0F0F8BDE82F
:1015F000F0812DE9F04104460D46022C04DA40A1A9
:101600000D4800F0E4F80DE0686808F0D9FB0646E4
:1016100008F0F4FF04490870084602783CA1064827
:1016200000F0D5F8BDE8F08100000020BDE1CAF867
:10163000D4CBD0D00A000000003801406572726F30
:1016400072217365745F73706565645F700A000072
:1016500001000020BFAACABCD4CBD0D00A00000031
:10166000600200202020206D6F746F725F706964CB
:1016700025660A0020206D6F746F725F7069642D9B
:101680003E4925660A00000020206D6F746F725F6E
:101690007069642D3E4425660A0000008002002027
:1016A000206D6F746F7232345F706172616D65743A
:1016B00065722E73706565645F702025660A000090
:1016C000206D6F746F7232345F706172616D65741A
:1016D00065722E73706565645F69200D25660A006A
:1016E000206D6F746F7232345F706172616D6574FA
:1016F00065722E73706565645F642025660A00005C
:101700006572726F72217365745F746573740A0019
:10171000C9E8D6C3D4CBD0D0C4A3CABD2025640A9F
:101720000000000010B588B04FF40070ADF80C0058
:1017300018208DF80F0003208DF80E0003A9CD4866
:1017400003F04EFD4FF48060ADF80C0004208DF8DE
:101750000F0003A9C74803F043FD4FF4E1300490A4
:101760000020ADF81600ADF81400ADF81800ADF883
:101770001C000C20ADF81A000020ADF804004FF456
:101780000070ADF808000020ADF80600ADF80A00C2
:1017900001A9B94804F0FCF804A9B74804F083F89B
:1017A000012240F22551B44804F015F90121B24854
:1017B00004F005F9002406E00A2005F0B1F9AF496C
:1017C00041F82400641C042CF6DB08B010BD0FB4F3
:1017D00030B5A1B00546002426A80090802101A8BC
:1017E000009B259A05F0F0F98021284604F0CFF9F6
:1017F00026E001A8005D0A2813D10D21284604F037
:101800004BF900BF8021284604F0B4F90028F9D034
:101810002046621CD4B201AA115C284604F03CF9AF
:1018200007E02046621CD4B201AA115C284604F0ED
:1018300033F900BF8021284604F09CF90028F9D034
:10184000802C03DA01A8005D0028D2D1002000908E
:1018500021B030BC5DF814FB2DE9F04105460E4681
:101860000024092715B9601EBDE8F081002418E0A6
:1018700004EB4402824B03EB0210316805F0CEFB0F
:1018800070B980A17C48FFF7A2FF04EB44007C49BB
:1018900001EB00103146C26A284690470020E3E77A
:1018A000641CBC42E4D36FF00100DDE72DE9F04198
:1018B00003460F46144600250022002128466D1CD1
:1018C0001E5C25E0202E14D11AB928466D1C1E5C22
:1018D0001EE0042902D1481FBDE8F081002054F821
:1018E00021C00CF80200491C002228466D1C1E5C19
:1018F0000EE0092A02D16FF00100EDE754F82180D3
:101900001046521C08F8006028466D1C1E5C00BF83
:101910000D2ED7D119B912B96FF00200DCE74FF0E4
:1019200000080846491C54F8200000F8028039607D
:101930000020D1E7F8B540F225514F4804F030F9C6
:10194000002866D040F225514B4804F053F94A482C
:1019500004F0A6F8C6B20A2E5CD14BA14648FFF7A8
:1019600036FF4B48006800B9F8BD4A480168006876
:10197000401C484A106048484654404A6946FFF7B0
:1019800095FF0446002C22DAE01C48B900204049AB
:1019900008604049086020213F4805F017FBE3E755
:1019A000A01C20B93DA13448FFF711FF05E0601CE1
:1019B00018B940A13048FFF70AFF002034490860F9
:1019C000344908602121344805F000FBCCE72B495D
:1019D0000098FFF741FF0446002C11DAA01C28B93B
:1019E000264838A102682448FFF7F1FE0020284964
:1019F0000860284908602121274805F0E7FAB3E785
:101A0000002023490860234908602121224805F06D
:101A1000DDFA2CE01E480068202805D100201C4972
:101A200008601C4908609FE700250BE01948006822
:101A3000401B401E1849085C16490968491B164A94
:101A400050546D1C1348006811490968401AA84297
:101A5000ECD811480E49096846540D480068401CEE
:101A60000B4908600B480068401C0A49086000BF29
:101A70007AE700000008014000380140C40200205D
:101A8000500000200A000000646F6E650000000036
:101A90000002002004020020A00200200A746865F1
:101AA00020706172616D20697320746F6F206C6F9C
:101AB0006E6700000A746F6F206D616E792070612F
:101AC00072616D000D0A6E6F742066696E6420632A
:101AD0006F6D6D6D616E643A25730A0070B50546D1
:101AE0000C46FFF79FFBD020FFF746FCFFF7D7FB24
:101AF00018B1FFF7B5FB012070BD2846FFF73CFC8D
:101B0000FFF7CDFB2046FFF737FCFFF7C8FB18B106
:101B1000FFF7A6FB0120EFE7FFF7A2FB0020EBE7B2
:101B200070B504460025BC2C01DB012510E0622CB9
:101B300001DB02250CE02A2C01DB032508E0142C34
:101B400001DB042504E00A2C01DB052500E0062565
:101B500029461A20FFF7C2FF70BD70B50446B4F5E0
:101B60007A7F01DD4FF47A74042C00DA04244FF4F8
:101B70007A7090FBF4F0401EC5B229461920FFF799
:101B8000ADFF0546264604EBD671C1F34F00FFF7C3
:101B9000C7FF70BD70B50446FFF744FBD020FFF7C8
:101BA000EBFBFFF77CFB2046FFF7E6FBFFF777FB3D
:101BB000FFF738FBD120FFF7DFFBFFF770FB0020BA
:101BC000FFF703FC0546FFF74BFB284670BD10B539
:101BD0000446E006010E1C20FFF780FF10BD10B583
:101BE0000446E006010E1B20FFF778FF10BD10B57C
:101BF000FFF7FFFA80216B20FFF770FF642003F0EE
:101C0000E0F900216B20FFF769FF0320FFF7E7FFF2
:101C10000020FFF7DCFF3220FFF79FFF0021382074
:101C2000FFF75CFF00216A20FFF758FF0021232007
:101C3000FFF754FF80213720FFF750FF7520FFF793
:101C4000A9FF0446682C0BD101216B20FFF746FF4A
:101C500000216C20FFF742FF3220FFF77EFF01E0FA
:101C6000012010BD0020FCE72DE9F04106460F469B
:101C700014461D46FFF7D6FA002141EA4601C8B2D4
:101C8000FFF77AFBFFF70BFB20B1FFF7E9FA012022
:101C9000BDE8F0813846FFF76FFBFFF700FBFFF769
:101CA000C1FA012101EB4601C8B2FFF765FBFFF75E
:101CB000F6FA0DE0012C04D10020FFF786FB287016
:101CC00003E00120FFF781FB2870601EC4B26D1C89
:101CD000002CEFD1FFF7C4FA0020D9E72DE9F84F27
:101CE0006B46022241216820FFF7BEFF9DF80100EC
:101CF0009DF8001040EA01200FFA80FA504608F0E3
:101D0000AAFC804600224B4B08F0B4FA06464A4A29
:101D10004A4B08F0F3F9044608F0BEF983464849F7
:101D2000584609F03BFA044609F09CF900B2BDE8B8
:101D3000F88F2DE9FC4104460D4616466B460622F7
:101D400043216820FFF790FF0746BFB99DF80100C7
:101D50009DF8001040EA012000B220809DF80300A9
:101D60009DF8021040EA012000B228809DF805008D
:101D70009DF8041040EA012000B230803846BDE8EA
:101D8000FC812DE9FC4104460D4616466B460622B1
:101D90003B216820FFF768FF0746BFB99DF80100A7
:101DA0009DF8001040EA012000B220809DF8030059
:101DB0009DF8021040EA012000B228809DF805003D
:101DC0009DF8041040EA012000B230803846BDE89A
:101DD000FC812DE9F04105460E4617469846FFF76F
:101DE00021FA002141EA4501C8B2FFF7C5FAFFF721
:101DF00056FA20B1FFF734FA0120BDE8F0813046F1
:101E0000FFF7BAFAFFF74BFA00240CE018F80400C9
:101E1000FFF7B2FAFFF743FA18B1FFF721FA0120F2
:101E2000EBE7601CC4B2BC42F0DBFFF719FA0020FC
:101E3000E3E7000000407540A4703D0AD7434240EC
:101E40000000C84210B5C8234FF48062F74940F63D
:101E5000F63002F09BFC10BD10B586B00446F4A02D
:101E600000680390F3A000680290F3A0006801905E
:101E7000F2A00068009004F0030003A9085C8DF84C
:101E8000140003A8C4F3C101405C8DF8150003A839
:101E9000C4F38111405C8DF8160004F0030002A920
:101EA000085C8DF8100002A8C4F3C101405C8DF8F5
:101EB000110002A8C4F38111405C8DF8120005AA3C
:101EC000032140F2264002F0E7FB18B14FF0FF304B
:101ED00006B010BD04AA032140F22A4002F0DCFB48
:101EE00010B14FF0FF30F3E701980590009804908F
:101EF00004F0040058B19DF8140040F001008DF882
:101F000014009DF8100040F001008DF8100004F05E
:101F1000200058B19DF8150040F001008DF8150023
:101F20009DF8110040F001008DF8110004F480705C
:101F300058B19DF8160040F001008DF816009DF88C
:101F4000120040F001008DF8120005AA03214FF4A1
:101F5000886002F0A1FB10B14FF0FF30B8E704AA8F
:101F6000032140F2314002F097FB10B14FF0FF30F7
:101F7000AEE7B34804810020AAE71FB50446B04885
:101F8000007A00F0030054F820000190AC48007A79
:101F900000F0040010B1019840420190A848007A76
:101FA000C0F3C10054F820000290A548007A00F068
:101FB000200010B1029840420290A148007AC0F37C
:101FC000811054F8200003909D48008900F480702F
:101FD00010B10398404203909A49019880FB010197
:101FE000800F40EA810001909649029880FB011021
:101FF000820042EA917002909249039880FB01109E
:10200000820042EA917003900198000E8DF8000062
:102010000198000C8DF801000198000A8DF802006B
:102020000198C0B28DF803006A4604214FF4747021
:1020300002F032FB18B14FF0FF3004B010BD02982F
:10204000000E8DF800000298000C8DF80100029837
:10205000000A8DF802000298C0B28DF803006A46AB
:1020600004214FF4757002F017FB10B14FF0FF30F0
:10207000E3E70398000E8DF800000398000C8DF83C
:1020800001000398000A8DF802000398C0B28DF891
:1020900003006A4604214FF4767002F0FDFACCE7A3
:1020A00070B588B0064601A801F0FDFCBDF804003B
:1020B0000021C90341EA5045C4036148007A00F099
:1020C000030056F8200005905D48007A00F00400F7
:1020D00010B10598404205905948007AC0F3C100FC
:1020E00056F8200006905648007A00F0200010B103
:1020F0000698404206905248007AC0F3811056F884
:10210000200007904E48008900F4807010B10798B5
:10211000404207900598C117A0FB042301FB04313E
:1021200000FB0510810041EA927005900698C117E6
:10213000A0FB042301FB043100FB0510810041EAF0
:10214000927006900798C117A0FB042301FB04318D
:1021500000FB0510810041EA927007900598000E7F
:102160008DF808000598000C8DF809000598000A04
:102170008DF80A000598C0B28DF80B000698000E85
:102180008DF80C000698000C8DF80D000698000ADA
:102190008DF80E000698C0B28DF80F000798000E5B
:1021A0008DF810000798000C8DF811000798000AB0
:1021B0008DF812000798C0B28DF8130002AA0C2106
:1021C0004FF4257002F068FA08B070BD30B585B0E4
:1021D00004461DA207CA02AB07C3C82C03DD4FF09B
:1021E000FF3005B030BDC82090FBF4F0401E85B232
:1021F000280A8DF80000E8B28DF801006A46022135
:1022000040F2162002F048FA10B14FF0FF30E8E734
:1022100002AA0C2140F6C12002F03EFA10B14FF0A4
:10222000FF30DEE7064884810020DAE7D0B50008F9
:102230004CCD6C000CC92C00365676002646660044
:102240009C03002009E3CA02FEF2ABC4AAF1DFDF5F
:10225000BBAFDFDF0146FC48808908800020704763
:102260002DE9FC4706460F4606F0070010B1B7F50A
:10227000C86F03DD4FF0FF30BDE8FC87384608F03B
:1022800045FF8146F14908F0F7FD8046684601F0B8
:102290008EFB9DF80000022806D0042816D00828DE
:1022A00026D0102848D135E04FF08D41404608F047
:1022B00075FF814608F0F2FE84B2E549404608F019
:1022C0006DFF814608F0EAFE85B238E04FF08C41A0
:1022D000404608F063FF814608F0E0FE84B2DD4925
:1022E000404608F05BFF814608F0D8FE85B226E044
:1022F0004FF08B41404608F051FF814608F0CEFE7A
:1023000084B2D549404608F049FF814608F0C6FE30
:1023100085B214E04FF08A41404608F03FFF814605
:1023200008F0BCFE84B2CD49404608F037FF814634
:1023300008F0B4FE85B202E04FF0FF309CE700BF2A
:1023400020128DF80400E0B28DF8050028128DF8F7
:102350000600E8B28DF8070006F00100A0B101AA5E
:1023600002214FF4EA7002F097F910B14FF0FF30FC
:1023700082E70DF1060202214FF4927002F08CF90F
:1023800010B14FF0FF3077E706F00200A0B101AACC
:1023900002214FF4EC7002F07FF910B14FF0FF30E2
:1023A0006AE70DF1060202214FF4947002F074F90D
:1023B00010B14FF0FF305FE706F00400A0B101AAB2
:1023C00002214FF4EE7002F067F910B14FF0FF30C8
:1023D00052E70DF1060202214FF4967002F05CF90B
:1023E00010B14FF0FF3047E7002045E738B504460D
:1023F0000020009004F0010020B19DF8000040F0A2
:102400003000009004F0020020B19DF8000040F080
:102410000C00009004F0040020B19DF8000040F092
:10242000030000906A4601214FF4A47002F034F9D1
:1024300038BD38B50446012C01DA012402E0042C31
:1024400000DD0424601EC0B200906A46012140F203
:102450004F1002F021F938BD38B50446052094FB31
:10246000F0F085B228128DF80000E8B28DF8010076
:102470006A4602214FF4EF7002F00EF938BD38B50C
:102480000446052094FBF0F085B228128DF8000078
:10249000E8B28DF801006A4602214FF4ED7002F0B7
:1024A000FBF838BDF8B505460E464FF47A7095FB3B
:1024B000F0F000FB06F4200E8DF80000200C8DF8E3
:1024C0000100200A8DF80200E0B28DF803006A4690
:1024D00004214FF4AE7002F0DFF8F8BD38B50446C1
:1024E000052094FBF0F084B220128DF80000E0B2D9
:1024F0008DF801006A4602214FF4AD7002F0CCF86D
:1025000038BD38B50446052094FBF0F084B22012A3
:102510008DF80000E0B28DF801006A4602214FF408
:10252000AC7002F0B9F838BD38B5044614B94FF0B4
:10253000FF3038BD6A4604214FF4587002F0E9F8C4
:1025400010B14FF0FF30F4E79DF8000000069DF851
:10255000011040EA01409DF8021040EA01209DF878
:102560000310084320600020E3E738B50446200E3E
:102570008DF80000200C8DF80100200A8DF8020073
:10258000E0B28DF803006A4604214FF4587002F05F
:1025900083F838BD38B5044614B94FF0FF3038BD64
:1025A0006A4604214FF4717002F0B3F810B14FF095
:1025B000FF30F4E79DF8000000069DF8011040EAA6
:1025C00001409DF8021040EA01209DF803100843E5
:1025D00000EB8000800020600020E0E738B5044672
:1025E0001420B4FBF0F4200E8DF80000200C8DF8C0
:1025F0000100200A8DF80200E0B28DF803006A465F
:1026000004214FF4717002F047F838BD38B5044624
:1026100064B120208DF8000028208DF801003020C2
:102620008DF8020038208DF8030004E0A322042175
:10263000684604F0C3FC6A46042140F69E2002F07E
:102640002BF800F083FC38BD9C03002000004843B9
:10265000000040460000C045000040450000C04466
:1026600038B5044664B1C0208DF80000C2208DF852
:102670000100C4208DF80200C6208DF8030004E09C
:102680008B220421684604F099FC6A46042140F636
:10269000982002F001F800F059FC38BD3EB5044620
:1026A0006CB1FDA1D1E900208968CDE9002002913B
:1026B0006A4609214FF4976001F0EEFF3EBDF9A292
:1026C000D2E900109268CDE9010200916A46092121
:1026D0004FF4976001F0E0FFF0E73EB504460220BA
:1026E0008DF80000CA208DF80100E3208DF802006B
:1026F00009208DF803006A460421682001F0CCFF10
:10270000A3208DF8000004F0400048B1C0208DF8EF
:102710000100C8208DF80200C2208DF8030006E0F9
:10272000A3208DF801008DF802008DF8030004F459
:10273000C07048B1C4208DF80400CC208DF805008D
:10274000C6208DF8060006E0A3208DF804008DF861
:1027500005008DF80600A3208DF807008DF808000D
:102760008DF809006A460A2140F6A72001F094FF7F
:1027700004F0030018B120208DF8000002E0D820FA
:102780008DF800006A46012140F6B62001F084FF72
:1027900004F0200018B10120FFF780FF02E00020C4
:1027A000FFF77CFF04F4C07008B304F4807060B1DC
:1027B000B2208DF800008B208DF80100B6208DF836
:1027C00002009B208DF803000BE0B0208DF8000084
:1027D00080208DF80100B4208DF8020090208DF843
:1027E00003006A46042140F6A22001F055FF04F0E0
:1027F000010020B3F8208DF800006A4601214FF453
:102800000B6001F049FFFA210720FFF729FD07209F
:10281000FFF7ECFD0120FFF70CFE6420FFF71CFE24
:102820004FF4FA70FFF72BFEC821A148FFF73AFEDC
:102830002820FFF753FE0A20FFF763FE08E0D820A8
:102840008DF800006A4601214FF40B6001F024FF6F
:1028500004F0020018B1D9208DF8000002E0D82061
:102860008DF800006A46012140F23D7001F014FF2E
:1028700004F0040018B10120FFF7F2FE02E000208E
:10288000FFF7EEFE04F0100018B10120FFF7BEFEC6
:1028900002E00020FFF7BAFE44F0080085494881B5
:1028A00000F054FB00208349887304F0400018B105
:1028B0000846807B801D887304F4C07020B17D4879
:1028C000807B801D7B49887304F0140020B1794817
:1028D000807B10307749887304F0030020B175487D
:1028E000807B001D7349887300203EBD01467148FE
:1028F00040890880002070472DE9F0410446E078C7
:1029000000F0C006E07800F03F05607800F00100BC
:1029100098B1EF102846E91705EB5171C910A5EBE6
:10292000C101491C01F0FF086248006820B16148FC
:10293000414602683846904700BF607800F00800C2
:1029400030B15C48406818B1B0115A4A51688847A4
:102950000020BDE8F08110B586B0044656A207CA33
:1029600003AB07C357A207CA8DE80700012C09D0A3
:10297000022C0ED103AA0B2140F6822001F08CFE1E
:1029800006B010BD6A460B2140F6822001F084FE9D
:10299000F6E74FF0FF30F3E72DE9F04F8DB0074633
:1029A000884615469946DDE9166B002400203080E4
:1029B0004049887B5A4605A901F0D1F918B1601E3B
:1029C0000DB0BDE8F08F3B48807A00F0140000287D
:1029D00061D09DF8140000069DF8151040EA0140F2
:1029E0009DF8161040EA01209DF817100843286052
:1029F0009DF8180000069DF8191040EA01409DF866
:102A00001A1040EA01209DF81B10084368609DF8E9
:102A10001C0000069DF81D1040EA01409DF81E10A4
:102A200040EA01209DF81F100843A8609DF820008F
:102A300000069DF8211040EA01409DF8221040EA6E
:102A400001209DF823100843E86004F11000C4B28F
:102A5000286800140190686800140290A8680014A7
:102A60000390E8680014049001984043029901FB28
:102A70000100039901FB0100049901FB010ABAF16D
:102A8000706F02DBBAF1885F22DD00F05FFA002090
:102A90003080401E94E721E0B8AAB38DB4980D357C
:102AA0005D000000B8AAAAAAB088C3C5C70000008C
:102AB00009E3CA029C030020D8B1B9F38BA391B6F5
:102AC00009B4D900DAB1B9F38BA391B6DAB4DA005C
:102AD000B6F9000040F48070308000BF3448807A3E
:102AE00000F0400020B305A9601C085C095D40EAC5
:102AF000012000B2A8F8000005A9E01C095C05AAA5
:102B0000A01C105C41EA002000B2A8F8020005A950
:102B1000601D095C201D105C41EA002000B2A8F88D
:102B20000400A01DC4B2B6F9000040F008003080D7
:102B30001F48408900F4C07008B305A9601C085CF8
:102B4000095D40EA012000B2388005A9E01C095C5B
:102B500005AAA01C105C41EA002000B2788005A9FB
:102B6000601D095C201D105C41EA002000B2B880A5
:102B7000A01DC4B2B6F9000040F0700030800C48CF
:102B8000807A00F0030018B105A90819FFF7B4FE18
:102B9000484600F048FD002012E701460448016065
:102BA0000020704701460248416000207047000045
:102BB0009C03002038B50446F74890F82400C0B1C3
:102BC00014B10220009001E000200090F24A126847
:102BD000D17BF14A526810786B460122FFF7F9F871
:102BE00010B14FF0FF3038BD9DF80010EA48417435
:102BF00023E0E948807A10B94FF0FF30F3E724B1C1
:102C0000E548407C08B10020EDE714B101200090B8
:102C100001E000200090E04A1268D17BDE4A526851
:102C200010786B460122FFF7D4F810B14FF0FF3057
:102C3000D9E79DF80010D84841740020D3E738B593
:102C400000241FE0D4480068C07AA04204D0D248D3
:102C50000068407DA04200D112E0CF494968087861
:102C60006B4601222146FEF7FFFF10B14FF0FF3007
:102C700038BD9DF800202146C8A003F0BFFF00BF6B
:102C8000601CC4B2C44840680079A042DADC00206D
:102C9000EEE770B504460D46BF480068C07AA04212
:102CA00004D0BD480068407DA04202D14FF0FF3003
:102CB00070BDB94840680079A04202DC4FF0FF3097
:102CC000F6E7B549496808782B4601222146FEF708
:102CD000CBFFEDE738B50446AF4890F82300A0429B
:102CE00001D1002038BD14B13020009001E0002057
:102CF0000090A948807C20B19DF8000040F00200BF
:102D00000090A54890F8220020B19DF8000040F006
:102D100080000090A04A1268117D9F4A5268107886
:102D20006B460122FFF755F810B14FF0FF30D9E79D
:102D3000994880F823400020D4E738B5044604F0D1
:102D4000700010B10120009005E014B10020009047
:102D500001E040200090904A1268917C8E4A5268AF
:102D600010786B460122FFF734F820B100218A4821
:102D70008172481E38BD9DF8000020F04001864851
:102D800001730020009004F0400020B99DF800007D
:102D900040F00400009004F0200020B99DF80000ED
:102DA00040F00200009004F0100020B99DF80000EF
:102DB00040F00100009004F0080020B99DF80000E8
:102DC00040F038000090744A1268D17C724A526810
:102DD00010786B460122FEF7FCFF20B100216E48FF
:102DE0008172481EC6E724B1082C02D00020FFF7EC
:102DF00071FF6948847200210175322002F0E1F808
:102E00000020B7E738B504466348807CA04201D172
:102E1000002038BD002C46D05F4A126811795E4A06
:102E2000526810786B460122FEF71EFF10B14FF07A
:102E3000FF30EEE79DF8000020F020000090564A99
:102E400012681179544A526810786B460122FEF7D5
:102E5000C0FF10B14FF0FF30DBE7032002F0B1F804
:102E6000022000904C4890F8220020B19DF800000C
:102E700040F080000090484890F8230020B19DF871
:102E8000000040F030000090434A1268117D424A31
:102E9000526810786B460122FEF79BFF002851D044
:102EA0004FF0FF30B5E73C4A126811793A4A526850
:102EB00010786B460122FEF7D7FE10B14FF0FF30BD
:102EC000A7E73548807A00F0010028B19DF800009E
:102ED00040F02000009004E09DF8000020F0200069
:102EE00000902D4A126811792B4A526810786B466F
:102EF0000122FEF76EFF10B14FF0FF3089E703208B
:102F000002F05FF8244890F8220010B18020009071
:102F100001E000200090204890F8230020B19DF8A7
:102F2000000040F0300000901B4A1268117D1A4AE0
:102F3000526810786B460122FEF74BFF10B14FF03C
:102F4000FF3066E714488474002062E708B5124831
:102F5000807A10B94FF0FF3008BD002000900E4A73
:102F60001268D17B0C4A526810786B460122FEF73A
:102F700030FF10B14FF0FF30EEE7074A1268517989
:102F8000054A526810786B460122FEF722FF68B1AD
:102F90004FF0FF30E0E700000802002025233578DD
:102FA0003A20252335780D0A00000000F84A1268FF
:102FB0001179F74A526810786B460122FEF709FF33
:102FC00010B14FF0FF30C7E7F14890F82400002817
:102FD00053D00C200090EE4A12681179EC4A5268E6
:102FE00010786B460122FEF7F4FE10B14FF0FF306F
:102FF000B2E7322001F0E5FFC0200090E448807A7B
:1030000000F0010020B19DF8000040F02000009089
:10301000DF4A12681179DE4A526810786B46012245
:10302000FEF7D7FE10B14FF0FF3095E7D848407C4F
:1030300010B10220009001E000200090D44A1268F4
:10304000D17BD34A526810786B460122FEF7C1FE4D
:1030500010B14FF0FF307FE700200090CC4A12689B
:103060005179CB4A526810786B460122FEF7B1FEC7
:10307000002855D04FF0FF306EE704200090C44A7E
:1030800012681179C24A526810786B460122FEF725
:10309000A0FE10B14FF0FF305EE7BD48807C20B944
:1030A000BB48807A00F0010010B94020009001E098
:1030B00060200090B64A12681179B54A52681078BB
:1030C0006B460122FEF785FE10B14FF0FF3043E75B
:1030D000322001F076FFAE48407C10B10120009014
:1030E00001E000200090AA4A1268D17BA84A5268E9
:1030F00010786B460122FEF76CFE10B14FF0FF30E6
:103100002AE7A34A12685179A14A52681078A04B65
:1031100010330122FEF75DFE10B14FF0FF301BE7C8
:10312000002019E770B50446002624F001049848F1
:1031300090F8240008B1002070BD9548807A10B93D
:103140004FF0FF30F8E79248057C807A20409049A4
:1031500008740846007CA04202D04FF0FF3600E021
:10316000002614B98A48007D18B10120FFF722FD1E
:1031700002E00020FFF71EFD3CB1FFF7E7FE20B1A3
:10318000834805744FF0FF30D6E73046D4E738B5B2
:1031900004467F48807A10B94FF0FF3038BDBC2C10
:1031A00002DB0120009015E0622C02DB022000907F
:1031B00010E02A2C02DB032000900BE0142C02DB31
:1031C0000420009006E00A2C02DB0520009001E0BC
:1031D000062000906E48C07A9DF80010884201D108
:1031E0000020DBE76A4A12689178694A52681078D1
:1031F0006B460122FEF7EDFD10B14FF0FF30CDE739
:103200009DF800106248C1720020C7E738B5044637
:10321000282C02DD4FF0FF3038BDDCB90020FFF76D
:1032200059FD00208DF8000007208DF80100584A54
:103230001268917C564A526810786B460222FEF75B
:10324000C8FD10B14FF0FF30E6E70021504801758E
:103250000020E1E70120FFF73DFD20208DF8000070
:10326000012C06D100208DF801000520FFF78FFF0B
:1032700017E0052C06DC01208DF801000520FFF782
:1032800086FF0EE0142C06DC02208DF801000A20D7
:10329000FFF77DFF05E003208DF801001420FFF704
:1032A00076FF9DF80100072101EB8010C0B28DF878
:1032B0000100374A1268917C354A526810786B4693
:1032C0000222FEF786FD10B14FF0FF30A4E708217F
:1032D0002F48817200210173012101750020FFF741
:1032E00021FF002098E738B504462948807A10B9B4
:1032F0004FF0FF3038BD264890F8240010B14FF051
:10330000FF30F7E72248007D50B134B1282C04DCAF
:10331000E0B2FFF77BFF0020ECE70020FFF776FF2D
:10332000042C01DA042404E0B4F57A7F01DD4FF4C3
:103330007A744FF47A7090FBF4F0401EC0B20090A3
:10334000134A12685178124A526810786B4601226B
:10335000FEF73FFD10B14FF0FF30CBE79DF80000C6
:10336000401C4FF47A7191FBF0F081B20848C181A2
:103370000146C9894810FFF70AFF0020BAE738B5AF
:1033800004460348807A28B94FF0FF3038BD00006A
:1033900008020020022C06D0042C07D0082C08D0EC
:1033A000102C0CD108E0002000900BE008200090C9
:1033B00008E01020009005E01820009002E04FF097
:1033C000FF30E3E700BFF948407A9DF80010B0EB0A
:1033D000E10F01D10020D9E7F44A1268D179F34A0C
:1033E000526810786B460122FEF7F3FC10B14FF0E3
:1033F000FF30CBE79DF80000C110EC48417200207F
:10340000C4E738B50446E948807A10B94FF0FF3078
:1034100038BDFA2C09D0B4F5FA7F09D0B4F57A7F1B
:1034200009D0B4F5FA6F0CD108E0002000900BE051
:103430000820009008E01020009005E0182000907F
:1034400002E04FF0FF30E3E700BFD848007A9DF874
:103450000010B0EBE10F01D10020D9E7D34A126888
:103460009179D24A526810786B460122FEF7B1FC7E
:1034700010B14FF0FF30CBE79DF80000C010CB49F2
:1034800008720020C4E71CB580208DF80000C74AF0
:103490001268917CC54A526810786B460122FEF78B
:1034A00098FC10B14FF0FF301CBD642001F089FD85
:1034B00000208DF80000BD4A1268917CBB4A52681A
:1034C00010786B460122FEF784FC10B14FF0FF30FC
:1034D000EAE7B64A1268917DB44A526810786B46A2
:1034E0000622FEF7C1FB10B14FF0FF30DCE79DF87C
:1034F0000500C007400F9DF8031001F0010140EAEC
:1035000041009DF8011001F0010140EA010494B16D
:10351000012C03D10121A548C17431E0022C03D153
:103520000021A248C1742BE02146A1A003F066FB54
:103530004FF0FF30B8E79D4A1268D1789B4A526835
:1035400010786B460122FEF78FFB10B14FF0FF3071
:10355000AAE79DF8000000F00F042CB99E4803F084
:103560004DFB4FF0FF309FE7042C06D19BA003F0EA
:1035700045FB01218D48C17402E000218B48C174D4
:10358000FF218A488172FF2088490872FF218748FD
:103590004172C1724FF6FF71C181FF2101748174C4
:1035A0000121017380F82210002180F82310417559
:1035B00001751630016041608160163880F8241072
:1035C00080F82510C1844FF4FA60FFF71AFF10B19C
:1035D0004FF0FF3068E70220FFF7D1FE10B14FF047
:1035E000FF3061E72A20FFF7D2FD10B14FF0FF3026
:1035F0005AE73220FFF777FE10B14FF0FF3053E764
:103600000020FFF78FFD10B14FF0FF304CE7002096
:10361000FFF7F8FB10B14FF0FF3045E70020FFF750
:103620008CFB002040E770477CB504460D465F48A0
:10363000807A00F0700010B94FF0FF307CBD5B4A1B
:103640001268117B594A526810786B460622FEF7C1
:103650000BFB10B14FF0FF30F0E79DF801009DF833
:10366000001040EA012000B220809DF803009DF880
:10367000021040EA012000B260809DF805009DF82C
:10368000041040EA012000B2A08015B12846FFF7DF
:10369000CAFF0020D2E77CB504460D464348807A35
:1036A00000F0080010B94FF0FF307CBD3F4A1268AF
:1036B000517B3E4A526810786B460622FEF7D4FAD8
:1036C00010B14FF0FF30F0E79DF801009DF80010B9
:1036D00040EA012000B220809DF803009DF802100E
:1036E00040EA012000B260809DF805009DF80410BA
:1036F00040EA012000B2A08015B12846FFF793FFF1
:103700000020D2E72DE9FE4F05460C462748807A77
:1037100018B94FF0FF30BDE8FE8F244A1268917B44
:10372000224A5268107802AB0222FEF79DFA10B1CD
:103730004FF0FF30EFE79DF809009DF8081040EAD0
:10374000012006B214B12046FFF76DFF1749496802
:10375000C88807F0DBFC154901904968B1F90800F9
:1037600007F0BCFC8346304607F0B8FC5946009091
:1037700007F012FE8246019907F07EFB81461F4941
:1037800007F00CFB80464FF08F4107F007FD07461E
:1037900007F068FC28600020BDE710B588B004463B
:1037A0001CB94FF0FF3008B010BD29E0080200201E
:1037B000556E737570706F7274656420736F667484
:1037C000776172652070726F6475637420726576BC
:1037D0002025642E0A00000004C5000848616C66BC
:1037E0002073656E7369746976697479207061728B
:1037F0007420666F756E642E0A00000000000C4293
:10380000206830B9606820B9A06810B9002008B0FD
:1038100010BDFA494968087806AB03221146FEF745
:1038200023FA10B14FF0FF30F1E79DF8180008219E
:1038300001EB201000F00F00ADF800009DF819001A
:1038400001EB201000F00F00ADF802009DF81A0007
:1038500001EB201000F00F00ADF8040020684100DB
:10386000BDF90000403091FBF0F000B2ADF810005F
:1038700060684100BDF90200403091FBF0F000B2F9
:10388000ADF81200A0684100BDF90400403091FB82
:10389000F0F000B2ADF81400D8494968087806ABDA
:1038A00006221146FEF7E0F910B14FF0FF30AEE707
:1038B0009DF819009DF8181040EA012000B2ADF8FB
:1038C00008009DF81B009DF81A1040EA012000B284
:1038D000ADF80A009DF81D009DF81C1040EA01207B
:1038E00000B2ADF80C00BDF81000BDF80810084497
:1038F00000B2ADF81000BDF81200BDF80A1008447F
:1039000000B2ADF81200BDF81400BDF80C10084468
:1039100000B2ADF81400BDF81000000A8DF81800D0
:10392000BDF81000C0B28DF81900BDF81200000AF1
:103930008DF81A00BDF81200C0B28DF81B00BDF85A
:103940001400000A8DF81C00BDF81400C0B28DF8F8
:103950001D00AA494968087806AB06221146FEF701
:1039600038FA10B14FF0FF3051E700204FE7014621
:10397000A248007A30B1012807D0022809D00328D4
:103980000FD10AE0FA2008800EE04FF4FA700880A8
:103990000AE04FF47A70088006E04FF4FA6008807D
:1039A00002E00020088000BF00BF002070470146F1
:1039B0009248407A30B1012807D0022808D0032865
:1039C0000CD108E0022008700BE00420087008E029
:1039D0000820087005E01020087002E04FF0FF306A
:1039E000704700BF8548C07C18B108784006000EBB
:1039F00008700020F4E701468048C07A082817D2F2
:103A0000DFE800F01704070A0D101318BC20088027
:103A100013E06220088010E02A2008800DE01420C6
:103A200008800AE00A20088007E00520088004E0FA
:103A300000BF00BF0020088000BF00BF002070470B
:103A400001466E4890F8240010B14FF0FF307047E7
:103A50006A48C08908800020F9E7014600200880F4
:103A6000401E704701464FF0FF30704701466348E3
:103A7000007A30B1012807D0022808D003280CD1E1
:103A800008E05F4808600BE05E48086008E05E48B8
:103A9000086005E05D48086002E04FF0FF307047C5
:103AA00000BF0020FBE701465448407A30B10128AE
:103AB00008D002280AD0032810D10BE04FF4804030
:103AC00008800EE041F69C7008800AE04FF48050B8
:103AD000088006E04FF40060088002E04FF0FF30FD
:103AE000704700BF4548C07C10B10888401008806E
:103AF0000020F5E701464148007C0870002070472F
:103B000001463E48807A10B10120087001E0002093
:103B100008700020704738B504463848807A10B9DC
:103B20004FF0FF3038BD354A1268117C334A526875
:103B300010786B460222FEF797F810B14FF0FF3075
:103B4000F0E79DF801009DF8001040EA012000B266
:103B500020800020E6E72DE9FE4F07468846924682
:103B60001D46DDF830B000260024244890F82400DB
:103B700010B1601EBDE8FE8F002028701F48807ABB
:103B800010B94FF0FF30F5E71C48007C10B94FF03A
:103B9000FF30EFE71948007C00F0400008B1B01C8E
:103BA000C6B21648007C00F0200008B1B01CC6B2B6
:103BB0001248007C00F0100008B1B01CC6B20F48DB
:103BC000007C00F0080008B1B01DC6B20B4A1268B4
:103BD000917A0A4A526810786B460222FEF744F83E
:103BE00010B14FF0FF30C5E79DF801009DF80010BF
:103BF00040EA0129B1450BDA0020BBE708020020AA
:103C000000000343000083423333034233338341D4
:103C1000FC4840684088B9EB600F17DDF94A12682C
:103C2000517CF84A526810786B460122FEF71CF866
:103C300010B14FF0FF309DE79DF8000000F010003C
:103C400020B1FFF783F96FF0010093E75046FFF7CB
:103C5000EAFCEC4A1268D17AEA4A526810786B465C
:103C60003246FEF701F810B14FF0FF3082E799FBC2
:103C7000F6F0401E8BF8000000202870B4422AD0D5
:103C8000E048007C00F0080028B3601C1DF800002C
:103C90001DF8041040EA012000B2A8F80000E01C62
:103CA0001DF80010A01C1DF8000041EA002000B221
:103CB000A8F80200601D1DF80010201D1DF800006E
:103CC00041EA002000B2A8F80400287840F008007B
:103CD0002870A01D84B2B44213D0CA48007C00F002
:103CE000400070B1601C1DF800001DF8041040EA8F
:103CF000012000B23880287840F040002870A01CD5
:103D000084B2B44213D0BF48007C00F0200070B1F0
:103D1000601C1DF800001DF8041040EA012000B2EC
:103D20007880287840F020002870A01C84B2B4422B
:103D300013D0B448007C00F0100070B1601C1DF876
:103D400000001DF8041040EA012000B2B880287875
:103D500040F010002870A01C84B200200AE7F8B5DB
:103D600004460F461646A74890F8240010B94FF0B5
:103D7000FF30F8BDA348807A10B94FF0FF30F8E764
:103D8000A04A1268917A9F4A526810786B460222C4
:103D9000FDF76AFF10B14FF0FF30EAE79DF8010030
:103DA0009DF8001040EA0125A54203DA002030709A
:103DB000401EDEE7934840684088B5EB600F17DD92
:103DC000904A1268517C8F4A526810786B460122E3
:103DD000FDF74AFF10B14FF0FF30CAE79DF8000031
:103DE00000F0100020B1FFF7B1F86FF00100C0E75C
:103DF000E2B2844B1B68D97A824B5B6818783B46E9
:103E0000FDF732FF10B14FF0FF30B2E795FBF4F051
:103E1000401E30700020ACE701467A4880F822103E
:103E2000002070477CB5054676494968087801ABA3
:103E300004220D21FDF718FF08B107207CBD9DF875
:103E40000700C0F301109DF8041001F0E00140EA02
:103E5000E1008DF800009DF80700C0F381009DF897
:103E6000051001F0E00140EAE1008DF801009DF845
:103E7000070000F003009DF8061001F0E00140EAA1
:103E8000E1008DF8020000241CE01DF8040018B9C0
:103E9000002045F8240013E05B4845F8240006E0C4
:103EA00055F82400594907F079F945F824001DF820
:103EB0000400401EC0B20DF804000028F0D100BF7D
:103EC000601CC4B2032CE0DB0020B7E72DE9FE4FF5
:103ED00006460F4600256846FFF7A4FF002442E08F
:103EE00056F8240057F82410A0EB010ABAF1000F8D
:103EF00001DB514601E0CAF10001084607F0EEF887
:103F000083464FF08F4106F0B7FF80465DF82400EE
:103F1000002107F073F816D05DF82410404606F033
:103F2000ABFF82464FF07E5107F036FA814629F00A
:103F3000004A3748416A504607F0FCF912D2012086
:103F4000A04005430EE03248C169404607F0F2F850
:103F500005D32F48016A404607F0ECF902D2012050
:103F6000A0400543641C032CBADB2846BDE8FE8F45
:103F70002DE9FC5F06460F4600252249496808786E
:103F800001AB03220D21FDF76FFE10B10720BDE844
:103F9000FC9F9DF8040000F01F008DF804009DF8C0
:103FA000050000F01F008DF805009DF8060000F0E8
:103FB0001F008DF80600002462E056F8240057F830
:103FC0002410A0EB010BBBF1000F01DB594601E00F
:103FD000CBF10001084607F081F84FF08F410090C7
:103FE00006F04AFF814601A8005DC0B30849086891
:103FF00007F08CF883465946064806F03DFF804698
:104000000FE00000080200207B14AE3E1D5A843FE2
:10401000F0C1000800B04C45FE49404607F0BEF82C
:10402000804601A8005D401EC0B201A908550028C5
:10403000F2D14146484606F01FFF83464FF07E51BD
:1040400007F0AAF982462AF0004BF34881695846E6
:1040500007F070F913D20120A04005430FE0FFE7FD
:10406000ED480169484607F065F805D3EA4841691B
:10407000484607F05FF902D20120A0400543641CC6
:10408000032C9ADB284682E72DE9F04F87B00546DE
:104090000C46914601208DF8100000208DF811008B
:1040A000DE4A1268917CDD4A5268107804AB022225
:1040B000FDF78FFE20B14FF0FF3007B0BDE8F08F65
:1040C000C82000F07EFF00208DF81000D34A12684F
:1040D000D17BD24A5268107804AB0122FDF779FEF9
:1040E00010B14FF0FF30E8E7CC4A12685179CB4A63
:1040F0005268107804AB0122FDF76BFE10B14FF04F
:10410000FF30DAE7C54A1268917CC44A52681078D9
:1041100004AB0122FDF75DFE10B14FF0FF30CCE79C
:10412000BE4A1268D17DBD4A5268107804AB0122A4
:10413000FDF74FFE10B14FF0FF30BEE7B74A1268EF
:104140001179B64A5268107804AB0122FDF741FE9E
:1041500010B14FF0FF30B0E70C208DF81000AF4ADF
:1041600012681179AD4A5268107804AB0122FDF74C
:1041700030FE10B14FF0FF309FE70F2000F021FF1D
:10418000A648806A407A8DF81000A44A1268917897
:10419000A24A5268107804AB0122FDF71AFE10B152
:1041A0004FF0FF3089E79D48806A007A8DF8100053
:1041B0009A4A12685178994A5268107804AB0122E1
:1041C000FDF707FE10B14FF0FF3076E7B9F1000FB1
:1041D00007D09248806A807A40F0E0008DF81000A5
:1041E00004E08E48806A807A8DF810008B4A12684D
:1041F00091798A4A5268107804AB0122FDF7E9FDF3
:1042000010B14FF0FF3058E7B9F1000F07D08348E5
:10421000806AC07A40F0E0008DF8100003E07E482C
:10422000C07A8DF810007D4A1268D1797B4A5268B5
:10423000107804AB0122FDF7CCFD10B14FF0FF3038
:104240003BE7B9F1000F02D0C82000F0BAFE4020D1
:104250008DF81000714A12681179704A526810780E
:1042600004AB0122FDF7B5FD10B14FF0FF3024E79C
:1042700078208DF81000694A12685179674A5268AF
:10428000107804AB0122FDF7A4FD10B14FF0FF3010
:1042900013E76149888900F094FE00208DF8100032
:1042A0005E4A126851795D4A5268107804AB012267
:1042B000FDF78FFD10B14FF0FF30FEE6574A126850
:1042C000917A564A5268107804AB0222FDF7CCFC72
:1042D00010B14FF0FF30F0E69DF811009DF810107E
:1042E00040EA012B0C209BFBF0F0C6B20020A86036
:1042F00068602860A06060602060824665E0474A90
:104300001268D17A454A5268107804AB0C22FDF746
:10431000ABFC10B14FF0FF30CFE69DF811009DF8D7
:10432000101040EA012000B2ADF808009DF813001B
:104330009DF8121040EA012000B2ADF80A009DF885
:1043400015009DF8141040EA012000B2ADF80C00F1
:10435000BDF90810206808442060BDF90A106068A3
:1043600008446060BDF90C10A0680844A0609DF886
:1043700017009DF8161040EA012000B2ADF80000C9
:104380009DF819009DF8181040EA012000B2ADF820
:1043900002009DF81B009DF81A1040EA012000B2AF
:1043A000ADF80400BDF90010286808442860BDF984
:1043B0000210686808446860BDF90410A8680844E1
:1043C000A8600AF1010000F0FF0AB24597DB12482D
:1043D000D0F800C02868C117090441EA1041070459
:1043E00062460023384602F0CAFB32460023CDE97C
:1043F000020102F0C4FB28600748D0F800C06868DA
:10440000C117090441EA10410704624600233846F7
:1044100006E0000054E3853FF0C1000808020020D8
:1044200002F0ADFB32460023CDE9020102F0A7FB0A
:104430006860FE48D0F800C0A868C117090441EAC6
:104440001041070462460023384602F098FB3246CA
:104450000023CDE9020102F092FBA860F348D0F8F6
:1044600004C02168C817000440EA11480F046246DE
:1044700000233846414602F082FB32460023CDE954
:10448000020102F07CFB2060E848D0F804C06068BC
:10449000C117090441EA1041070462460023384667
:1044A00002F06DFB32460023CDE9020102F067FB0A
:1044B0006060DE48D0F804C0A068C117090441EA72
:1044C0001041070462460023384602F058FB32468A
:1044D0000023CDE9020102F052FBA060A068002891
:1044E00004DDA068A0F58030A06003E0A06800F5BE
:1044F0008030A0600020E0E538B50446CC4890F854
:104500002400A04201D1002038BD24B3C84890F84F
:10451000250010B94FF0FF30F6E70020FEF74AFB08
:104520000020FEF76FFCC249C88CFEF7DCFE0020BD
:104530000090BF49496808786B4601222321FDF7A6
:1045400048FC0121BA4880F824100120FEF732FB14
:10455000FEF7FCFC13E00020FEF72CFBB448007CC7
:104560000090B349496808786B4601222321FDF782
:1045700030FC0021AE4880F82410FEF7E7FC002054
:10458000C2E72DE9F04F8DB083460F4602200C9014
:10459000A74890F8240020B10020FFF7ADFF0126C6
:1045A00000E0002603A8FFF7E2F905A8FFF7FFF9EE
:1045B00001A8FFF720FA02A8FFF742FA9C4890F8FA
:1045C0000AA004A8FFF796FA002407E00022394663
:1045D0005846FFF759FD00B902E0641C022CF5DBD8
:1045E00000BF022C01D1002528E0002407E00122B1
:1045F00006A909A8FFF748FD00B902E0641C022CD7
:10460000F5DB00BF022C01D1002517E006A93846D2
:10461000FFF75CFC00F0FF0809A95846FFF7A8FC6B
:1046200000F0FF090025B9F1000F01D145F00105A7
:10463000B8F1000F01D145F0020500BFFF207C4911
:104640000872FF217A484172C1724FF6FF71C18131
:10465000FF218172017401210173BDF80C00FEF786
:10466000D0FE9DF81400FEF78AFEBDF80400FEF7A8
:104670008EFDBDF80800FEF736FE5046FEF75DFBE6
:104680009DF81000FEF74EFD16B10120FFF734FF34
:1046900028460DB0BDE8F08FF8B504460D46164625
:1046A00016B94FF0FF30F8BD6148807A10B94FF06D
:1046B000FF30F8E720128DF80000E0B28DF801001D
:1046C0009DF8010028445A4949684989884202DD19
:1046D0004FF0FF30E7E7564A1268117E544A52689D
:1046E00010786B460222FDF774FB10B14FF0FF30DB
:1046F000D9E7EAB24E4B1B68597D4D4B5B68187881
:104700003346FDF766FB10B14FF0FF30CBE70020DA
:10471000C9E7F8B504460D46164616B94FF0FF3006
:10472000F8BD4348807A10B94FF0FF30F8E7201207
:104730008DF80000E0B28DF801009DF801002844DA
:104740003B4949684989884202DD4FF0FF30E7E77D
:10475000374A1268117E364A526810786B46022238
:10476000FDF737FB10B14FF0FF30D9E7EAB2304B1D
:104770001B68597D2E4B5B6818783346FDF774FA39
:1047800010B14FF0FF30CBE70020C9E72DE9F0432F
:1047900085B005460E4690469946254890F8250076
:1047A00020B14FF0FF3005B0BDE8F08316B94FF0EF
:1047B000FF30F8E7002423E0281B102801DD10203B
:1047C00000E0281B87B2321939462046FFF764FF04
:1047D00010B14FF0FF30E6E701AA39462046FFF757
:1047E00098FF10B14FF0FF30DDE730193A4601A9CC
:1047F00002F086FB10B16FF00100D4E7E01984B23B
:10480000AC42D9DB4FEA28208DF8000008F0FF0009
:104810008DF80100064A1268917E054A52681078A8
:104820006B460222FDF7D5FA38B103E0F0C100086B
:10483000080200204FF0FF30B5E70121F74880F86B
:104840002510A0F826900020ADE70146F34890F827
:1048500024000870002070474FF0FF307047024678
:104860004FF0FF30704701464FF0FF307047F8B50A
:1048700005460F461446002C70D0B5F5FF5F01DDEC
:10488000FF2605E0202D01DA012601E0C5F34716D9
:1048900007B90127282C02DD4FF0FF30F8BDDF48B3
:1048A000407D28BBDD4890F8240038B10020FFF798
:1048B00023FE0121D94880F8201003E00021D748C9
:1048C00080F82010D5481630FFF751F8D34818303B
:1048D000FFF76DF8D1481A30FFF78DF8CF481C303C
:1048E000FFF7AEF8CD48817A81771F30FFF702F9E4
:1048F0000020FEF75FF90020FEF788FC00208DF80D
:104900000000C64A12689178C44A526810786B4613
:104910000122FDF75EFA10B14FF0FF30BEE74020F4
:104920008DF80000BD4A1268D17BBC4A52681078ED
:104930006B460122FDF74DFA00B165E08DF800608D
:104940008DF80170B54A1268117AB44A526810782D
:104950006B460222FDF73DFA08B155E047E005201D
:1049600000F02FFBAD48407A072101EBC000C0B238
:104970008DF80000A94A1268D179A84A52681078C7
:104980006B460122FDF725FA00B13DE020208DF8AD
:104990000000012C03D100208DF801000EE0052C51
:1049A00003DC01208DF8010008E0142C03DC022058
:1049B0008DF8010002E003208DF801009DF8010050
:1049C000072101EB8010C0B28DF80100934A1268F4
:1049D000917C924A526810786B460222FDF7F9F9F1
:1049E00000B111E001218D484175002056E78B4A46
:1049F0001632002103E0505C00B105E0491C0C298F
:104A0000F9D34FF0FF3049E7FF2084490872FF21B6
:104A100082484172C1724FF6FF71C181FF218172DC
:104A20000174012101730146887FFEF786F97B49F5
:104A3000C88AFEF7E6FC7949087EFEF7A0FC7749B4
:104A4000488BFEF7A4FB7549888BFEF74CFC734935
:104A5000C87FFEF767FB714890F8200010B1012075
:104A6000FFF74AFD00216D484175002016E770B53B
:104A700088B002A905A8FFF784FD0446032C3ED1A7
:104A800001A8FEF7F3FF059806F028FB06460199FA
:104A900006F084FB054606F0E5FA0590069806F058
:104AA0001DFB0646019906F079FB054606F0DAFA89
:104AB0000690079806F012FB0646019906F06EFB79
:104AC000054606F0CFFA079005A8FDF756FA6846A6
:104AD000FEF7E9FFBDF80010029848430290BDF8C8
:104AE0000010039848430390BDF800100498484311
:104AF000049002A8FDF7D4FA002008B070BD012090
:104B0000FBE7014691F90020002A01DD00201EE0AC
:104B100091F90020002A01DA042018E091F901201F
:104B2000002A01DD012012E091F90120002A01DABA
:104B300005200CE091F90220002A01DD022006E0A8
:104B400091F90220002A01DA062000E007207047D0
:104B500010B504462046FFF7D4FF0346E01CFFF7DC
:104B6000D0FF43EAC00083B2A01DFFF7CAFF43EAAB
:104B7000801083B2184610BD70B50024FCF739FBD5
:104B80004FF47A7000F01DFAFEF77DFC002840D14A
:104B90007820FEF7D2F8C4B20CB1012070BD7820A5
:104BA000FEF7C0FAC4B20CB10220F7E76420FEF7AA
:104BB0009AFBC4B20CB10320F0E7FDF743F9C4B28D
:104BC0000CB10420EAE71648FFF7C2FF0546FDF7DF
:104BD00043F9C4B20CB10520E0E740F27310FDF7D1
:104BE0007CFDC4B20CB10620D8E76420FDF7EEFAD4
:104BF000C4B20CB10720D1E7FFF739FF04460CB16E
:104C00000820CBE70120FFF777FCC4B21CB10920D4
:104C1000C4E70A20C2E70020C0E700000802002025
:104C2000340200202DE9F04F99B004460D46164697
:104C30004FF07E574FF000084FF000094FF0000A88
:104C400012A813A918AB0EAACDE9001014A916A832
:104C5000FDF7A2FE18B1012019B0BDE8F08FBDF834
:104C60004C0000F4807000287ED00E9806F036FAD2
:104C700083464FF09D4106F0FFF807460F9806F077
:104C80002DFA83464FF09D4106F0F6F880461098C5
:104C900006F024FA83464FF09D4106F0EDF8814678
:104CA000119806F01BFA83464FF09D4106F0E4F898
:104CB000824639464FF0804006F070FA494605902A
:104CC00006F06CFA414607904FF0404006F066FA55
:104CD0005146059006F062FA0690079906F05EF8D4
:104CE000834606F02FF8CDE9080104F061FD4FF08E
:104CF0006632544BCDE90A0105F014FDCDE90C01F3
:104D000005F0CAF9206049464FF0804006F046FAA7
:104D10004946029006F042FA414604904FF0404066
:104D200006F03CFA4146029006F038FA03900499E6
:104D300006F032FB83464FF07E5106F02FF80590C7
:104D400006F000F8CDE9080139464FF0804006F042
:104D500025FA4146039006F021FA494604904FF0A7
:104D6000804006F01BFA00E068E05146039006F030
:104D700015FA8346049906F011F8059005F0E2FF54
:104D8000CDE90601DDE9082304F05AFF4FF0663251
:104D90002C4BCDE90A0105F0C5FCCDE90C0105F06D
:104DA0007BF928605146504606F0F8F949460490D0
:104DB000484606F0F3F941460390404606F0EEF906
:104DC00039460190384606F0E9F90090019905F05E
:104DD000E5FF0290039906F0DFFA8346049906F096
:104DE000DBFA059005F0AEFFCDE9080151463846E3
:104DF00006F0D4F949460490404606F0CFF90390F6
:104E0000049905F0CBFF4FF08041059006F0C6F9FC
:104E1000834605F097FFCDE90601DDE9082304F09C
:104E20000FFF4FF06632074BCDE90A0105F07AFC1F
:104E3000CDE90C0105F030F9306001E002200BE70C
:104E4000002009E766A64C4030B502460B464FF6F7
:104E5000FF70002112E0555C684000240AE000F079
:104E6000010525B14AF2010585EA600000E0401025
:104E7000651CECB2082CF2DB4D1CE9B29942EADB6E
:104E800030BD30B58BB000200790089009900A9093
:104E900003900490059006900090019002900025E8
:104EA00000240DE0264850F8240007A941F824000A
:104EB00007A850F8240003A941F82400601CC4B2DC
:104EC000042CEFDB002410E003A810F824000DF8F8
:104ED000140003A830F82400C0F30720012101EBDF
:104EE00044010DF80100601CC4B2042CECDB082165
:104EF0006846FFF7A9FF05462846E91705EB11614B
:104F00000912A5EB0121C9B28DF80810E91705EBCC
:104F10001161090A8DF8091000240DE000BF8021FD
:104F2000084800F027FE0028F9D01DF804100548B5
:104F300000F0B2FD601CC4B20A2CEFDB0BB030BD38
:104F4000AC0300200038014010B56FF0040000F001
:104F5000BAFE2E4800682E49B0FBF1F02D490870CA
:104F60000846007800EB4001C1EBC0104FF6FF711E
:104F700001EAC0002849088010BD0146254A127880
:104F80004A434FF0E0235A6100229A611A4612699F
:104F900042F001021A6100BF4FF0E022106900F0F8
:104FA00001021AB100F48032002AF5D04FF0E0225D
:104FB000126922F001024FF0E0231A6100229A6187
:104FC00070470146144A12884A434FF0E0235A6161
:104FD00000229A611A46126942F001021A6100BF6A
:104FE0004FF0E022106900F001021AB100F48032A3
:104FF000002AF5D04FF0E022126922F001024FF0B2
:10500000E0231A6100229A61704700001C00002012
:1050100000127A003E02002040020020014600BF3C
:105020007047014600BF704700BF2B4A128802F04C
:105030004002002AF9D0C2B2274B1B1D1A807047CC
:1050400010B586B00446012144F2040000F084FB50
:105050004FF40070ADF8140003208DF816001820EE
:105060008DF8170005A91D4800F0BAF84FF48060CC
:10507000ADF8140004208DF8170005A9174800F0BA
:10508000AFF825208DF8000003208DF801008DF881
:10509000020001208DF80300684600F0CAFD01946B
:1050A0000020ADF80800ADF80A00ADF80C00ADF82E
:1050B00010000C20ADF80E0001A9074800F0F3FB2A
:1050C000012240F22551044800F085FC01210248EC
:1050D00000F075FC06B010BD00380140000801402A
:1050E0000948804709480047FEE7FEE7FEE7FEE77C
:1050F000FEE7FEE7FEE7FEE7FEE7FEE704480549B8
:10510000054A064B70470000FF0400083101000803
:1051100020040020200A0020200600202006002075
:1051200010B50446CC48844208D10121042000F087
:105130002DFB0021042000F029FB46E0C7488442F3
:1051400008D10121082000F021FB0021082000F0F7
:105150001DFB3AE0C248844208D10121102000F032
:1051600015FB0021102000F011FB2EE0BD48844209
:1051700008D10121202000F009FB0021202000F0AF
:1051800005FB22E0B848844208D10121402000F00C
:10519000FDFA0021402000F0F9FA16E0B3488442FD
:1051A00008D10121802000F0F1FA0021802000F0D8
:1051B000EDFA0AE0AE48844207D10121801500F0E3
:1051C000E5FA0021A01500F0E1FA10BD10B50121AB
:1051D000084600F0DBFA0021012000F0D7FA10BDEC
:1051E0002DE9F0410246002500260020002300247E
:1051F000002791F803C00CF00F0591F803C00CF0E4
:10520000100CBCF1000F03D091F802C04CEA050568
:1052100091F800C0BCF1000F31D0146800202BE0E1
:105220004FF0010C0CFA00F3B1F800C00CEA0306D1
:105230009E4220D183004FF00F0C0CFA03F7BC43C1
:1052400005FA03FC4CEA040491F803C0BCF1280FF2
:1052500006D14FF0010C0CFA00FCC2F814C00AE0B1
:1052600091F803C0BCF1480F05D14FF0010C0CFAC6
:1052700000FCC2F810C0401C0828D1D31460B1F85B
:1052800000C0BCF1FF0F34DD546800202EE000F1B7
:10529000080C4FF0010808FA0CF3B1F800C00CEA52
:1052A00003069E4221D183004FF00F0C0CFA03F746
:1052B000BC4305FA03FC4CEA040491F803C0BCF1BA
:1052C000280F05D100F1080C08FA0CF8C2F8148078
:1052D00091F803C0BCF1480F07D100F1080C4FF062
:1052E000010808FA0CF8C2F81080401C0828CED338
:1052F0005460BDE8F0814FF6FF710180022181709A
:105300000421C17070470246002093680B400BB126
:10531000012000E0002070470146886880B2704795
:1053200002460020D3680B400BB1012000E00020B2
:1053300070470146C86880B270470161704741619B
:1053400070470AB1016100E041617047C160704778
:105350004FF480320A43826181618261826982698D
:10536000704702460020434B18684FF68073184080
:1053700040EA021008433F4B186070473E49C8613D
:105380007047F0B50A46002300240021002500F0F4
:105390000046B6F1004F02D1364EF16901E0354EBC
:1053A0007168C0F3034583B200F44016B6F5401FA0
:1053B00008D121F070612F4E766826F070662D4F6F
:1053C0007E6012E000F48016B6F5801F06D1032639
:1053D00006FA05F4A14341F0706106E0460D36017E
:1053E00003FA06F6B14341F0706122B1460D360171
:1053F00003FA06F6314300F00046B6F1004F02D141
:105400001C4EF16101E01B4E7160F0BD30B5002211
:105410008B071C0F0F2303FA04F2164B08338C1072
:1054200053F824309343134C08348D1044F825303E
:1054300023468C1053F824308C07240F00FA04F410
:1054400023430C4C08348D1044F8253030BD0A49F4
:10545000DC3108607047000000080140000C01408A
:10546000001001400014014000180140001C0140E0
:10547000002001400000014000002042DF48006899
:1054800040F00100DD49086008464068DC490840FA
:10549000DA49486008460068DA490840D749086098
:1054A0000846006820F4802008600846406820F420
:1054B000FE0048604FF41F0088607047CF490968BC
:1054C00021F48031CD4A11601146096821F4802110
:1054D0001160B0F5803F03D0B0F5802F0ED106E00B
:1054E000C649096841F48031C44A116007E0C349E4
:1054F000096841F4A021C14A116000E000BF00BF6B
:10550000704710B501460022002300204A11012AED
:1055100002D1BA4C236806E0022A02D1B74C236AB2
:1055200001E0B64C636A01F01F02012494401C4064
:105530000CB1012000E0002010BD38B50020009023
:105540000024002500BF3120FFF7DBFF054600984F
:10555000401C00900098B0F5A06F01D0002DF2D053
:105560003120FFF7CEFF08B1012400E000242046DF
:1055700038BD01460020A14A106820F0F80040EA3A
:10558000C10010607047A0490860704702460020C3
:105590009A4B586820F47C1042EA01031843974B59
:1055A0005860704798490866704701460020934A42
:1055B000506820F003000843506070478F484068EF
:1055C00000F00C007047014600208C4A506820F023
:1055D000F00008435060704701460020874A506839
:1055E00020F4E06008435060704701460020834A81
:1055F000506820F4605040EAC1005060704729B103
:105600007E4A527A02437D4B5A7204E07B4A527AB8
:1056100082437A4B5A7270477B49D8310860704791
:1056200001460020754A506820F44040084350600D
:1056300070470021714A20321170704A82F82010A0
:10564000012802D004280AD104E001216B4A20324B
:10565000117005E00521694A2032117000E000BF99
:1056600000BF70476949086070476449096A01438F
:10567000624A11627047654944390860704730B525
:1056800000210022002400235C4D6D6805F00C0110
:1056900021B1042905D0082923D105E05C4D05601E
:1056A00022E05B4D05601FE0544D6D6805F47012FB
:1056B000524D6D6805F48034022505EB92421CB909
:1056C000544D554305600BE04C4D6D6805F40035B5
:1056D0001DB1504D5543056002E04D4D55430560E9
:1056E00002E04B4D056000BF00BF444D6D6805F002
:1056F000F0010909484D6B5C0568DD4045603F4D90
:105700006D6805F4E061090A434D6B5C4568DD4056
:1057100085603A4D6D6805F46051C90A3E4D6B5C79
:105720004568DD40C560354D6D6805F44041890B25
:105730003A4D6B5CC568B5FBF3F5056130BD29B129
:105740002E4A526902432D4B5A6104E02B4A52699A
:1057500082432A4B5A61704729B1284A9269024311
:10576000264B9A6104E0254A92698243234B9A6151
:10577000704729B1214AD2690243204BDA6104E023
:105780001E4AD26982431D4BDA61704729B11B4A18
:10579000D2680243194BDA6004E0184AD2688243A7
:1057A000164BDA60704729B1144A12690243134B51
:1057B0001A6104E0114A12698243104B1A61704762
:1057C00012494039086070470F49C86470470B4957
:1057D000C87170470948406A40F0807007494862C4
:1057E000704701460020054A92680A400AB101202C
:1057F00000E00020704701498872704700100240A5
:105800000000FFF8FFFFF6FE000042428004424223
:1058100000127A0000093D004A0200205A020020CE
:1058200010B50446FB48844209D101218803FFF7E3
:10583000ADFF00214FF48040FFF7A8FF32E0F648AB
:10584000844209D101214804FFF7ADFF00214FF444
:105850000030FFF7A8FF25E0F048844209D101217C
:105860008804FFF7A0FF00214FF48020FFF79BFF83
:1058700018E0EB48844209D10121C804FFF793FFE7
:1058800000214FF40020FFF78EFF0BE0E548844233
:1058900008D101210805FFF786FF00214FF4801091
:1058A000FFF781FF10BD2DE9F04786B005460E4693
:1058B0000024A24600BFA1460027B08900B100BF66
:1058C0002F462C8A4CF6FF700440F08804432C824B
:1058D000AC894EF6F3100440B088318908437189D1
:1058E00008430443AC81AC8A4FF6FF400440B089C2
:1058F0000443AC8201A8FFF7C2FEC648874202D12A
:10590000DDF810A001E0DDF80CA0A88900F400404B
:1059100040B10AEBCA0000EB0A1031684900B0FB45
:10592000F1F807E00AEBCA0000EB0A1031688900C1
:10593000B0FBF1F86420B8FBF0F004012009642109
:1059400001FB1089A88900F4004040B1322000EB2F
:10595000C900B0FBF1F000F00700044308E032207A
:1059600000EB09106421B0FBF1F000F00F000443DC
:105970002C8106B0BDE8F0874FF41651016000217C
:105980008180C18001810C2141810021818170478A
:1059900010B502460020108A4FF2FF0318400B8812
:1059A0004C8823438C882343CC882343184310829C
:1059B00010BD0021018041808180C180704721B1EC
:1059C000828942F40052828104E082894DF6FF739D
:1059D0001A4082817047F0B5034600240026002556
:1059E000002040F66A17B94200D100BF1846C1F343
:1059F000421401F01F06012707FA06F5012C01D118
:105A00000C3004E0022C01D1103000E014301AB147
:105A100007682F43076002E00768AF430760F0BDE7
:105A20001AB1838A0B43838202E0838A8B43838289
:105A30007047028A4FF6F0731A400282028A0A43C4
:105A40000282704782894FF2FF731A4082818289F5
:105A50000A438281704721B1828942F00202828129
:105A600004E082894FF6FD731A4082817047028AF2
:105A70004FF6DF731A400282028A0A43028270479D
:105A800021B1028A42F48042028204E0028A4BF68B
:105A9000FF731A4002827047C1F308028280704788
:105AA00001468888C0F308007047818941F00101F0
:105AB00081817047028BD2B20283028B42EA0122BB
:105AC00002837047028B02F47F420283028B0A43F7
:105AD0000283704721B1828A42F02002828204E070
