:020000040800F2
:10000000080C0020350200083D0200083F020008ED
:1000100041020008430200084502000800000000F9
:10002000000000000000000000000000470200087F
:1000300049020008000000004B0200084D020008C1
:100040004F0200084F0200084F0200084F0200084C
:100050004F0200084F02000829210008A9220008C9
:100060004F0200084F0200084F0200084F0200082C
:100070004F0200084F0200084F0200084F0200081C
:100080004F0200084F020008191800084F0200082C
:100090004F0200084F0200084F0200084F020008FC
:1000A0004F0200084F020008B54300084F02000845
:1000B000C54300083D440008554500084F020008AC
:1000C0004F0200084F0200084F0200084F020008CC
:1000D0004F020008F94D00084F0200084F020008C7
:1000E000552200084F0200084F02000800F002F8F5
:1000F00000F090F80AA090E8000C82448344AAF132
:100100000107DA4501D100F085F8AFF2090EBAE82F
:100110000F0013F0010F18BFFB1A43F0010318473B
:10012000EC9F01000CA00100103A24BF78C878C1F0
:10013000FAD8520724BF30C830C144BF04680C60ED
:10014000704700000023002400250026103A28BF35
:1001500078C1FBD8520728BF30C148BF0B60704739
:100160006E2900F07582702900F0CD85662906F0B1
:100170000882652906F00582672906F00282612956
:10018000AFF3008003681B0A28BF41F08001692992
:1001900000F0A080642900F09D80752900F09A800D
:1001A0006F2900F05B85782900F09985E92900F036
:1001B000F584E42900F0F284F52900F0EF84EF29BA
:1001C00000F05885F82900F098850368DB0928BFFE
:1001D00041F08001632900F03586732900F03A86EA
:1001E000E32900F04586F32900F04A860020704795
:1001F0001FB500F093FD04000020002105F070FB06
:10020000401C60600020002105F054FBE0601FBD31
:1002100010B510BD00F0CAFE1146FFF7E9FF05F06A
:1002200051F800F0F1FE03B4FFF7F2FF03BC00F059
:1002300031FF00000948804709480047FEE7FEE714
:10024000FEE7FEE7FEE7FEE7FEE7FEE7FEE7FEE786
:1002500004480549054A064B70470000A9400008BC
:10026000ED00000808060020080C00200808002007
:10027000080800207CB51D4616460C00009001D0F1
:100280002044401E074B7B442A4669460190304675
:1002900000F005FC05461CB10020694600F012FC88
:1002A00028467CBD450800000FB41CB5084B06AAC3
:1002B0007B4469460090059800F0F1FB044600205D
:1002C000694600F0FFFB20461CBC5DF814FB0000F3
:1002D000110800002DE9F041064600241068752938
:1002E000314616A510D000F01FF9002802DA40426E
:1002F00013A507E031688A0701D512A502E0490776
:1003000004D511A5012401E000F017F900210A220B
:1003100006F1240709E0B0FBF2FCB0FBF2F302FBAC
:100320001C00303078541846491C0028F3D123466D
:100330002A463046BDE8F04100F031B90000000027
:100340002D0000002B000000200000002DE9F05FD0
:10035000894604464FF0000ADFF874B1FB44C0F848
:1003600020A02046E1688847002874D0252806D0C0
:10037000D4E901219047206A401C2062F1E7002661
:100380005F462046E16888472028054607DB312D77
:1003900005D2781910F8200C08B10643F1E7B00730
:1003A00001D526F00406C4F81CA00027C4F818A044
:1003B0002A2D09D0284604F0D7FE38B304EB87086D
:1003C000303DC8F8185019E059F8041B204604EBDA
:1003D00087029161E1688847012F054618D1E069DD
:1003E000002820DA26F020061DE0D8F8180000EBDF
:1003F000800005EB40003038C8F818002046E1685E
:100400008847054604F0B0FE0028EED1012F0AD03F
:100410002E2D08D12046E16888477F1C0546022F13
:1004200046F02006C4DBA069002803DA404246F00B
:100430000106A061F00701D026F010066C2D0BD04C
:10044000682D09D04C2D39D06A2D35D0742D35D07A
:100450007A2D33D016E038E0E1682F4620468847F1
:10046000B842054609D16C2F26D04FF48060E16870
:10047000064320468847054604E06C2F1AD04FF407
:10048000807006430DB3A5F14100192802D820352C
:1004900046F400664A462946204626604E46FFF747
:1004A0005FFE80B101280BD0F61D26F0070000F199
:1004B000080956E74020E4E78020D8E70020D6E787
:1004C00006F104094DE7284652E7206ABDE8F09F8F
:1004D000D69C010070477047704770B50446856927
:1004E0000068C10601D5302600E02026C00707D0ED
:1004F00070BDD4E9012130469047206A401C20623B
:100500006D1EF6D570BD70B5044685690078C007CC
:1005100007D170BDD4E9012120209047206A401CFA
:1005200020626D1EF6D570BD09684A0501D540B23E
:100530007047C905FCD500B2704709684A0501D566
:10054000C0B27047C905FCD580B2704770B50C4683
:100550000546012A05D02878800600D5EA690023DF
:1005600002E0012305E05B1C934202D2E05C00281C
:10057000F9D1A869E618C01AA861286A1844286247
:100580002846FFF7AAFF04E0D5E9012114F8010B82
:100590009047B442F8D32846FFF7B5FF70BD2DE968
:1005A000F0470D4699469246044600F1240801683A
:1005B000880604D5E06921F01001216000E00120E7
:1005C000A84201DD471B00E00027A1697A1902EB70
:1005D0000900081AA0612078C00602D42046FFF75F
:1005E0007CFF002608E0D4E901211AF806009047B4
:1005F000206A401C761C20624E45F4DB2078C00641
:100600000AD52046FFF769FF06E0D4E90121302032
:100610009047206A401C2062381EA7F10107F4DCD5
:1006200007E0D4E9012118F805009047206A401C32
:100630002062281EA5F10105F3DC2046FFF763FFC9
:100640002078000602D50220BDE8F0870120FBE7F4
:1006500011680268006A530501D508700AE0D305E5
:1006600001D5088006E0130603D5C217C1E90002D0
:1006700000E008600120704770472DE9FF4F0C46ED
:100680001E464FF0FF378BB0D2E90001DDF86080E5
:100690000A908A46C1F30A5505B93D46002108462D
:1006A0004FF00000BAF1000F00F4400005DA00EB53
:1006B00080004FF4400101EA50004FEA9059B9F12F
:1006C000010F00DDB9460A9850EA4A000ED044F600
:1006D0001050A5F2FF3545432F14B8F1000F1ED07E
:1006E0007542291E1EDDC9F100021CE0B8F1010FA0
:1006F0004FF0000001D0302103E0F24305E0215427
:10070000401CB042FBDB30460022002121540B99F3
:10071000C1F80880C1E900200FB0BDE8F08FBD1B13
:100720006D1CDEE74A4600DA694206A800F0ACFB21
:1007300006AB93E8070003AB83E8070050460A992D
:1007400000F0AFFC8DE80700A0F500501F380090C6
:100750000398002D09DD42F21F014A46084403A90F
:100760000390684600F00EFF08E0A0F500504A46EE
:100770001F3803A90390684600F018FF8DE80700B2
:100780000004000C03D04FF0FF30410800E0104699
:10079000B8F1000F03D00022009215461EE0751E2E
:1007A00005D400F0BFFA303262556D1EF9D5B3465C
:1007B0000122084302D000227F1C04E02078302868
:1007C00001D100227F1E002A099786D01DE0112D3D
:1007D00007DA00F0A7FA303262556D1C50EA0102C8
:1007E000F5D1084302D00098C8B10EE00021681E80
:1007F00005E0235C625C63542254401E491C814224
:10080000F7DBAB46A81B401E0990002004F80B0044
:100810000B98099AC0F80880C0E9002B7CE71126E4
:100820004FF0000859E72DE9F04F88460446D21DE5
:1008300022F0070191B0D1E90001CDE90A0104F0ED
:100840007FFC02460B98C00F01D02D2007E02068E6
:10085000810701D52B2002E0202101EAC000032AF4
:10086000099001D0072A05DB03464146204600F0E7
:100870009FFA0BE12078800601D5E06900E00620B0
:10088000B8F1650F814606D0B8F1660F18D0B8F1FF
:10089000670F70D131E00020B9F1110F009001DB3A
:1008A000112301E009F101030AAA01A90CA8FFF72D
:1008B000E4FEDDE90C70002609F10105834647E0FE
:1008C00001204B4600904FF000470AAA01A90CA84E
:1008D000FFF7D3FEDDE90DB00C995D46002610B997
:1008E00009F101000D18B9EB050003D4C0F1FF3682
:1008F00009F10105A5EB09002BE0B9F1010F01DABF
:100900004FF001090020B9F1110F0090484601DDB8
:10091000112300E003460AAA01A90CA8FFF7ADFEC7
:10092000DDE90C704D4600268346207800070AD486
:10093000AB4500DA5D4601A8012D04DD411911F82F
:10094000011C302907D04F4502DA17F1040F04DAF1
:10095000012082460FE06D1EEEE7002F02DCED1B4A
:100960003E4403E0781CA84200DD7D1CB81B00F16A
:10097000010A4FF000472078000703D4AA4501DBA5
:100980004FF0FF3A0021B7F1004F0DF143088DF809
:10099000431024D002202B23002F01DA7F422D2385
:1009A0000A21021EA0F1010000DC5FB197FBF1FCFF
:1009B00097FBF1F201FB1C7C17460CF1300C08F898
:1009C00001CDEEE7A8F1010003702188090501D5EA
:1009D000452100E06521A0F1010800F8011C0998FB
:1009E0000FA9A1EB0807FF1D00B10120411901EB80
:1009F000EA70A1693844081A401EA0612078C00638
:100A000002D42046FFF769FD099828B1D4E90121F5
:100A10009047206A401C20622078C00622D52046DC
:100A2000FFF75BFD1EE0002E04DBB34502DD01A8ED
:100A3000805D00E03020D4E901219047206A401C0D
:100A40002062761CAAF101005FEA000A0AD100F0D8
:100A500065F9C0680168405CD4E901219047206ACB
:100A6000401C2062281EA5F10105DCDC07E0D4E96A
:100A7000012118F8010B9047206A401C2062381EA3
:100A8000A7F10107F3DC2046FFF73DFD032011B07D
:100A900043E6000001694A1C02610878704700B50E
:100AA0008FB0CDE901310021059105497944CDE9A7
:100AB000031011466846FFF749FC0FB000BD000067
:100AC000E5FFFFFF0A6802F8010B0A607047D1E9F1
:100AD00000239A4202D2531C0B6010707047000032
:100AE0002DE9FF5F15468A460446DFF8AC80F844DE
:100AF0000027D8E900103E46CDE9001010E03AF892
:100B000016106A4602A800F02DFA411C07D0217881
:100B1000890603D5E269391891420DD80744761C3D
:100B20002078800602D5E069B84205DDAE42E6DBFA
:100B30003AF816000028E2D1A069C01BA061204647
:100B4000FFF7CBFCD8E90010CDE90010002017E03A
:100B50003AF818106A4602A800F004FAB0F1FF3F14
:100B600081460BD000250DF1080B05E0D4E90121E9
:100B70001BF8050090476D1C4D45F7D308F10100A7
:100B8000B0428046E4DB206A384420622046FFF70A
:100B9000BAFCBDE8FF9F0000569501002DE9F04129
:100BA0008046D21D22F007020025D2E90002F52975
:100BB00015A614D0011E72F1000106DA0023D0EB55
:100BC000030063EB020211A608E0D8F800108B07BF
:100BD00001D50FA602E0490701D50EA60125114651
:100BE000002408F1240704E000F09CF830323A5564
:100BF000641C50EA0102F7D12B463246214640469A
:100C0000BDE8F041FFF7CBBC000000002D00000064
:100C10002B0000002000000030B4002100F124046B
:100C200008E002F00705D208303542EA4372DB08DB
:100C30006554491C52EA0305F3D10468002310A24D
:100C4000250708D504F020040C4304D0C46901230F
:100C50000CA2641EC46130BCFFF7A1BC10B50446F1
:100C600021461068FFF769FC02462046BDE81040A7
:100C70000023D1E7D21D22F00701D1E90023CBE701
:100C80000000000030000000F0B40D4601880905A6
:100C900002D5214C7C4402E01F4C7C440E340021E0
:100CA00000F1240608E002F00F071209E75D42EAAE
:100CB00003721B097754491C52EA0307F3D10278E7
:100CC0000023120704D5702D06D009B10223113478
:100CD0002246F0BCFFF763BC01231034F8E770B57F
:100CE00004460D4621461068FFF727FC02462946B8
:100CF0002046BDE870400023C6E7D21D22F007035E
:100D0000D3E90023C0E70368126843F020030360BF
:100D10000823C3610023B7E7B89301000048704778
:100D2000C405002030B5B0F10A024FEA900E71F10F
:100D300000034EEA817EB0EB0E0061EB91014FEAB9
:100D4000101E4EEA017E10EB0E0041EB11114FEA2E
:100D5000102E4EEA016E10EB0E0041EB11214FEA0E
:100D6000104E4EEA014E10EB0E0041EB11414018BF
:100D700041F100014FEAD00040EA41704FEAD10151
:100D800010EB80054FEA810444EA907444EB0104BF
:100D90006D1944EB0404521BA3414FF0000348BFFC
:100DA0000A3200D530BD401C41F1000130BD0000C9
:100DB0002DE9F0411F46044603260168072A01F485
:100DC000006004DB08B116A505E016A503E008B134
:100DD00015A500E015A521F010002060A069C01E37
:100DE000A0610FB1401EA0612046FFF776FB4FB116
:100DF000D4E9012138469047206A401C2062C01C7B
:100E0000206206E0206AFAE7D4E9012115F8010B17
:100E10009047761EF8D22046FFF775FBBDE8F081BB
:100E20004E414E006E616E00494E4600696E66008E
:100E300010B5436913B1AFF3008001E0FFF786FB03
:100E4000012010BD127800F124010A7000224A70BE
:100E50000122EDE711684FF0FF32E9E710B5436971
:100E600013B1AFF3008001E0FFF73AFE012010BD9F
:100E7000128800F1240182840022C2840122EDE75D
:100E800011684FF0FF32E9E72DE9F0478146164639
:100E90008AB0334878440DC88DE80D003048784456
:100EA000801C03AC0DC884E80D0041F69B3008445B
:100EB000372190FBF1F290FBF1F5A5F1800501FBE4
:100EC00012041B3C02D56442012000E00020DFF840
:100ED00090A080460027FA44AAF1BE0A0DE0E00780
:100EE00009D03246684607EB47010AEB810100F062
:100EF0005DFB8DE8070064107F1C002CEFD1184FBC
:100F00007F44AC3F18E0E80714D007EB04100DF164
:100F1000180A90E80E008AE80E00C068F04201D17D
:100F200098190890324606A903A800F03FFB03ABCE
:100F300083E807006D10641C002DE4D13246694639
:100F4000B8F1000F03A802D000F01CFB01E000F094
:100F50002DFBC9E90001C9F808200AB0BDE8F087F7
:100F60005C92010070B516460C46054600F044F848
:100F7000036893F80101012806D0FF2C0FD8185DF3
:100F800068B101202C7070BDD3F8070132462146AC
:100F900003F2071303442846BDE8704018474FF09A
:100FA000FF3070BD00487047A40500207546FFF76C
:100FB000F9FFAE4605006946534620F00700854616
:100FC00018B020B5FFF744F9BDE820404FF0000607
:100FD0004FF000074FF000084FF0000B21F0070121
:100FE000AC46ACE8C009ACE8C009ACE8C009ACE864
:100FF000C0098D467047000010B5FFF78FFE001D39
:1010000010BD00BFDD4800000446AFF3008020465D
:10101000FFF709F94FF0013C50F8042B51F8043B5D
:101020009A4221D1A2EB0C03934313EACC1317D1BC
:1010300050F8042B51F8043B9A4215D1A2EB0C0353
:10104000934313EACC130BD150F8042B51F8043B13
:101050009A4209D1A2EB0C03934313EACC13DBD0E1
:101060004FF00000704700BFD01A01BAB1FA81F109
:1010700001F0180122FA01F0CB40C1F12001DBB2EE
:10108000C0B2C01A2CFA01F3D11A914311EAC3116C
:10109000E6D1704701491820ABBEFEE726000200EA
:1010A00070475FEA400C08BF91F0000F4FEA8C23B5
:1010B0004FEAC12243EA51514FEA1C5018BF00F5D4
:1010C000F0404FEA300018BF41F000415FEA6C5C2D
:1010D00000F02980BCF1FF3F08BF40F0804070471E
:1010E000130C06BF12044FF0100C4FF0000C130E3F
:1010F00004BF12020CF1080C130F04BF12010CF113
:10110000040C930F04BF92000CF1020CD30F04BF28
:1011100052000CF1010C11464FF00002A0F11F002B
:10112000A0EB0C00704711F0004F08BF704731F082
:1011300000413FF4D5AF0B0C06BF09044FF0100C73
:101140004FF0000C0B0E04BF09020CF1080C0B0F42
:1011500004BF09010CF1040C8B0F04BF89000CF1D2
:10116000020CCB0F04BF49000CF1010CCCF12003A1
:10117000A0EB0C0022FA03F302FA0CF241EA03019D
:1011800000F10100704720F07F4C80EA030023F05B
:101190007F47ACEB070303F57C5300F0004003F1FD
:1011A000FF032DE980494FEA154B09B44FEA144378
:1011B00025EA0B4E24EA03480FF2042606EB132718
:1011C00049083E785FEA320203FB0667C7F500076D
:1011D00007FB06F64FEA54374FEAD64606F10206F9
:1011E00007FB066CCCF1005C4FEA1C472CEA074C6D
:1011F00007FB06F40CFB06F504EB15464FEA9616C2
:1012000034BF00204FF000404FEAD13706FB07FC07
:101210004FEA1C4C0CFB0BF7D21B03FB0CF761EBEA
:1012200007010CFB0EF7B0EB074072EB17420CFB0B
:1012300008F734BFA2EB0742B2EB074261EB17415C
:101240004FEA0C444FEA910706FB07FC4FEA1C4C9F
:101250000CFB0BF7B0EBC74072EB573203FB0CF7FC
:1012600034BFA2EBC742B2EBC74261EB57310CFB74
:101270000EF7B0EBC70072EB57720CFB08F734BFE8
:10128000A2EBC702B2EBC70261EB5771039F4FEAB3
:10129000816141EA921104EBCC044FEAD1374FEA65
:1012A000826206FB07FC42EA90124FEA80604FEA36
:1012B0001C4C0CFB0BF7D21B03FB0CF761EB07017B
:1012C0000CFB0EF7B0EB074072EB17420CFB08F774
:1012D00034BFA2EB0742B2EB074261EB17414FEA82
:1012E0008C554FEA910704EB9C2406FB07FC4FEA60
:1012F0001C4C0CFB0BF7B0EBC74072EB573203FBF7
:101300000CF734BFA2EBC742B2EBC74261EB5731D7
:101310000CFB0EF7B0EBC70072EB57720CFB08F733
:1013200034BFA2EBC702B2EBC70261EB577115EBFA
:101330004C254FEA816141EA92114FEA82624FEAFD
:10134000D13742EA901206FB07FC44F100044FEA51
:1013500080604FEA1C4C0CFB0BF7D21B03FB0CF715
:1013600061EB07010CFB0EF7B0EB074072EB174285
:101370000CFB08F734BFA2EB0742B2EB074261EB6C
:10138000174115EB1C154FEA813141EA92414FEAB2
:10139000823242EA90424FEA80304FEA0C7644F1C2
:1013A000000448EA03434EEA0B484FF0000EB2EB4C
:1013B000080C71EB030724BF624639464EEB0E0E54
:1013C0004FF0000B0018524149414BEB0B0BB2EBB5
:1013D000080C71EB03077BF1000B24BF6246394612
:1013E0004EEB0E0E4FF0000B0018524149414BEBF3
:1013F0000B0BB2EB080C71EB03077BF1000B24BF66
:10140000624639464EEB0E0E51EA020718BF46F00F
:10141000010616EB0E7655F1000254F1000103D5DA
:10142000BDE88901BDE80088BDE88901BDE8004844
:10143000B619524141EB0101A3F1010370478080CD
:101440007F7E7D7C7B7A797877767675747372711E
:1014500071706F6E6E6D6C6C6B6A6A6968686766D6
:1014600066656464636362616160605F5F5E5E5D68
:101470005D5C5C5B5B5A5A595958585757565655DC
:1014800055555454535352525251515050504F4F3E
:101490004F4E4E4D4D4D4C4C4C4B4B4B4A4A4A498E
:1014A00049494848484747474746464645454544D1
:1014B0004444444343434342424242414141002B5E
:1014C00026D4770021D01CB54FEA370703B44FF07C
:1014D00010004FF010014FF000000FBCBDE81040AD
:1014E0000BF1010BBBF1010F08BF5FEA170722BF29
:1014F00012F1010211F101014FF0004143F100032B
:1015000000F0004043EA00007047F9D35708DAE7DB
:1015100046EA064613F1400F4FEA16461FDD13F167
:10152000200FDFBF16430A46002120335B42C8D09C
:10153000C3F1200746EA064602FA07F74FEA1646C5
:1015400046EA0706C3F1200722FA03F201FA07F779
:1015500021FA03F14FF0000342EA0702B1E746EA3D
:10156000020646EA06464FEA164646EA0106BCBFB0
:1015700046EA0646360C4FF000034FF000024FF0EB
:1015800000019EE72DE9C048934630B491E8380049
:1015900007C831EA400C48BF34EA430C03D5FFF7D3
:1015A000F2FDFFF78CFFF0BCBDE800882DE9C048D4
:1015B000934630B491E8380007C810F0804F08BF58
:1015C00013F0804F03D100F005F8FFF778FFF0BC6F
:1015D000BDE8008820F07F4780EA030023F07F4CBD
:1015E00007EB0C03A3F57C5300F00040A3F1FE03CE
:1015F00092F0000F00F0B38095F0000F00F07780BC
:101600002DE901494FEA11404FEA144621EA00480A
:1016100000FB06FC24EA064708FB06F607FB08F871
:1016200000FB07F718EB06484CEB164C4FEA124B41
:1016300018EB07484FEA15464CEB174022EA0B4ED1
:101640000BFB06FC25EA06470EFB06F607FB0EFE23
:101650000BFB07F71EEB064E4CEB164C4FF000064B
:101660001EEB074E4CEB174B18EB0B0840F100003C
:1016700018EB0E0B58EB000840F100008F1A4FF0EA
:1016800000013CBFC943661B14BFB5EB040C00212D
:101690003CBFC943F61B4FEA17444EEA8E0E27EAB9
:1016A00004454FEA1C4704FB07622CEA074C05FB84
:1016B00007F70CFB05F604FB0CFC16EB074642EBA8
:1016C000174216EB0C4642EB1C421BEB060658EB8E
:1016D0000202414146EA9E0601D5BDE80189B619DC
:1016E000524141EB0101A3F10103BDE801894FEA39
:1016F00014454FEA114724EA054621EA074C05FB49
:1017000007F406FB07F70CFB06F105FB0CFC11EBDD
:10171000074144EB17444FEA124711EB0C4144EBED
:101720001C4422EA074C05FB07F206FB07F70CFBFB
:1017300006F605FB0CFC16EB074642EB174216EBD0
:101740000C4642EB1C456A1854F1000148BF704733
:10175000B619524141EB0101A3F10103704795F025
:10176000000F37D04FEA11424FEA144721EA0246F0
:1017700024EA074C02FB07F106FB07F70CFB06F413
:1017800002FB0CFC14EB074441EB17414FEA1547F1
:1017900014EB0C4441EB1C4125EA074C02FB07F516
:1017A00006FB07F70CFB06F602FB0CFC16EB0746E4
:1017B00045EB174516EB0C4645EB1C42121951F14F
:1017C000000148BF7047B619524141EB0101A3F136
:1017D000010370474FEA14454FEA114724EA0546D2
:1017E00021EA074C05FB07F106FB07F70CFB06F2A5
:1017F0004FF0000605FB0CFC12EB074241EB1741D2
:1018000012EB0C4251EB1C4148BF7047921841EB60
:101810000101A3F101037047704721B1826842F0D2
:101820000102826003E0826822F001028260704758
:1018300021B1826842F48072826003E0826822F4FF
:10184000807282607047000010B5044612488442DE
:1018500008D10121401502F001F80021601501F0C6
:10186000FDFF17E00D48844208D10121001501F069
:10187000F5FF0021201501F0F1FF0BE0084884423C
:1018800008D10121C80301F0E9FF00214FF4004015
:1018900001F0E4FF10BD00000024014000280140D9
:1018A000003C0140014600208A6802F004020AB1AF
:1018B000012000E0002070470246002013680B4022
:1018C0000BB1012000E000207047014600208A682B
:1018D00002F008020AB1012000E000207047000079
:1018E00030B502460020002350680F4C20400D798F
:1018F0000C6844EA05242043506090680B4C20405B
:10190000D1E902542C434D7944EA450420439060C8
:10191000D06A20F470000C7C641EE4B2234340EAD9
:101920000350D06230BD0000FFFEF0FFFDF7F1FF75
:10193000F0B504460D4600200021092D11DDE068B8
:10194000A5F10A0606EB4607072606FA07F18843C3
:10195000A5F10A0606EB460603FA06F10843E06025
:101960000CE0206905EB4507072606FA07F18843D6
:1019700005EB450603FA06F108432061072A0FDA52
:10198000606B561E06EB86071F2606FA07F1884392
:10199000561E06EB860605FA06F10843606322E050
:1019A0000D2A0FDA206BD61F06EB86071F2606FAD4
:1019B00007F18843D61F06EB860605FA06F10843B1
:1019C000206310E0E06AA2F10D0606EB86071F26F1
:1019D00006FA07F18843A2F10D0606EB860605FA22
:1019E00006F10843E062F0BD816841F008018160C2
:1019F000704721B1826842F4A002826003E08268ED
:101A000022F4A00282607047816841F00401816085
:101A10007047000000B587B001214FF4057001F058
:101A20000DFF4FF4004001F0CDFE1C20ADF8040086
:101A300000208DF8070001A92B4800F09BFF04202F
:101A4000ADF8040000208DF8070001A9274800F038
:101A500091FF2748FFF7F8FE0020029001208DF843
:101A60000C0000208DF80D004FF460200490002041
:101A7000059004208DF8180002A91D48FFF730FFDB
:101A80000723012202211A48FFF752FF07230222EF
:101A900003211748FFF74CFF0723032204211448B2
:101AA000FFF746FF072304220C211148FFF740FFF0
:101AB00001210F48FFF7BCFE01210D48FFF7ADFEE5
:101AC0000B48FFF791FF00BF0948FFF7FEFE002813
:101AD000FAD10748FFF798FF00BF0548FFF7E2FE7D
:101AE0000028FAD107B000BD0008014000100140F5
:101AF000002401402DE9F04700244048007828B92F
:101B000001203F49087000F001F946E03B480078A9
:101B100001280DDC3B48007800EB4002C2EBC0100E
:101B20004FF4FA6202EBC001374802F039FA34E0B0
:101B30003248007803280DDC3248007800EB400280
:101B4000C2EBC01040F6C41202EBC0012E4802F0F6
:101B500027FA22E02948007805280DDC294800787A
:101B600000EB4002C2EBC01040F6AC5202EBC001E9
:101B7000254802F015FA10E02048007807280CDC10
:101B80002048007800EB4002C2EBC01041F29412F2
:101B900002EBC0011C4802F003FA1C48008804F064
:101BA0003FF807463A460B460020194903F0E0FE8D
:101BB000054603F0ABFE8146164904F03BFC02D219
:101BC00000F0A4F80124012C15D11048008804F07D
:101BD00027F807463A460B4600200D4903F0C8FE99
:101BE000054603F093FE81460B4904F023FB02D225
:101BF00000F078F80024BDE8F08700000C00002019
:101C000001000020200000209C0000208E00002009
:101C1000008086400000C8410000A04108B54FF494
:101C2000E060ADF8000018208DF8030003208DF867
:101C300002006946154800F09DFE4FF46040ADF883
:101C4000000018208DF8030003208DF8020069467B
:101C50000F4800F08FFE01210E4800F017FF4FF4EF
:101C6000E070ADF8000048208DF8030069460A488E
:101C700000F080FE4FF48050ADF8000010208DF889
:101C800003006946024800F075FE08BD00080140E7
:101C9000000C0140000C1A000010014010B5012298
:101CA00040210E4802F05CFE0D48008840F006001E
:101CB0000B4908804020091D088003F0CBFA074833
:101CC000008840F001000549088004480C30008875
:101CD00040F0500001490C31088010BD0004004064
:101CE000082C014010B500240DE0601CC4B2FFF7C1
:101CF000D5FF052003F062FA00F008F8022003F097
:101D00005DFAFFF7CBFF642CEFDB10BD12480088B3
:101D10004FF6F87108401049088000200E4918312C
:101D2000088040F6CC400880002008800B480088DE
:101D30004FF6FE7108400949088000200749243108
:101D4000088006480C3000884FF6AF710840034900
:101D50000C31088070470000082C0140000400404E
:101D600000B58BB0464802F09FFC0220ADF8200081
:101D70004020ADF8220040F6C310ADF8240000204A
:101D8000ADF826008DF8280008A93D4802F09CFF18
:101D90006020ADF810000020ADF81200ADF814007E
:101DA000ADF81600ADF81800ADF81A00ADF81C003B
:101DB000ADF81E0004A9324802F0DCFD0020ADF8A9
:101DC000160004A92E4802F02BFE0020ADF81600E4
:101DD00004A92B4802F084FE6020ADF8100000201A
:101DE000ADF8120040F2DC50ADF816000020ADF85E
:101DF000180004A9224802F0CDFE7021204802F00C
:101E000025FF4FF40060ADF800004010ADF802006F
:101E10008010ADF804006420ADF806000020ADF895
:101E20000800ADF80A00ADF80C006946144802F04D
:101E30000DFC0821124802F0E9FD0821104802F0CB
:101E400041FE08210E4802F09BFE20210C4802F0C2
:101E5000EBFE20210A4802F0E7FE0121084802F0CB
:101E600014FC2021064802F001FC01222021044834
:101E700002F076FD0121024802F0FBFB0BB000BD31
:101E8000002C014000B58BB0264802F00DFC472025
:101E9000ADF820000020ADF822004FF6FF70ADF83D
:101EA00024000020ADF826008DF8280008A91D4860
:101EB00002F00AFF0020ADF81400ADF81600032070
:101EC000ADF818000020ADF81A000A20ADF81C008B
:101ED00005A9144802F0EEFC7020ADF804000120C2
:101EE000ADF806006420ADF80A000020ADF80C0043
:101EF00001A90C4802F094FD01210A4802F088FE75
:101F00004021084802F090FE0421064802F0A7FE96
:101F10008021044802F091FE5021024802F096FE12
:101F20000BB000BD0004004021B1026842F0010284
:101F3000026004E002684FF6FE731A4002607047C8
:101F400000B58BB00121084601F048FC114800F0B3
:101F500027F81148009011480190002002900420B9
:101F6000039000200490802005904000069080009F
:101F70000790202008900002099000200A906946EE
:101F8000044800F0B3F801210248FFF7CDFF0BB081
:101F900000BD0000080002404C24014072000020F7
:101FA00001684FF6FE72114001600021016041603E
:101FB0008160C1604B49884208D14A490839496863
:101FC00041F00F01474A083A51608AE0454914310F
:101FD000884208D143490839496841F0F001414A33
:101FE000083A51607DE03F492831884208D13D4997
:101FF0000839496841F470613A4A083A516070E022
:1020000038493C31884208D136490839496841F499
:102010007041344A083A516063E032495031884295
:1020200008D130490839496841F470212D4A083AED
:10203000516056E02B496431884208D1294908395A
:10204000496841F47001274A083A516049E025493E
:102050007831884208D123490839496841F07061D4
:10206000204A083A51603CE01F49884206D1011FCE
:10207000096841F00F01021F116032E01A49143162
:10208000884208D11849091F096841F0F001164A31
:10209000121F116025E014492831884208D11249E5
:1020A000091F096841F470610F4A121F116018E09E
:1020B0000D493C31884208D10B49091F096841F498
:1020C0007041094A121F11600BE0074950318842E4
:1020D00007D10549091F096841F47021024A121FFE
:1020E00011607047080002400804024010B5002249
:1020F000026847F6F0739A430C6A8B6823430C69B5
:1021000023434C6923438C692343CC6923434C6AA2
:1021100023438C6A23431A430260CB6843600B68F5
:1021200083604B68C36010BD10B50E4800880E492F
:10213000088000200B4908800C480078322805DC14
:102140000A480078401C0949087007E008480088E0
:10215000401C07490880002004490870012000F055
:10216000E3F810BD900000208E00002092000020B7
:102170001A0000200EB50121084601F05FFB012185
:10218000042001F05BFB0120ADF8080004208DF86D
:102190000B0002A90A4800F0EDFB0021084600F000
:1021A000C9FB0120009000208DF804000C208DF860
:1021B000050001208DF80600684600F0CFF80EBD3E
:1021C000000801400EB50121084601F037FB01214E
:1021D000082001F033FB4FF48060ADF808000420C4
:1021E0008DF80B0002A91A4800F0C4FB4FF4006000
:1021F000ADF8080004208DF80B0002A9144800F087
:10220000B9FB0A21012000F095FB0B21012000F011
:1022100091FB4FF48060009000208DF804001020A6
:102220008DF8050001208DF80600684600F096F84C
:102230004FF40060009000208DF8040010208DF80D
:10224000050001208DF80600684600F087F80EBDF5
:10225000000C014010B5642002F0D6FF4FF400617D
:102260000E4800F05BFC012804D10D4908700020E5
:102270000C4908704FF40061084800F04FFC38B971
:10228000002008490870042005490870FFF73EFD4A
:102290004FF4006000F048F810BD0000000C014051
:1022A000010000200C00002010B5022000F042F8D0
:1022B00048B107480078401C054908700548006887
:1022C000401C04490860022000F02EF810BD0000F8
:1022D0008C000020880000200EB50121084601F086
:1022E000ADFA0121042001F0A9FA0220ADF808009E
:1022F00004208DF80B0002A90A4800F03BFB0121E5
:10230000002000F017FB0220009000208DF8040050
:102310000C208DF8050001208DF80600684600F0BD
:102320001DF80EBD0008014001490860704700001B
:1023300014040140014600200022074B1B6803EAF9
:102340000102054B14331B680B4013B10AB1012085
:1023500000E00020704700000004014000212349F4
:102360008279002A3AD00A46126803689A430B46DB
:102370001A600A1D126803689A430B1D1A600279DD
:1023800011440A6803681A430A60184A083212683E
:1023900003689A43154B08331A601A1D12680368C4
:1023A0009A43124B0C331A604279102A0ED11A1F2D
:1023B000126803681A430D4B08331A601A1D12681D
:1023C00003681A43094B0C331A600DE00749427940
:1023D00011440A6803681A430A6005E0027911444F
:1023E0000A6803689A430A607047000000040140CD
:1023F00030B5044604254FF4302000F089F8054636
:10240000042D17D10C48006940F002000A49086108
:1024100008464461006940F0400008614FF43020F4
:1024200000F076F805460448006941F6FD71084061
:1024300001490861284630BD0020024004200B49B4
:10244000C96801F0010109B101200EE00749C9681E
:1024500001F0040109B1022007E00449C96801F054
:10246000100109B1032000E0042070470020024061
:102470000348006940F0800001490861704700008E
:10248000002002400549096821F01001034A11604B
:1024900011460968014311607047000000200240A6
:1024A00070B504460D460426F00200F031F80646E9
:1024B000042E11D10948006940F001000749086164
:1024C0002580F00200F024F806460448006941F631
:1024D000FE71084001490861304670BD002002408D
:1024E00001460020034A106800F0380008431060DD
:1024F000704700000020024002480349486003483A
:10250000486070472301674500200240AB89EFCD4A
:1025100000B502460423FFF791FF034603E0FFF7EF
:102520008DFF0346521E012B01D1002AF7D102B9BB
:102530000523184600BD00001CB54FF6FF7000F0E3
:1025400003FD0020644908804FF49F730222114666
:10255000104600F011FD4FF49F73EE220221104649
:1025600000F00AFD0223EE221946184600F004FD91
:102570004FF49F73EE221946022000F0FDFC282341
:10258000E62219460A2000F0F7FCBE23E62219468F
:102590000A2000F0F1FCB92357222D21104600F04B
:1025A000EBFC4FF49B737822C821104600F0E4FC4A
:1025B000FF23762219460A2000F0DEFC1023342285
:1025C0001946112000F0D8FC1F23112210211046BB
:1025D00000F0D2FC1F2334221946112000F0CCFC5D
:1025E000152334221021104600F0C6FC1523372293
:1025F0001946342000F0C0FC1A233722152110465A
:1026000000F0BAFC1A2337221946342000F0B4FC3B
:102610001F2334221A21104600F0AEFC2FA01821EF
:102620000B46C822CDE9001032210A2000F080FFBD
:102630002CA018210B46C822CDE9001032216420BD
:1026400000F076FF29A018210B46C822CDE9001022
:102650009B21B42000F06CFF26A010210B46C8225D
:10266000CDE9001011460B2000F062FF23A01821D5
:102670001023C822CDE90010DD21372000F058FFDB
:102680001FA010210B46C822CDE9001040F209110D
:102690000B2000F04DFF1CA010210B46C822CDE9F5
:1026A000001040F22711552000F042FF17A018211A
:1026B0001023C822CDE900101146872000F038FF12
:1026C00013A018211023C822CDE9001040F21311E5
:1026D000B92000F02DFF1CBD980000204153534944
:1026E0005354000053504545440000004B4D2F68A3
:1026F0000000000054494D45000000003A00000071
:102700004D494C45000000004B4D0000465245002D
:1027100052504D001CB54FF6FF7000F015FC002024
:102720006E4908804FF49F7302221146104600F054
:1027300023FC4FF49F73EE220221104600F01CFC94
:102740000223EE221946184600F016FC4FF49F7340
:10275000EE221946022000F00FFC4123DC2219462C
:10276000142000F009FC5F23DC221946142000F03D
:1027700003FC7D23DC221946142000F0FDFB9B2383
:10278000DC221946142000F0F7FBB923DC2219469D
:10279000142000F0F1FBD723DC221946142000F0AE
:1027A000EBFBF523DC221946142000F0E5FB40F298
:1027B0001313DC221946142000F0DEFBF52314224B
:1027C0004121104600F0D8FBF523DC2241211046C0
:1027D00000F0D2FB42A018211023C822CDE900103E
:1027E0004421192000F0A4FE40A018211023C82283
:1027F000CDE900106221192000F09AFE3EA01821B8
:102800001023C822CDE900108021192000F090FE8D
:102810003BA018211023C822CDE9001080217F2081
:1028200000F086FE37A018211023C822CDE9001041
:102830009E21192000F07CFE34A018211023C8220C
:10284000CDE90010BC21192000F072FE31A0182142
:102850001023C822CDE90010DA21192000F068FE0B
:102860002FA010210B46C822CDE9001048211046A8
:1028700000F05EFE2AA010210B46C822CDE9001010
:102880006621104600F054FE26A010210B46C822F7
:10289000CDE900108421BE2000F04AFE22A01021C4
:1028A0000B46C822CDE90010A221B42000F040FE62
:1028B0001FA010210B46C822CDE90010C021BE2068
:1028C00000F036FE1AA010210B46C822CDE90010F8
:1028D000DE21BE2000F02CFE1CBD00009800002070
:1028E0004D696C655F53756D000000004D696C6546
:1028F0005F53696E0000000054696D65720000004E
:102900003A00000053706565640000004672655F20
:1029100053756D004672655F417665720000000078
:102920004B6D00004D696E004B6D2F68000000007C
:1029300052504D0030B500228B071C0F0F2303FAB5
:1029400004F20B4B8C1053F824309343084C8D1039
:1029500044F8253023468C1053F824308C07240F7C
:1029600000FA04F42343024C8D1044F8253030BDA6
:10297000080001402DE9F041024600250026002014
:1029800000230024002791F803C00CF00F0591F8F4
:1029900003C00CF0100CBCF1000F03D091F802C082
:1029A0004CEA050591F800C0BCF1000F31D0146865
:1029B00000202BE04FF0010C0CFA00F3B1F800C03E
:1029C0000CEA03069E4220D183004FF00F0C0CFA54
:1029D00003F7BC4305FA03FC4CEA040491F803C076
:1029E000BCF1280F06D14FF0010C0CFA00FCC2F824
:1029F00014C00AE091F803C0BCF1480F05D14FF0B4
:102A0000010C0CFA00FCC2F810C0401C0828D1D3FD
:102A10001460B1F800C0BCF1FF0F34DD5468002031
:102A20002EE000F1080C4FF0010808FA0CF3B1F8A1
:102A300000C00CEA03069E4221D183004FF00F0C28
:102A40000CFA03F7BC4305FA03FC4CEA040491F8C2
:102A500003C0BCF1280F05D100F1080C08FA0CF8EE
:102A6000C2F8148091F803C0BCF1480F07D100F1FF
:102A7000080C4FF0010808FA0CF8C2F81080401C4E
:102A80000828CED35460BDE8F0810000F0B50A46B6
:102A9000002300240021002500F00046B6F1004F7D
:102AA00002D11D4EF16901E01B4E7168C0F3034570
:102AB00083B200F44016B6F5401F08D121F07061D2
:102AC000154E766826F07066134F7E6012E000F4B3
:102AD0008016B6F5801F06D1032606FA05F4A14339
:102AE00041F0706106E0460D360103FA06F6B14387
:102AF00041F0706122B1460D360103FA06F631430A
:102B000000F00046B6F1004F02D1034EF16101E042
:102B1000014E7160F0BD000000000140024600203F
:102B200093680B400BB1012000E000207047416129
:102B3000704701617047000010B501210F48FEF792
:102B400058FF00BF02210D48FEF7B6FE0028F9D05D
:102B500000240FE00A4931F814104FF4A57201FB6C
:102B600002F0C11700EB11510913064A22F81410A4
:102B7000601CC4B2042CEDDB10BD00000024014039
:102B8000720000200E00002008B50121102000F086
:102B900055FE4FF4E050ADF8000048208DF80300DA
:102BA00069460248FFF7E6FE08BD0000001001403C
:102BB0002DE9FE4F002000F009F96E490870084623
:102BC0000078C01E06287CD2DFE800F003A2A4B380
:102BD000B7CC69480078002875D1FFF79BFD67489E
:102BE000008867490978401A6649086066480068A5
:102BF00003F016F806460022644B03F025F804465D
:102C00000D466048006803F00BF8064600225F4B53
:102C100003F01AF822462B46CDE9000102F0A8FE87
:102C2000824600225A4B03F00FF8804602F06EFEF7
:102C3000029003F0B3FA5749087001204E4908701A
:102C40005548006850490968B0FBF1F053490880C5
:102C50005048007803F0DAFA02904A48006803F01E
:102C6000D5FA834603F0EEF807464D4A4D4B02F085
:102C7000EBFF054602F04AFE81464048008803F01B
:102C8000C5FA834603F0DEF80746454A454B02F095
:102C9000DBFF054602F03AFE824640480488E01712
:102CA00004EB5070C0103C490968C1F3CF01CDE975
:102CB00000103548027849465046029B02F0DEFC7F
:102CC00025E053E0FFE7FFF721F837480078374960
:102CD00008702B48007848700222354801F064F8EB
:102CE0004FF47840334908804FF6FF7000F02CF91C
:102CF00031A018211023C822CDE90010A0212820DE
:102D000000F016FCFFF718FC00201B4908702EE0AD
:102D100000F046FD2448007850B123480078401E5A
:102D20002149087008460078012801DA002008705F
:102D30001DE000201C49087019E023480078032892
:102D400004D1FEF7E3FF01201F4908701648007800
:102D5000401C1549087008460078042801DD05204C
:102D6000087004E003201849087000E000BF00BFAD
:102D7000BDE8FE8F280000201C0000201A00002063
:102D8000210000202C000020080000200000F03F5F
:102D900000001840170000208800002018000020C4
:102DA0009A9999999999B93F200000202400002010
:102DB00000FC010898000020575249544520535503
:102DC00043434553530000000100002010B5044662
:102DD0005A48008878B35948408860B3574880887B
:102DE00048B34FF480615648FFF798FE58B14FF44E
:102DF00000615348FFF792FE28B14FF480515048CC
:102E0000FFF78CFEB8B94FF4FA7002F0FDF94FF4F9
:102E100080614B48FFF782FE18B9002047490880BF
:102E200089E04FF400614648FFF778FE20B90020A2
:102E3000424948807FE009E04FF480514048FFF765
:102E40006DFE002877D13D49888074E04FF48061A1
:102E50003B48FFF763FE01286DD1C1023848FFF7F8
:102E60005DFE012867D101033548FFF757FE0128B1
:102E700061D132480088D8B93248008864280BDC18
:102E800030480088002807DB01202C4908800020FA
:102E90002C490880032010BD2A480088642807DDDB
:102EA0000120264908800020264908800420F2E7F6
:102EB00022484088D8B92348008864280BDC214880
:102EC0000088002807DB01201C49488000201D499C
:102ED00008800520DFE71B480088642807DD012003
:102EE000164948800020174908800620D3E7134878
:102EF0008088D8B91348008864280BDC1148008802
:102F0000002807DB01200D49888000200D4908803A
:102F10000720C0E70B480088642807DD0120074927
:102F200088800020074908800820B4E70120034971
:102F30000880488088800020ADE700006A000020FB
:102F4000001001406800002070B5064600240948C2
:102F50000588408845430021084600F0A1F900F0AB
:102F600067FB00BF03E0304600F016FB641CAC4278
:102F7000F9D370BD980500202DE9FF4F85B081463B
:102F80008A460020049003900798A0EB0905089852
:102F9000A0EB0A06CDF80890CDF804A0002D01DDC5
:102FA000012705E00DB9002702E04FF0FF376D4221
:102FB000002E02DD4FF0010806E016B94FF00008C0
:102FC00002E04FF0FF387642B54201DD2C4600E0CA
:102FD00034464FF0000B21E0019A91B2029A90B270
:102FE00000F022F804982844049003983044039099
:102FF0000498A04205DD0498001B04900298384410
:1030000002900398A04205DD0398001B03900198ED
:10301000404401900BF101001FFA80FB601C8345C6
:10302000DADD09B0BDE8F08F70B504460D462946DB
:10303000204600F035F900F0FBFA0248008800F065
:10304000ABFA70BD9800002010B5002090490860D0
:10305000322002F0B3F801208E49C1F884013220F9
:1030600002F0ACF801218C48FFF761FD142002F05A
:10307000A5F801218848FFF75CFD142002F09EF8B6
:10308000F020864908804FF4A07048802C20887179
:103090002A20C8712B200872CF2000F0B1FA00203E
:1030A00000F096FAD92000F093FA302000F090FA60
:1030B000ED2000F0A5FA642000F08AFA032000F069
:1030C00087FA122000F084FA812000F081FAE820CB
:1030D00000F096FA852000F07BFA102000F078FAD4
:1030E000782000F075FACB2000F08AFA392000F041
:1030F0006FFA2C2000F06CFA002000F069FA3420FE
:1031000000F066FA022000F063FAF72000F078FA87
:10311000202000F05DFAEA2000F072FA002000F0B2
:1031200057FA002000F054FAC02000F069FA21207C
:1031300000F04EFAC12000F063FA122000F048FAC5
:10314000C52000F05DFA322000F042FA3C2000F089
:103150003FFAC72000F054FAC12000F039FA3620B7
:1031600000F04EFA082000F033FA3A2000F048FA56
:10317000552000F02DFAB12000F042FA002000F0B6
:1031800027FA182000F024FAB62000F039FA0A20B5
:1031900000F01EFAA22000F01BFAF22000F030FA34
:1031A000002000F015FA262000F02AFA012000F095
:1031B0000FFAE02000F024FA0F2000F009FA202096
:1031C00000F006FA1E2000F003FA092000F000FAD1
:1031D000122000F0FDF90B2000F0FAF9502000F069
:1031E000F7F9BA2000F0F4F9442000F0F1F90920D1
:1031F00000F0EEF9142000F0EBF9052000F0E8F9FA
:10320000232000F0E5F9212000F0E2F9002000F091
:10321000DFF9E12000F0F4F9002000F0D9F91920DD
:1032200000F0D6F9192000F0D3F9002000F0D0F911
:10323000122000F0CDF9072000F0CAF92D2000F08F
:10324000C7F9282000F0C4F93F2000F0C1F902209E
:1032500000F0BEF90A2000F0BBF9082000F0B8F930
:10326000252000F0B5F92D2000F0B2F90F2000F074
:10327000AFF9112000F0C4F9782001F09FFF292058
:1032800000F0BEF94FF6FF70FFF75EFE10BD0000C4
:103290008481214200802142000C014098050020D9
:1032A00070B504460D460A49C87900F0A9F9201204
:1032B00000F08EF9E0B200F08BF90549087A00F0D1
:1032C0009FF9281200F084F9E8B200F081F970BD8E
:1032D000980500202DE9FC5F81460F4616461C46E6
:1032E00001978A48B0F80080A6F12000C6B20C9879
:1032F000002877D12046E31704EB5373DB102146F7
:103300004FEAE47C04EB5C7C4FEAEC0CA4EBCC0CC5
:10331000BCF1000F02D04FF0010C01E04FF0000CA7
:103320006344224604EBD27C4FEA6C0C03FB0CF3A3
:103330009BB20093002572E00C2C07D106EB4600EF
:10334000734901EB800010F805A02AE0102C05D18C
:10335000704800EB061010F805A022E0182C07D1E9
:1033600006EBC6006C4901EB800010F805A018E0E0
:10337000202C05D1694800EB861010F805A010E05C
:10338000302C07D106EBC600654901EB001010F8A0
:1033900005A006E006EBC600624901EB801010F8BC
:1033A00005A04FF0000B34E00AF0800018B1574838
:1033B000A0F8008003E05C48008854490880394642
:1033C0004846FFF731FE4FF6FF7000EA4A0A781CC4
:1033D00087B256484088B84205DC4C48A0F80080C7
:1033E000BDE8FC9F1FE00198381AA0420DD1019F53
:1033F00009F101001FFA80F94C480088484503DCB8
:103400004248A0F80080EBE706E00BF101001FFA4C
:1034100080FBBBF1080FC7DB00BF681C85B20098BA
:10342000854289DB6CE0002568E00C2C07D106EBB7
:103430004600374901EB800010F805A02AE0102C67
:1034400005D1344800EB061010F805A022E0182C36
:1034500007D106EBC600304901EB800010F805A04B
:1034600018E0202C05D12D4800EB861010F805A09F
:1034700010E0302C07D106EBC600294901EB001003
:1034800010F805A006E006EBC600264901EB801007
:1034900010F805A04FF0000B2AE00AF0800018B1E8
:1034A00039464846FFF7C0FD4FF6FF7000EA4A0A6A
:1034B000781C87B21D484088B84203DC1348A0F846
:1034C00000808DE70198381AA0420DD1019F09F1C3
:1034D00001001FFA80F915480088484503DC0B48B5
:1034E000A0F800807CE706E00BF101001FFA80FBEA
:1034F000BBF1080FD1DB00BF681C85B2A54294DB8D
:103500000248A0F8008000BF6AE700009800002091
:1035100086650008FA690008EA6F0008467D000821
:103520000695000876CA00089A0000209805002039
:103530002DE9F84F04460D4690469946DDE90A67A5
:1035400004F0FF0A08EB04001FFA80F809EB0500FD
:103550001FFA80F916E0444502DB5446A81985B2EB
:103560004D4500DB14E0002000903A7833462946B0
:103570002046FFF7AFFE304606EBD07104EB610149
:103580008CB27F1C38787E2802DC38782028E2DA7A
:1035900000BFBDE8F88F000010B5044610210A48AE
:1035A000FFF7C5FA20210848FFF7C3FA21120748A0
:1035B00000F0D4FBE1B2054800F0D0FB1021024836
:1035C000FFF7B7FA10BD00000010014000300140C5
:1035D00010B5044610210848FFF7A9FA2021064833
:1035E000FFF7A7FA2146054800F0B8FB1021024872
:1035F000FFF79FFA10BD00000010014000300140AD
:1036000010B5044610210848FFF791FA202106481A
:10361000FFF78DFAE1B2054800F0A0FB1021024847
:10362000FFF787FA10BD0000001001400030014094
:1036300010B502498879FFF7E3FF10BD9805002017
:1036400008B54FF4A06000F0A1F828208DF8000024
:1036500000208DF801008DF8020001208DF8030094
:10366000684600F05BF81D208DF8000000208DF802
:10367000010001208DF802008DF80300684600F07B
:103680004DF81E208DF8000000208DF8010002206A
:103690008DF8020001208DF80300684600F03EF826
:1036A00006208DF8000000208DF8010003208DF821
:1036B000020001208DF80300684600F02FF8072073
:1036C0008DF8000001208DF8010000208DF8020027
:1036D00001208DF80300684600F020F825208DF8C1
:1036E000000001208DF8010002208DF80200012069
:1036F0008DF80300684600F011F81C208DF80000DA
:1037000002208DF8010000208DF8020001208DF8C4
:103710000300684600F002F808BD000070B5002103
:1037200000230F22C47804B3154C246804F4E06429
:10373000C4F5E064210AC1F10403CA40447804FAE4
:1037400003F184781440214309010E4C0678A155F9
:10375000047804F01F050124AC4005786D11AD001C
:1037600005F1E025C5F8004109E0047804F01F05E3
:103770000124AC40044D0678761145F8264070BD12
:103780000CED00E000E400E080E100E002490143CC
:10379000024A1160704700000000FA050CED00E0DD
:1037A0000648006800F4E06005490843001D03492D
:1037B0000860BFF3408F00BFFEE700000CED00E0A3
:1037C0000000FA0501460020034A506820F44040FA
:1037D00008435060704700000010024029B1064ABB
:1037E00052690243044B5A6104E0034A526982431E
:1037F000014B5A61704700000010024029B1064A8F
:10380000D2690243044BDA6104E0034AD26982437D
:10381000014BDA61704700000010024029B1064AEE
:1038200012690243044B1A6104E0034A126982439D
:10383000014B1A61704700000010024029B1064A8E
:1038400092690243044B9A6104E0034A92698243FD
:10385000014B9A61704700000010024029B1064AEE
:10386000D2680243044BDA6004E0034AD268824320
:10387000014BDA6070470000001002400F480068FA
:1038800040F001000D490860084640680C490840B6
:103890000A494860084600680A4908400749086024
:1038A0000846006820F4802008600846406820F43C
:1038B000FE0048604FF41F0088607047001002400F
:1038C0000000FFF8FFFFF6FE30B5002100220024C3
:1038D00000232D4D6D6805F00C0121B1042905D0A0
:1038E000082923D105E0294D056022E0274D056018
:1038F0001FE0254D6D6805F47012234D6D6805F4C9
:103900008034022505EB92421CB9214D55430560D8
:103910000BE01D4D6D6805F400351DB11C4D554380
:10392000056002E0194D5543056002E0174D056042
:1039300000BF00BF144D6D6805F0F0010909154D79
:103940006B5C0568DD4045600F4D6D6805F4E06116
:10395000090A104D6B5C4568DD4085600A4D6D6855
:1039600005F46051C90A0B4D6B5C4568DD40C560CC
:10397000054D6D6805F44041890B074D6B5CC568CA
:10398000B5FBF3F5056130BD0010024000127A006E
:1039900000093D00540000206400002010B50146DD
:1039A0000022002300204A11012A02D1094C236879
:1039B00006E0022A02D1074C236A01E0054C636A43
:1039C00001F01F02012494401C400CB1012000E0D2
:1039D000002010BD001002400248406800F00C00BA
:1039E000704700000010024001460020034A506862
:1039F00020F0F000084350607047000000100240C3
:103A00001149096821F480310F4A11601146096893
:103A100021F480211160B0F5803F03D0B0F5802FF4
:103A20000ED106E00849096841F48031064A116068
:103A300007E00549096841F4A021034A116000E04C
:103A400000BF00BF70470000001002400146002088
:103A5000034A506820F4E06008435060704700005B
:103A60000010024001460020034A506820F46050D4
:103A700040EAC100506070470010024001490866EA
:103A8000704700000000424202460020044B586884
:103A900020F47C1042EA01031843014B5860704740
:103AA0000010024001460020034A506820F0030045
:103AB00008435060704700000010024038B50020F5
:103AC00000900024002500BF3120FFF767FF054666
:103AD0000098401C00900098B0F5A06F01D0002D18
:103AE000F2D03120FFF75AFF08B1012400E0002492
:103AF000204638BD10B500F007FB012146F63D20F9
:103B0000FFF79CFE01210248FFF778FE10BD000080
:103B1000070002002DE9F84F2D480078322855DDC6
:103B20002C48007800284ED12B480088F0B92B484B
:103B3000008802F06BFB814602F084F90746284AB0
:103B4000284B02F081F8054601F0E0FE04462648C5
:103B50000078C006000E25490090098888B200232D
:103B600023490A78214601F0CBFC2CE01A48008852
:103B700002F056F807463A460B4600201D4901F070
:103B8000F7FE054601F0C2FE04461448008802F024
:103B90003DFB824602F056F90746114A114B02F0EE
:103BA00053F8054601F0B2FE81460F480078C00682
:103BB000000E0E490090098888B223460C490A7805
:103BC000494601F09DFC002001490870BDE8F88FCE
:103BD000000000201C0000208E0000201A000020A1
:103BE0009A9999999999B93F0C00002008000020F2
:103BF000200000200080864000B587B001210C2005
:103C0000FFF71CFE01210803FFF718FEA020ADF806
:103C1000180018208DF81B0003208DF81A0006A943
:103C20003548FEF7A7FE1020ADF8180003208DF8E8
:103C30001A0010208DF81B0006A93048FEF79AFEE6
:103C400010212E48FEF773FF2020ADF81800032046
:103C50008DF81A0010208DF81B0006A92748FEF7E2
:103C600089FE20212548FEF762FF0220ADF81800EA
:103C700003208DF81A0010208DF81B0006A920489B
:103C8000FEF778FE02211E48FEF751FF0120ADF835
:103C9000180003208DF81A0010208DF81B0006A9CB
:103CA0001748FEF767FE01211548FEF740FF002088
:103CB000ADF804004FF48270ADF806000020ADF8B6
:103CC00008000220ADF80A000120ADF80C00400207
:103CD000ADF80E000020ADF81000ADF8120007207E
:103CE000ADF8140001A9074800F01AF801210548B1
:103CF00000F00AF807B000BD0008014000100140C4
:103D0000000C01400030014021B1028842F0400225
:103D1000028004E002884FF6BF731A4002807047A9
:103D200010B50022028802F441520B884C882343CC
:103D30008C882343CC8823430C8923434C89234319
:103D40008C892343CC8923431A430280838B4FF20F
:103D5000FF74234083830B8A038210BD024600BF99
:103D6000108900F002000028FAD0918100BF10896C
:103D700000F001000028FAD09089C0B2704730B539
:103D800003460C461546002207E0184600F008F8E6
:103D900024F812009B1C501C82B2AA42F5DB30BDF5
:103DA00001460888704700002DE9F05F80468A468A
:103DB0001746B8F1006F02D33348804501D3BDE800
:103DC000F09FFEF799FBA8F1006B4FEA9B25CBF320
:103DD0004809C9F50074A74200DC3C464DE04FF0AD
:103DE000006101EB85208A142849FFF7C8FF0026EF
:103DF0000BE009EB0600254931F810004FF6FF7182
:103E0000884200D003E0701C86B2A642F1DB00BFFE
:103E1000A6421BDA4FF0006101EB8520FEF7E8FABD
:103E2000002608E03AF8160006EB0901174A22F8C6
:103E30001100701C86B2A642F4DB4FF0006101EB6A
:103E400085208A14114900F023F804E022465146E7
:103E5000404600F01DF8A74200D10FE06D1C4FF066
:103E600000090AEB440AA044381B87B2B7F5007F6B
:103E700002DD4FF4007400E03C46B0E700BFFEF7FF
:103E8000F7FA00BF9BE7000000000208980100203D
:103E90002DE9F04105460E461746002407E036F8A6
:103EA00014102846FEF7FCFAAD1C601C84B2BC421C
:103EB000F5DBBDE8F08110B500F002F810BD0000A0
:103EC0000CB50020019000903348006840F4803029
:103ED0003149086000BF3048006800F400300090AD
:103EE0000198401C0190009818B90198B0F5A06F96
:103EF000F1D12948006800F4003010B10120009091
:103F000001E0002000900098012843D12348006878
:103F100040F01000214908600846006820F00300C6
:103F200008600846006840F0020008601A484068CF
:103F3000194948600846406848600846406840F4AF
:103F4000806048600846406820F47C10486008465D
:103F5000406840F4E81048600846006840F080700F
:103F6000086000BF0C48006800F000700028F9D01D
:103F70000948406820F00300074948600846406847
:103F800040F00200486000BF0348406800F00C00A9
:103F90000828F9D10CBD00000010024000200240AA
:103FA0002DE9F04104460D4642F6F820854200DD39
:103FB00000E028462060002D01DA002000E02846BD
:103FC00020602560234A12882168881A02F006F9C9
:103FD0006061D4E9051001F061FFA0610021E06893
:103FE00002F08CF80DD01C48E16801F0C5FF0646D0
:103FF000A16902F01FF904D21748E16801F0BCFF83
:10400000A061A169E06802F049F90746A16860690A
:1040100002F044F98046394601F040FF064602F0BE
:10402000A1F8606040F698016068884201DB0846AC
:1040300060606068002801DC00206060A08807499B
:104040000880A088091D0880A088091D0880606874
:10405000BDE8F0810400002000800945342C0140B7
:10406000002101604160044981600449C160002170
:1040700001614161816170478FC2753D17B7513948
:10408000042808D14FF0E021096941F004014FF004
:10409000E022116107E04FF0E021096921F00401FD
:1040A0004FF0E0221161704710B51348006840F0EE
:1040B00001001149086008464068104908400E494F
:1040C0004860084600680E4908400B4908600846E9
:1040D000006820F4802008600846406820F4FE0054
:1040E00048604FF41F008860FFF7E5FE4FF0006066
:1040F0000449086010BD0000001002400000FFF8F5
:10410000FFFFF6FE08ED00E010B5FFF7B7FB4FF438
:104110008030FFF775FCFFF7D1FC0446012C27D156
:104120000220FEF7DDF91020FEF7ACF90020FFF7C2
:10413000A5FC0020FFF758FC0020FFF793FCA0022D
:10414000FFF784FC4FF4E0112004FFF79DFC0120F1
:10415000FFF794FC00BF3920FFF720FC0028FAD0BD
:104160000220FFF79FFC00BFFFF736FC0828FBD1B9
:1041700010BD0000F0B50C46154600220021068C4B
:104180004FF6FE773E400684028B018C4FF60C768C
:1041900032407E1C06EA03162E433243104EB042D4
:1041A0000ED0104EB0420BD0B0F1804F08D00E4E62
:1041B000B04205D00D4EB04202D00D4EB04206D1F5
:1041C0004FF6FD76314044F00106314305E04FF6ED
:1041D000F576314044F00106314302830184F0BD9D
:1041E000002C014000340140000400400008004061
:1041F000000C0040F0B50C461546002200210026B8
:10420000078C4FF6EF7C07EA0C070784028B018CC2
:104210004FF6FF7707EA041640F6FF473A404FF69D
:10422000FF7707EA03373A434FF6FF7707EA052798
:104230003A43114FB8420ED0104FB8420BD0B0F1F4
:10424000804F08D00E4FB84205D00E4FB84202D072
:104250000D4FB84206D14FF6DF77394046F01007D0
:10426000394305E04FF65F77394044F01007394392
:1042700002830184F0BD0000002C014000340140A5
:104280000004004000080040000C0040F0B50C465F
:104290001546002200210026078C4FF6FF6C07EA26
:1042A0000C070784828B018C4FF6FF7707EA042600
:1042B0004FF60C773A404FF6FF7707EA03172F4384
:1042C0003A43114FB8420ED0104FB8420BD0B0F164
:1042D000804F08D00E4FB84205D00E4FB84202D0E2
:1042E0000D4FB84206D14FF6FF57394046F480775C
:1042F000394305E04FF2FF57394044F480773943A2
:1043000082830184F0BD0000002C01400034014094
:104310000004004000080040000C0040F0B50C46CE
:104320001546002200210026078C4EF6FF7C07EA86
:104330000C070784828B018C4FF6FF7707EA04365F
:1043400040F6FF473A404FF6FF7707EA05273A4322
:104350004FF6FF7707EA03373A43114FB8420ED0C2
:10436000104FB8420BD0B0F1804F08D00E4FB8427A
:1043700005D00E4FB84202D00D4FB84206D14DF6CF
:10438000FF77394046F48057394305E047F6FF5739
:10439000394044F48057394382830184F0BD0000E2
:1043A000002C01400034014000040040000800409F
:1043B000000C004002480088002001490880704736
:1043C000102C014010B50121880700F061FAA0B15E
:1043D0000A480078401C09490870084600783C28C3
:1043E00007D107480068401C0549086000200349C0
:1043F00008700121880700F039F910BD8400002001
:10440000080000203EB505460C46ADF80450ADF856
:1044100000400020ADF80600ADF8020069464FF0FC
:10442000804000F051FC0121880700F022F90122B0
:104430001146900700F094FA3EBD000010B53C48CC
:10444000008800F0100038B3394800884FF6EF714B
:1044500008403749088037480078022807DD0020E7
:104460003449087034480078401C3349087031489A
:104470000078401C2F4908703048007803280BD181
:104480002D480078042807DD05202C4908700320FA
:104490002B490870FDF73AFC2548008800F04000E1
:1044A000002844D0224800884FF6BF7108402049B8
:1044B000088000F0CFFE1E48243000881D4909788E
:1044C0004FF6FF7202FB01011E481F4A127840F8A6
:1044D00022101D480078401C1B49087008460078CF
:1044E000052817DD002409E0164850F82400174974
:1044F0000968084415490860601CC4B2062CF3DB47
:10450000124800680621B0FBF1F010490860002055
:104510000D4908700D48006849F64041A1EB400084
:104520000B4908600020034908700349087010BD5A
:10453000100400403A000020360000200100002056
:104540001F000020B80000203B0000203C0000209D
:104550000400002010B50121244800F099F900283A
:1045600043D00121214800F081F821480078401C07
:104570001F4908701F480088C82805DA1D480088B0
:10458000401C1C49088002E000201B4908801B4891
:104590000078401C1949087008460078322808D174
:1045A000174800781749087000201549087013490A
:1045B000087015480078401C1349087008460078B8
:1045C000012804DBFEF7B8FA00200F4908700F48F5
:1045D000008828B10D48408810B10C48808820B967
:1045E0000B480088401C0A49088010BD00080040A4
:1045F00000000020900000208E0000207D000020A0
:104600008C0000200C0000207C0000206A000020AC
:10461000680000203EB505460C46ADF80450ADF8E4
:1046200000400020ADF80600ADF8020069460648DB
:1046300000F04AFB0121044800F01BF8012211465A
:10464000014800F08DF93EBD000800400A884B8803
:104650001A438B881A43CB881A430B891A434B8918
:104660001A438B891A43A0F844207047CA43028238
:10467000704721B1028842F00102028004E0028802
:104680004FF6FE731A400280704731B1B0F84420F3
:1046900042F40042A0F8442005E0B0F84420C2F300
:1046A0000E02A0F84420704710B5044668488442C2
:1046B00008D10121C014FFF7D1F80021E014FFF761
:1046C000CDF8C4E0B4F1804F08D101210846FFF7CE
:1046D000A5F800210120FFF7A1F8B8E05D48844269
:1046E00008D101210220FFF799F800210220FFF7ED
:1046F00095F8ACE05848844208D101210420FFF726
:104700008DF800210420FFF789F8A0E05348844287
:1047100008D101210820FFF781F800210820FFF7C8
:104720007DF894E04E48844208D101211020FFF723
:1047300075F800211020FFF771F888E0494884429D
:1047400008D101212020FFF769F800212020FFF780
:1047500065F87CE04448844208D101214014FFF709
:104760007DF800216014FFF779F870E03F4884423B
:1047700009D10121C804FFF771F800214FF400208E
:10478000FFF76CF863E03A48844209D1012108053B
:10479000FFF764F800214FF48010FFF75FF856E050
:1047A0003448844209D101214805FFF757F8002118
:1047B0004FF40010FFF752F849E02F48844208D127
:1047C00001214020FFF72AF800214020FFF726F8BA
:1047D0003DE02A48844208D101218020FFF71EF8DD
:1047E00000218020FFF71AF831E02548844208D1E3
:1047F00001218015FFF712F80021A015FFF70EF830
:1048000025E02048844209D101210804FFF726F859
:1048100000214FF48030FFF721F818E01A48844255
:1048200009D101214804FFF719F800214FF40030A5
:10483000FFF714F80BE01548844208D101218804E1
:10484000FFF70CF800214FF48020FFF707F810BDA8
:10485000002C01400004004000080040000C004013
:10486000001000400014004000340140004C0140A2
:10487000005001400054014000180040001C00405E
:104880000020004000400140004401400048014039
:1048900030B50246002000230024158A05EA0103F2
:1048A000958905EA010413B10CB1012000E0002054
:1048B00030BD000070B505460C46244885420ED038
:1048C000234885420BD0B5F1804F08D0214885425E
:1048D00005D02148854202D02048854200D100E021
:1048E00000BF208850B92389A28861882846FFF735
:1048F00041FCE188284600F0BBF925E02088042827
:104900000AD12389A28861882846FFF773FCE188D1
:10491000284600F0B6F917E0208808280AD1238934
:10492000A28861882846FFF7B1FCE188284600F09C
:10493000B5F909E02389A28861882846FFF7EEFCD3
:10494000E188284600F0B3F970BD0000002C01405A
:10495000003401400004004000080040000C00400A
:104960001AB183890B43838102E083898B4383815E
:104970007047000070B5002400220023058C4FF61C
:10498000FE7635400584028C8388048B4FF68F7544
:104990002C40B51E2C400D882C43751E2A400D89D5
:1049A0002A434D882A43144DA8420BD0134DA842E8
:1049B00008D0134DA84205D0124DA84202D0124D86
:1049C000A84213D14FF6F7752A404D892A434FF676
:1049D000FB752A408D882A434FF6FF652B404FF622
:1049E000FF552B408D892B43CD892B438380048336
:1049F000CD888586028470BD002C014000340140C2
:104A00000040014000440140004801400A460021A6
:104A1000018B4FF6F7731940114301837047000073
:104A200070B5002400220023058C4FF6EF76354048
:104A30000584028C8388048B48F6FF752C404FF662
:104A4000FF452C400D884FF6FF7606EA05252C43DE
:104A50004FF6DF752A400D8906EA05152A434D8871
:104A600006EA05152A43154DA84202D0144DA84266
:104A70001DD14FF67F752A404D894FF6FF7606EA25
:104A800005152A434FF6BF752A408D8806EA05159D
:104A90002A434FF6FF352B404FF2FF752B408D898F
:104AA00006EA85052B43CD8906EA85052B438380DD
:104AB0000483CD880587028470BD0000002C01406E
:104AC000003401400A460021018B4FF2FF73194068
:104AD0004FF6FF7303EA0223194301837047000076
:104AE00070B5002400220023058C4FF6FF66354088
:104AF0000584028C8388848B4FF68F752C404FF68B
:104B0000FC752C400D882C434FF6FF552A400D892B
:104B10004FF6FF7606EA05252A434D8806EA052565
:104B20002A43154DA84202D0144DA8421DD14FF280
:104B3000FF752A404D894FF6FF7606EA05252A4380
:104B40004FF6FF352A408D8806EA05252A434EF6A2
:104B5000FF752B404DF6FF752B408D8906EA051534
:104B60002B43CD8906EA05152B4383808483CD88AA
:104B70008587028470BD0000002C01400034014094
:104B80000A460021818B4FF6F77319401143818348
:104B90007047000070B5002200230024058C4EF6FB
:104BA000FF7635400584038C8488828B48F6FF7538
:104BB0002A404FF6FF452A400D884FF6FF7606EA59
:104BC00005252A434DF6FF752B400D8906EA05356C
:104BD0002B434D8806EA05352B430B4DA84202D0E6
:104BE0000A4DA84208D14BF6FF752C408D894FF62F
:104BF000FF7606EA85152C4384808283CD88A0F851
:104C00004050038470BD0000002C0140003401407E
:104C100021B1828842F08002828004E082884FF6CF
:104C20007F731A40828070470A46002101894FF63F
:104C30008F73194011430181704702894FF67F73CA
:104C40001A40028102890A430281704782884FF626
:104C50008F731A40828082880A438280704702895B
:104C60004FF6F8731A40028102890A4302817047A5
:104C7000028B4FF6F3731A400283028B0A430283BE
:104C80007047028B4FF2FF331A400283028B4FF6BC
:104C9000FF7303EA01231A4302837047828B4FF6A6
:104CA000F3731A408283828B0A4382837047828B1C
:104CB0004FF2FF331A408283828B4FF6FF7303EA71
:104CC00001231A4382837047002202881D4B9842B9
:104CD0000ED01D4B98420BD0B0F1804F08D01B4B2B
:104CE000984205D01A4B984202D01A4B984204D1F0
:104CF0004FF68F731A404B881A43174B984207D0D0
:104D0000164B984204D04FF6FF431A40CB881A4303
:104D100002808B8883850B8803850A4B98420BD0D1
:104D2000094B984208D00E4B984205D00D4B984243
:104D300002D00D4B984201D10B7A03860123838266
:104D400070470000002C0140003401400004004086
:104D500000080040000C004000100040001400401B
:104D60000040014000440140004801401FB54FF49D
:104D7000E13000900020ADF80600ADF80400ADF879
:104D80000800ADF80C000C20ADF80A006946074891
:104D900000F0C0F8012240F22551044800F094F8D8
:104DA0000121024800F04DF81FBD0000003801400D
:104DB00008B54020ADF8000018208DF8030003204E
:104DC0008DF8020069460B48FDF7D4FD8020ADF850
:104DD000000004208DF8030069460648FDF7CAFD6F
:104DE00001210920FEF72AFD01210420FDF74EFED6
:104DF00008BD0000000C014010B540F225510948E3
:104E000000F038F860B1074800F0F0F8C4B2064886
:104E100001880088401C044A10800448445400BFA4
:104E200010BD00000038014070000020D0000020BC
:104E300001F40072B2F5007F00D100BFCA430280C6
:104E4000704721B1828942F40052828104E0828954
:104E50004DF6FF731A408281704702460020B1F57B
:104E6000007F00D100BF13880B400BB1012000E090
:104E70000020704770B50246002400230025002062
:104E800040F66A16B14200D100BFC1F3421501F0ED
:104E90001F03012606FA03F3012D02D19689334040
:104EA00006E0022D02D1168A334001E0968A334093
:104EB0000C12012606FA04F41688344013B10CB122
:104EC000012000E0002070BDF0B50346002400265C
:104ED0000025002040F66A17B94200D100BF1846ED
:104EE000C1F3421401F01F06012707FA06F5012C51
:104EF00001D10C3004E0022C01D1103000E014305C
:104F00001AB107682F43076002E00768AF430760E4
:104F1000F0BD00002DE9F04786B005460E4600249E
:104F2000A24600BFA1460027B08900B100BF2F46AE
:104F30002C8A4CF6FF700440F08804432C82AC8924
:104F40004EF6F3100440B088318908437189084354
:104F50000443AC81AC8A4FF6FF400440B08904435F
:104F6000AC8201A8FEF7B0FC1F48874202D1DDF8F1
:104F700010A001E0DDF80CA0A88900F4004040B1C9
:104F80000AEBCA0000EB0A1031684900B0FBF1F8E7
:104F900007E00AEBCA0000EB0A1031688900B0FB99
:104FA000F1F86420B8FBF0F004012009642101FB52
:104FB0001089A88900F4004040B1322000EBC900FC
:104FC000B0FBF1F000F00700044308E0322000EBF2
:104FD00009106421B0FBF1F000F00F0004432C81B4
:104FE00006B0BDE8F087000000380140014688881F
:104FF000C0F30800704700002DE9F04137480088F1
:10500000002868D036480078732827D135480078C2
:1050100035490988401A354908600846006834490E
:105020000968B0FBF1F6304601F0F0F80546314969
:1050300001F034F9044601F0B1F82F4908702F4807
:1050400000682B490968B0FBF1F02D4908802A4817
:1050500002782CA12D4800F0E7FB39E020480078C9
:105060006D2810D11F48007800F0DAFD0646284A66
:10507000284B00F0E9FD044622460B4626A12348B2
:1050800000F0D2FB24E016480078662807D11B48C0
:105090000068C20822A11D4800F0C6FB18E01048B5
:1050A0000078612805D120480078401C1E4908700E
:1050B0000EE00B48007862280AD11B480078401E99
:1050C000194908701948027819A1104800F0ACFB82
:1050D000002002490880BDE8F08100007000002037
:1050E000D0000020210000201A0000202C00002009
:1050F000080000200000C0401700002088000020A9
:105100001800002073252E3166730A000038014014
:105110009A9999999999B93F6D252E31666D0A0032
:105120006625640A660000002000002001000020BF
:10513000663125640A000000C1F3080282807047CE
:10514000490050EAC12018BF04204A0D18BF40F0A2
:10515000010040F2FF72B2EB515F08BF40F0020065
:10516000012808BF0520704730380A2801D20120E5
:10517000704700207047000010B56FF00400FEF784
:105180007FFF0A4800680A49B0FBF1F0094908703E
:105190000846007800EB4001C1EBC0104FF6FF71EC
:1051A00001EAC0000449088010BD00004000002052
:1051B00000127A0094000020960000200146114A57
:1051C00012884A434FF0E0235A6100229A611A463E
:1051D000126942F001021A6100BF4FF0E02210692B
:1051E00000F001021AB100F48032002AF5D04FF02D
:1051F000E022126922F001024FF0E0231A6100223E
:105200009A617047960000200146114A12784A437D
:105210004FF0E0235A6100229A611A46126942F067
:1052200001021A6100BF4FF0E022106900F0010294
:105230001AB100F48032002AF5D04FF0E022126952
:1052400022F001024FF0E0231A6100229A617047B8
:105250009400002019498968C1F3811017498968B1
:1052600001F4807140EA911000BF072823D2DFE8E3
:1052700000F02213090E1D18040043F28101104AA8
:10528000118019E04FF446510D4A118014E043F2A9
:1052900008110B4A11800FE043F21801084A1180EF
:1052A0000AE043F61001064A118005E043F60101C9
:1052B000034A118000E000BF00BF704700100140AA
:1052C000202C01401FB5FEF715FC022278497948D1
:1052D000FEF755FD764840787749087000207749F9
:1052E00008707548007876490880FEF7A9F9FFF73D
:1052F00043FFFEF781FCFDF7A7FE4FF478407149AC
:10530000088071A018211023C822CDE90010A02127
:105310005020FEF70DF9FDF70FF9FCF77FFCFCF7C5
:105320001FFDFCF7AFFD4FF480516948FDF701FC0C
:10533000FFF73EFDFFF71AFDFDF726FCFCF76AFBC1
:10534000FCF7FEFD472142F20F70FFF763F941F6CB
:105350001F4141F28730FFF755F8FCF7BDFFFCF71E
:1053600009FFFCF72FFF5B48FEF77AFE04205A493D
:1053700008704FF47A70FFF721FF98E0FFF73CFECA
:10538000FDF716FC4D48007810B90020524908700E
:105390005148007806284ED2DFE800F0033F4E1B4C
:1053A0005154FCF7B3FC11E0FDF702FC4A480078C9
:1053B000032802D14849087009E04048007818B134
:1053C00001204549087002E0FEF7A4FBECE700BFAE
:1053D00000BF1CE04FF4E17040490880091D0880BF
:1053E000091D0880FCF77EFCFFF706FEFDF7E0FBD9
:1053F000FEF790FB38480078032808D00020384991
:105400000870012034490870FCF780FC03E0324842
:1054100000780328DED000BF00BF3248007850B1CA
:105420000120314908702B48FEF71AFEFCF75AFCA0
:1054300002202949087037E0FCF75CFB34E0FCF7F8
:1054400065FC31E02FE02948027829A102A8FAF78B
:105450002BFF4FF6FF70FDF777FDFCF757FC4FF47D
:1054600078401849088023A018211023C822CDE9CC
:105470000010A0215020FEF75BF802A8182110238D
:10548000C822CDE90010A0210846FEF751F80020FF
:10549000FDF79CFC1949087008460078042801D1E2
:1054A000FEF77EF900BFCEE700BFFEF733FB65E7EE
:1054B0002200002000FC0108210000202000002024
:1054C0001A0000209800002057454C434F4D4500DE
:1054D000000C01409C00002001000020342C014001
:1054E000300000200C0000201D0000201F000020C4
:1054F000256400004552524F520000002800002051
:105500002DE9F04F8FB004460E4692469946DDF8DD
:1055100060B000253C2094FBF0F0C5B2C5EB05104F
:10552000A4EB800084B222464EA10DA8FAF7BCFE7F
:10553000304600F087FC07463A460B464BA10BA8C5
:10554000FAF7B2FE52464BA109A8FAF7ADFE48465B
:1055500000F078FC07463A460B4644A107A8FAF744
:10556000A3FE5A4643A105A8FAF79EFE2A4641A18A
:1055700003A8FAF799FE092C14DC3FA01821102388
:10558000C822CDE90010DE214120FDF7D1FF0DA892
:1055900018211023C822CDE90010DE214D20FDF78F
:1055A000C7FF0DE0092C0BDD3B2C09DC0DA81821F1
:1055B0001023C822CDE90010DE214120FDF7B8FFFD
:1055C000092D14DC2CA018211023C822CDE90010CD
:1055D000DE212020FDF7ACFF03A818211023C822EC
:1055E000CDE90010DE212C20FDF7A2FF0DE0092DF2
:1055F0000BDD3B2D09DC03A818211023C822CDE9BF
:105600000010DE212020FDF793FF0BA818211023A6
:10561000C822CDE9001040F21F111920FDF788FFC4
:1056200009A860211023C822CDE900105A211420B6
:10563000FDF77EFF07A830211023C822CDE9001016
:1056400064216E20FDF774FF05A830211023C822C5
:10565000CDE90010E6218C20FDF76AFF0FB0BDE810
:10566000F08F0000252E316400000000252E3166E9
:105670000000000025640000300000002DE9F04F1C
:1056800091B082460E4615469946DDF868B0002472
:105690003C2095FBF0F0C4B2C4EB0410A5EB8000F5
:1056A000C5B2504600F0CEFB07463A460B4658A11D
:1056B0000FA8FAF7F9FD304600F0C4FB07463A465A
:1056C0000B4653A10DA8FAF7EFFD2A4652A10BA8ED
:1056D000FAF7EAFD484600F0B5FB07463A460B46A6
:1056E0004BA109A8FAF7E0FD5A464BA107A8FAF723
:1056F000DBFD49A105A81B9AFAF7D6FD224646A173
:1057000003A8FAF7D1FD092D14DC44A018211023B9
:10571000C822CDE9001080218920FDF709FF0BA8E0
:1057200018211023C822CDE9001080219520FDF713
:10573000FFFE13E03A49504600F07CFE0ED2394994
:10574000504600F077FD09D80BA818211023C82275
:10575000CDE9001080218920FDF7EAFE092C14DC38
:105760002EA018211023C822CDE900108021692025
:10577000FDF7DEFE03A818211023C822CDE9001092
:1057800080217520FDF7D4FE0DE0092C0BDD3B2CAC
:1057900009DC03A818211023C822CDE900108021BC
:1057A0006920FDF7C5FE0FA818211023C822CDE9F6
:1057B000001044218220FDF7BBFE0DA81821102304
:1057C000C822CDE9001062218220FDF7B1FE09A8B0
:1057D00018211023C822CDE90010A0217820FDF760
:1057E000A7FE07A818211023C822CDE90010BC216C
:1057F0008220FDF79DFE05A818211023C822CDE9BF
:105800000010DA218220FDF793FE11B0BDE8F08F81
:10581000252E3166000000002564000030000000E5
:105820000000104100006C420FB430B5A1B0054635
:10583000002426A80090802101A8009B259AFAF751
:1058400019FD80212846FFF7F3FA26E001A8005D44
:105850000A2813D10D212846FFF76EFC00BF8021D6
:105860002846FFF7FAFA0028F9D02046621CD4B285
:1058700001AA115C2846FFF75FFC07E02046621C86
:10588000D4B201AA115C2846FFF756FC00BF802164
:105890002846FFF7E2FA0028F9D0802C03DA01A8A5
:1058A000005D0028D2D10020009021B030BC5DF80E
:1058B00014FB000010B500290AD00878002807D092
:1058C00005487844FBF7A6FB002801D0002010BD56
:1058D0000248784410BD00006A4801006248010097
:1058E00010B500290AD00878002807D00548784468
:1058F000FBF790FB002801D0002010BD024878443F
:1059000010BD00005A4801005248010021F0004239
:10591000A2F16052B2F5801F01F0004328BFD2F11E
:105920007F6C0BD95FEA001C43EAC20242EB507065
:1059300018BF704728BF20F001007047B2F5801FE4
:10594000BCBF184670474FEA410C1CF5001F02D23D
:10595000084600F06ABD70B500F020FA000000892A
:10596000FFF7F6BF4FF00040A0F580007047000041
:105970002DE9C04130B4DFF8A0C23CEA111418BFD1
:105980003CEA131400F0EC8081EA03051CEA1114D0
:1059900044EAD57418BF1CEA131500F0C780A4EBC5
:1059A00005044FF0004545EAC12145EAC32341EA19
:1059B000505143EA525304F17F74994204F5003484
:1059C0004FEAC0204FEAC22208BF904200F09C80FC
:1059D0004FEA13650FF24016765D4FEA134506FB5A
:1059E00005F7C7F1807706FB07F74FEAD737A7FB24
:1059F00003687642C8F58038A7FB06CE38BFA8F109
:105A0000010807FB08E64FF0000EA6FB028CE6FB40
:105A100003CEDCF1000CCEF1004E38BFAEF1010E2A
:105A2000A6FB0C584FF000074FF00005E6FB0E8771
:105A3000A1FB08C6A0FB07CE16EB0E0645F100053C
:105A4000E1FB076515F1E04E7EBFA4F580345FEA07
:105A500046066D4116F1800745F100054FEA17270C
:105A60004FEA066647EA0567A6F1DE46B6F1805FB3
:105A70004FEA15251FD9384624F0010C05EBC471F7
:105A8000BCF1FE6F01EB0C1102D8F0BCBDE8008147
:105A900024425CBF01F5801E9EEAC47F02D4F0BCA4
:105AA000BDE80081244238D4F0BCA1F1C041BDE87A
:105AB000004100F0C1B94FEAD22242EA43524FEA14
:105AC000D323A7FB02864FEAD02040EA415007FBD0
:105AD00003661EEA0E0F4FEAD12105FB026658BF8E
