:020000040800F2
:10000000B809002045010008930E0008670A00089F
:10001000910E000803060008693700080000000080
:100020000000000000000000000000009D1B000810
:10003000C506000800000000CD110008AD30000822
:100040006B3700086111000815320008831400089E
:100050002F070008ED1300082107000825070008F6
:1000600027070008290700082B070008AF0600082B
:10007000B1060008B3060008B5060008B706000878
:10008000B9060008BB06000801040008653700082F
:100090006737000805060008070600082D07000856
:1000A00091320008B1320008AF320008AD320008CA
:1000B000C9320008CB320008CD3200086B0A0008B4
:1000C000690A00086F0A00086D0A00083315000865
:1000D000351500085D3700085F37000861370008F4
:1000E000230700088114000863370008D532000890
:1000F000DB320008D9320008D73200086504000856
:100100006908000831150008CF32000837150008CB
:10011000593700085B370008D1320008D332000895
:10012000BD060008BF060008C1060008C306000897
:10013000DFF80CD000F042F900480047753C000899
:10014000B80900200048004731010008D2B201E0A0
:1001500000F8012B491EFBD270470022F6E710B5CC
:1001600013460A4604461946FFF7F0FF204610BD25
:100170002DE9FE4F81EA030404F0004421F0004120
:1001800000944FF0000B23F0004350EA01045ED0CE
:1001900052EA03045BD0C3F30A54C1F30A552C445A
:1001A000A4F2F3340194A0FB0254C1F3130141F40F
:1001B0008011C3F3130343F4801301FB024400FBDB
:1001C000034E840A970A44EA815447EA8357A4FB02
:1001D000076802958D0A05FB07854FEA932C04FBFF
:1001E0000C542705029D4FEA065847EA1637B5EB2F
:1001F00008056EEB070C870E920E47EA811742EA5C
:100200008312A7FB0201B6EB0B0164EB00042B0D7C
:1002100043EA0C335E1844EB1C50DA465146E7FBC8
:100220000201C5F313044FEA0B3343EA14534FEAB8
:100230000432019C43EA0603A4F10C040294009CDE
:10024000CDE900B400F06CF803B0BDE8F08F0020F9
:100250000146F9E770B521F0004303430CD0C1F328
:100260000A550024D5EB040564EB0403D617AD1A38
:10027000B34102DB0020014670BD201841EB025162
:1002800070BD0EB5C10F80EAE0700844CA070021B6
:1002900040F233438DE80E000A460B4600F040F86A
:1002A00003B000BD70B5C1F30A5201F0004500244F
:1002B000C1F3130140F2FF3341F480119A4201DA95
:1002C000002070BD40F233439A42A2F2334203DC75
:1002D000524200F006F800E090402C43F1D040423A
:1002E00070BD202A04DB203A21FA02F00021704779
:1002F00021FA02F3D040C2F120029140084319468E
:10030000704710B5141E73F1000408DA401C41F167
:10031000000192185B411A4301D120F0010010BD89
:100320002DE9F04D92469B4611B1B1FA81F202E0FF
:10033000B0FA80F22032904600F052F804460F46A0
:1003400040EA0A0041EA0B0153465A46084313D0DB
:10035000114653EA010019D0C8F140025046FFF798
:10036000C0FF05460E4650465946424600F038F852
:10037000084305D0012004E020463946BDE8F08D51
:100380000020054346EAE0762C4337430A9863058C
:10039000E40AA0EB08000022FD0A44EA47540A30B0
:1003A00002D500200146E9E7010510196941DDE9A0
:1003B000084500196941BDE8F04DA2E7064C074D1C
:1003C00006E0E06840F0010394E807009847103425
:1003D000AC42F6D3FFF7B0FEB4400008D4400008AA
:1003E000202A04DB203A00FA02F1002070479140F5
:1003F000C2F1200320FA03F3194390407047000034
:1004000010B5164C206810F0040F16D06FF00400E1
:10041000206001F0C5FB002808BF10BD104800781F
:10042000022806D0032818BF10BDBDE8104000F018
:10043000C5B9BDE8104001F049BA4FF4A07120469B
:1004400000F05AF8012818BF10BD00F03BFC204610
:10045000BDE81040012100F006B800000024014072
:10046000440000207047C94301607047002981683B
:1004700002D041F0010101E021F0010181607047EB
:100480000D4910B5411811D04FF48064A14210D02D
:10049000B1F5C05F0FD10121CC03204600F008FF69
:1004A0002046BDE81040002100F002BF01214C02AF
:1004B000F3E70121F1E710BD00DCFEBF00298168F0
:1004C00002D041F4004101E021F400418160704715
:1004D000826822F4E0420A438260704701460020AD
:1004E0008968490700D5012070470246002012683C
:1004F0000A4200D00120704710B50246002054681F
:100500000B0AC9B20C401168194202D0002C00D06D
:10051000012010BD0844806A80B27047002A4268FA
:10052000C9B201D00A4300E08A434260704700002C
:1005300010B542680E4B0C791A400B6842EA04224F
:100540001343436082680B4B1A40D1E902432343B3
:100550004C7942EA440213438360C26A097C22F464
:100560007002491EC9B242EA0151C16210BD0000C9
:10057000FFFEF0FFFDF7F1FF70B5072609290AD944
:10058000C568A1F10A0404EB4404A640B543A340A6
:100590001D43C56007E0056901EB4104A640B54372
:1005A000A3401D430561836BC3F30154121B921CCE
:1005B00002EB82021F249440A34391400B438363C8
:1005C00070BD826B491E22F4401242EA01518163E0
:1005D00070470029816802D041F4021101E021F442
:1005E000021181607047816841F0040181607047A9
:1005F00000210160017141718160C16001210174BC
:100600007047FEE77047704701B261F30F0244F68E
:10061000E6135943CB1701EB5341001444F6E6139C
:100620005843C31700EB5340C01300EBE1310844BB
:10063000404260F31F421046704700002DE9F0472A
:100640000025144FDFF850A08146A8463878C0072F
:1006500008D145F0B800494603F088F849464020E3
:1006600003F084F800240AEBC5163878C00702D1DD
:10067000494603F0B5F904EB8911641CE4B206F8AD
:100680000180402CF1D36D1CEDB2082DDED3BDE806
:10069000F087000001000020D200002000B50120FA
:1006A000FFF7CCFF00205DF804EBFFF7C7BF7047F2
:1006B0007047704770477047704770477047704782
:1006C00070477047704700002DE9F043DFF848900D
:1006D000DFF848800746002599F80000C00708D1D8
:1006E00045F0B800394603F041F83946402003F0A0
:1006F0003DF8002408EBC51604EB87103946305C42
:1007000003F06EF9641CE4B2402CF5D36D1CEDB21D
:10071000082DE1D3BDE8F08301000020D2000020C5
:100720007047704770477047704770477047704711
:1007300004490A6822F010020A600A6802430A604B
:10074000704700000020024004490A6802F03802A5
:100750000A600A6802430A607047000000200240F5
:1007600010B501F071F801460B480A4AB0F90000D3
:1007700000F0C0FC09490880002048800A88081D54
:1007800002804988418091B2054A1180054940881C
:10079000088010BD140500204A000020160000202B
:1007A00048000020460000200349002008804880BF
:1007B000091F0880488070471A0000202DE9F04189
:1007C00001F088FC19490860FFF71EFF184C2060F3
:1007D00001F02EF822680146104600F0C3FC154FC8
:1007E000386000F0EBFA144E024621683368184670
:1007F00000F0A2FE114DB7F90010114AB5F9000042
:1008000000F078FC0F4C104A2080B7F90210B5F9BF
:10081000020000F06FFC608000F034FE206800F001
:100820005BFE3060BDE8F04101F016BA30000020F8
:100830003400002038000020400000201A00002072
:10084000F40400203C000020D40400200348018868
:10085000034801800349098841807047480000200F
:100860001A0000204600002070470000F8B5012162
:1008700044F23D2000F010FD0121084600F0F4FC98
:100880000121324800F0BAF80121042000F0B6F846
:100890004FF41840ADF8000010258DF803500324E4
:1008A0008DF8024069462A4800F05AF840F2834029
:1008B000ADF80000274F04268DF8036069463846DE
:1008C00000F04EF841F63830ADF800008DF80240E7
:1008D0008DF803506946384600F042F88020ADF8A4
:1008E000000048208DF803006946384600F038F8CB
:1008F0004020ADF8000018208DF803008DF802406C
:100900006946384600F02CF848F2E030ADF80000B7
:10091000114F8DF803606946384600F021F841F622
:100920000740ADF800008DF803508DF8024069468D
:10093000384600F015F8ADF800608DF803508DF8DA
:1009400002406946054800F00BF8F8BD000230008F
:1009500000080140000C014000100140001401405B
:10096000F0B5CC78002204F00F03E40601D58C78B2
:1009700023430C784FF00F0C14F0FF0F4FF0010ED3
:100980001AD005680E880EFA02F42640A6420FD14E
:1009900096000CFA06F725EA070703FA06F5CE7863
:1009A0003D43282E00D14461CE78482E00D1046109
:1009B000521C082AE6D305600A88FF2A1CD944681D
:1009C000002202F108060EFA06F50E882E40AE420D
:1009D0000ED196000CFA06F7BC4303FA06F7CE7860
:1009E0003C43282E00D14561CE78482E00D10561C8
:1009F000521C082AE5D34460F0BD0000F0B5104D4C
:100A00006B68440D260184B2C0F30157B440C0F3B3
:100A10000342032F05D0C0020AD503209040834330
:100A200007E0686823F0706220F07060686002E0A0
:100A3000A34343F0706201B122436A60F0BD00003D
:100A4000000001400246002092680A4200D00120C6
:100A50007047016170474FF6FF710180022181707C
:100A60000421C1707047FEE77047704770477047B8
:100A70002DE9F04100F0E8FE002800DA40421B4D6D
:100A800004B2E868C11700EB1140011401EB8100CA
:100A90004001C21700EB9260801100B2002800DA1A
:100AA000404206B296204143C81701EB9060801186
:100AB00000B2002800DA404207B200F0F7FE002141
:100AC000012810D1962C0EDDBC420CDBB4420ADCAE
:100AD000A888401C80B2A880142802D30120BDE859
:100AE000F0810020FBE7A980FBE700004C0000201C
:100AF00001480078704700006800002038B50121E7
:100B00004FF4BE7000F0C8FB6846FFF7A4FF022058
:100B1000ADF80000174D48248DF80340694628467B
:100B2000FFF71EFF2815ADF800008DF80340694659
:100B30002846FFF715FF0120ADF800008DF80340AF
:100B400069462846FFF70CFF2020ADF800000A4D4B
:100B500028248DF8034069462846FFF701FF10213D
:100B6000ADF800108DF8034069462846FFF7F8FEFF
:100B700038BD0000000C014000100140F0B4344CBE
:100B80002078810729D5334A20F00201217010789E
:100B900008B1401E1070304821F002012170007829
:100BA00004280DD005DC58B1012809D0022806D14F
:100BB00006E0082804D0102802D0202800D0FF200A
:100BC000264A0026264F92F800C0264B264D604547
:100BD00017D13A781AB1521E3A70F0BC70474A07E2
:100BE00006D588B921F0040020701E702E70F4E73D
:100BF00050B1FF2808D041F004012170187028700E
:100C000005E010700420387018780028E5D02878A6
:100C10000028E2D02E701878082813D008DC0128AC
:100C2000DBD002280BD00428D7D1F0BC00F0EEBAFC
:100C300010280AD02028D0D1F0BC00F0C9BAF0BCEE
:100C400000F0CEBAF0BC00F0E9BAF0BC00F0EEBAA9
:100C5000010000200200002003000020040000200A
:100C6000050000200600002007000020144900B500
:100C70004FF4006008600121C02002F077FD0021E0
:100C8000C02002F073FDFFF709FD0021B82002F03B
:100C90006DFD0021402002F069FD0121B82002F025
:100CA00065FD0121402002F061FD01213F2002F09D
:100CB0005DFD00213F205DF804EB02F057BD000010
:100CC00010080140084843F22141B0F90000884271
:100CD00001DD0120704741F65251884201DA0220BD
:100CE00070470020704700002000002009498868F4
:100CF0008A88C0EBC0201044C00A886041F6316188
:100D0000884205D241F6E921884201D302480068B1
:100D100000207047200000202C00002010B502F0B9
:100D20007BFA244CC0B32068C00506D5FFF7DEFF70
:100D300018B9206820F4807020602068400506D52E
:100D4000FFF7C0FF18B9206820F480602060206899
:100D5000000506D5FFF7B6FF18B9206820F400603B
:100D600020602068800509D54FF400711248FFF714
:100D700069FE18B1206820F40070206020684007E8
:100D800003D5206820F0040020602068000703D508
:100D9000206820F008002060FFF7AAFE012806D195
:100DA000206840F60C71084201D1012010BD0020DE
:100DB00010BD00002C000020001001400148B0F9D7
:100DC000000070472000002010B500F031F8FFF758
:100DD000EBFC00F045FD01F0EFF80D48002101802B
:100DE0004180006800F038FF0A4941F270700880C5
:100DF000042002F039FA0121074802F091FA02F0CA
:100E00003DFA0028FBD0BDE81040012000F0FEBEF6
:100E10004000002048000020002C01400348002131
:100E2000816042F6B9010180704700002000002077
:100E300003490020486103494861034948617047FC
:100E400014050020F4040020D404002010B504464A
:100E50004FF4167002F002FA0021094802F060FA1D
:100E600008490A6822430A600749072008700749B1
:100E70000F200870BDE81040002000F0C7BE000041
:100E8000002C01402C000020440000206B000020BA
:100E9000FEE7704700214FF0006000F049B8000005
:100EA00070B50F25C2780178012652B31A4A12682C
:100EB000447802F4E062C2F5E062120AC2F104036F
:100EC000D54082789C402A40224314018A07D30EE1
:100ED00021F0030202F1E0229C40D2F80054FF21ED
:100EE00099408D430C402543C2F80054007800F02F
:100EF0001F018E404009800000F1E020C0F8006131
:100F000070BD01F01F0086404809800000F1E0201C
:100F1000C0F8806170BD00000CED00E0024908439C
:100F200002490860704700000000FA050CED00E07F
:100F3000024A1140014302480160704780FFFF1FD1
:100F400008ED00E00021017041708170C1707047B0
:100F500030B5124BFF251B6803F4E063C3F5E06373
:100F60001B0ADD40C3F10404A1402A400A431101D9
:100F7000032202EA9012C0F30120C0008140FF2347
:100F80008340900000F1E02000F6185002689A4378
:100F9000026002680A43026030BD00000CED00E010
:100FA000214A002803DA01215172404201E0002168
:100FB00051720A21B0FBF1F301FB1303B0FBF1F016
:100FC0001370B0FBF1F301FB1303B0FBF1F05370AE
:100FD000B0FBF1F301FB1303B0FBF1F09370B0FB36
:100FE000F1F301FB1303B0FBF1F0D370B0FBF1F3AD
:100FF00001FB1303B0FBF1F01371B0FBF1F301FB44
:101000001303B0FBF1F05371B0FBF1F301FB1303D9
:10101000B0FBF1F09371B0FBF1F301FB1303B0FBF4
:10102000F1F0D37110727047C80000202DE9F04F25
:10103000DFF8ACC041F27073ACF8003040F22A65C2
:1010400005804FF4806646804FF4297787804FF4FF
:1010500080486424A0F8068004834FF40059A0F867
:101060001A900023DFF87CA0C36147F6FF7BA0F84D
:1010700008A0A0F80AB04FF0604E4FEA8B3CC0F8D1
:101080000CE0C0E904C318484B6103800D804E801A
:101090008F80A1F806800C83A1F81A90CB61A1F88B
:1010A00008A0A1F80AB0C1E903EC104996205361E9
:1010B0000880400010801020508094800101D18071
:1010C000138350834EF24F20D361108141F6B1500B
:1010D00050810748D06040421061BDE8F08F0000A9
:1010E000480000200080FFFF460000204A0000204A
:1010F000004FE2FF30B4401AB2F9001001FB00FCCF
:10110000B2F90410002904BF0020506113D04843F5
:101110005169C4170818136944EBE1714FEAE3748D
:101120001D1A8C4106DBD368DC17C51AA141A8BF84
:10113000506100DA53615088D38851699CFBF0F00C
:1011400091FBF3F10144B2F90A008842DCBF30BCE4
:101150007047B2F908008842D8BF08B230BC704767
:101160007047000060B50546084602F0B9FADFF89E
:1011700058C029B2CCF80000BCF90020BCF902C06C
:1011800001FB02F0C31700EB5340C6132B1403FB03
:101190000CF0C51701FB0CF14FEAE17C01EB5C415F
:1011A0004FEAE13C00EB554003FB02F1A6EBE035D2
:1011B000CA17204601EB524165F30F000CEBE131F9
:1011C00061F31F4060BD0000120000207047000066
:1011D000024801880A390180704700004A00002057
:1011E0000849094A0878030705D40123137040F021
:1011F00008000870704720F0080008700420107084
:1012000070470000010000204400002002480188CF
:1012100064310180704700004800002002480188C6
:1012200064390180704700004800002002480188AE
:101230000A310180704700004A000020034A5168CB
:1012400021F440410143516070470000001002400A
:10125000044A0029516901D0014300E081435161F2
:101260007047000000100240044A0029D16901D0F3
:10127000014300E08143D16170470000001002404B
:10128000044A0029116901D0014300E08143116142
:101290007047000000100240044A0029916901D003
:1012A000014300E08143916170470000001002405B
:1012B000044A0029D16801D0014300E08143D16094
:1012C000704700000010024010B500F02DF84FF4F8
:1012D0008034204600F070F800F0B8F8012822D1E0
:1012E000002000F05FF8002000F08CF8A01100F062
:1012F0007FF80220FFF728FA1020FFF719FA4FF4C1
:10130000E011204600F08EF8012000F085F8392029
:1013100000F028F80028FAD0022000F08DF800F044
:1013200039F80828FBD110BD0B48016841F00101D4
:1013300001604168094A114041600168084A114052
:101340000160016821F480210160416821F4FE01FF
:101350004160002181607047001002400000FFF8EA
:10136000FFFFF6FE034600205909094A01290AD069
:1013700002290AD0516A03F01F02012393400B4255
:1013800000D0012070471168F5E7116AF3E700000B
:10139000001002400248406800F00C007047000056
:1013A00000100240034A516821F0F00101435160EE
:1013B00070470000001002400B490A6822F4803296
:1013C0000A600A6822F480220A60B0F5803F07D0E4
:1013D000B0F5802F03D1086840F4A0200860704762
:1013E000086840F48030F9E70010024070470000C0
:1013F000034A516821F4E0610143516070470000E5
:1014000000100240034A516821F4605141EAC000D3
:1014100050607047001002400149086670470000A4
:1014200000004242034B5A68084322F47C121043E6
:101430005860704700100240034A516821F00301D0
:1014400001435160704700000010024030B50B4C62
:1014500040F2FF153120FFF785FF20706068401CC7
:101460006060207810B96068A842F3D13120FFF79E
:1014700079FF002800D0012030BD0000840000204A
:1014800070477047114BDFF848C0B3F90000B3F95B
:10149000021000FB00F201FB0122624598BF704779
:1014A000120E3D3AD2B2DFF82CC03CF81220504365
:1014B0004FEAE07C00EB5C40C013188001FB02F0B7
:1014C000C11700EB5140C013588070473C0000200A
:1014D0002196753D2C3E000860B4144E03B2B6F957
:1014E000002003FB02F14FEAE17C01EB5C41CD13EC
:1014F000B6F902104FEA204C0CFB01F0C617594315
:10150000CB1700EB564001EB534105EBE035CB1315
:1015100020460CFB02F165F30F00CA1701EB5241A4
:10152000C3EBE13160BC61F31F4070471200002043
:1015300070477047704770472DE9F74F7C4C88B073
:10154000B4F91200D4F82CE0C0EBC0314342A0EB58
:10155000C03C7145B8BFE16204DBBEEBC33FD8BFFE
:10156000C4F82CC0D4F830E07145B8BF216304DB67
:10157000BEEBC33FD8BFC4F830C0B4F910C0656A31
:10158000CCEBCC31CCF10003ACEBCC3EA942B8BFE4
:10159000616204DBB5EBC33FD8BFC4F824E0A56AA1
:1015A000A942B8BFA16204DBB5EBC33FD8BFC4F802
:1015B00028E0BDF82430616AD4F828A091FBFCF53E
:1015C000CDF81CA09AFBFCFABDF826E0EB1AAAEBBA
:1015D0000E0CBDF920E0CDF818A00EFB02FE4FEA7C
:1015E000EE760EEB564EBDF922604FEAEE3E7243A8
:1015F000D61702EB5642D2130FFA82FACDF808A0A2
:10160000B4F91660B4F90C201BB20FFA8CFC0FFA77
:101610008EFE2DB2B4F91A705A4306FB151107FB62
:101620000E221144E26AB4F9189092FBF0FE0FFA10
:101630008EF809FB18110391B4F914E0216B00FB3B
:101640000EFA91FBFAF5CDF814A0B4F91CB0B4F978
:101650000AE0B4F90EA0CDF810E00BFB0EFE05FB7E
:101660000EF50AFB0353DDF818A09D180FFA8AF354
:10167000DDF81CA006FB13A3B4F90C60DDF808A08C
:1016800006FB0CF607FB0A6691FBF0F0DDF814A0F0
:10169000334492FBFAF200B209FB1036B4F90E3073
:1016A00003FB0C110EFB1217DDF810E0BEF1000F6A
:1016B000B4BF4FF0FF310121A4F80480E080404224
:1016C000484308FB01F20FFA80F90FFA82F8B4F9E7
:1016D000080002F005F80190BDF90410BDF90600FC
:1016E00001FB09F1CA1701EB524100FB08F0C217D8
:1016F00000EB5240C913C01309B200B201F08CFCD8
:10170000E178491CC9B2E170402904BF0021E170B1
:101710000849E27821F812002189084420810398C1
:101720002763A662E56260620BB0BDE8F08F00003F
:101730008C000020340500202DE9F001DFF88080C6
:101740000023B8F900409C46A8F102001A46202167
:101750004FEA040530F9046F2344B0F902403244E3
:10176000491EF7D19818C11700EB91608311154FEE
:1017700000247B81A8F102005FF02001EA1A30F911
:10178000046F02FB02CCF21AB0F9025002FB0244D1
:10179000491EF3D10CEB0400C11700EB91608111DD
:1017A00003FB03F0C21700EB52607A8CC011504368
:1017B0008142D4BF01200020B870BDE8F00170471D
:1017C000340500208C00002010B500F06FF80849A7
:1017D000002208B14A7008E04878401CC0B2487046
:1017E000062802D34A70002010BD012010BD000061
:1017F0004C0000200D490288CA8242888A81828872
:101800000A83C288CA8102894A8342898A8382897B
:101810000A82C2894A82028A8A82428ACA83828A68
:101820000A8482698A63808B488470478C00002018
:101830000148B0F9080070478C0000200148B0F959
:101840000A0070478C00002010B5FFF7F7FF03492E
:101850004843C11700EB9130801410BD8032020064
:1018600070B5094D00246C62AC62EC622C63AC7004
:101870006C632C706C702C816C8180210348FEF7A6
:101880006CFCEC7070BD00008C0000203405002062
:1018900010B580210348FEF760FC03490020C870A2
:1018A00010BD0000340500208C0000200148807825
:1018B000704700008C000020034800210170418027
:1018C0008160C160818070474C0000202DE9F05F8D
:1018D000794F384639788068F9B1784DDFF8E0A162
:1018E000784CDFF8E4B1794EDFF8E4914FF000086E
:1018F00001292CD0022928D1401C3A46B860B2F9FF
:101900000610D2684CF650531144984268D8F960DA
:10191000D7E90501084478616CE06E49B1F900101F
:10192000002906DB4921F9802621B96158B96A48A6
:1019300008E06FF04801F9806FF02501B96110B936
:1019400065484042786101203870BDE8F09F3869F1
:1019500043F2A021401C3861884230D8C0EB0030EF
:101960004000B0FBF1F030804F46A9F8008000F055
:10197000B1FB2860FEF748FECAF800004FF4804132
:10198000FFF7F0FB554D564A2860B5F90010B7F93E
:101990000000FFF7AFFB2080B5F90210514AB6F9FD
:1019A0000000FFF7A7FB6080FFF76CFD2068FFF7E2
:1019B00093FDCBF80000BDE8F05F00F04DB9C7F82B
:1019C0001080A4F80280A4F8008041F27071A9F898
:1019D0000010A6F800800220387040037880B4E739
:1019E000414A904201D8F96004E00420FFF72EFA42
:1019F000FFF762FFF868C11700EB114000144FF4C5
:101A0000615191FBF0F04FF4803191FBF0F0798857
:101A10000844788000F05EFB2860FEF7F5FDCAF808
:101A20000000B7F90210FFF79DFB2C4D2860786984
:101A30004F46C11700EB91508012A9F80000A6F89C
:101A40000080B5F90010264AB9F90000FFF752FBF3
:101A50002080B5F90210234AB6F90000FFF74AFBCF
:101A60006080FFF70FFD2068FFF736FD5C46CBF87E
:101A7000000000F0F1F8FFF7A1F90246DAF80010D3
:101A80002068FFF759FDFEF7F3FF0128A7D1B7F94A
:101A90000000164900024861FFF70EFF14490320B9
:101AA000087014480068C00799D141F270703880FE
:101AB000A6F8008049E700004C000020300000201C
:101AC000340000203C0000204000002046000020A0
:101AD000480000204A00002000409C003800002000
:101AE000F4040020D4040020701601001405002026
:101AF000440000202C00002000B589B040F28E5038
:101B0000ADF8000040F6E300ADF8040041F24230C9
:101B1000ADF808000120ADF810007F20BDF81010CE
:101B200000EBD0704FEA41014010ADF81010F5D134
:101B3000BDF910008003FEF7A4FB164A164BFEF712
:101B400017FB6FF00F02FEF785FBFEF7ABFBADF85E
:101B50000A004DF22B40ADF8020044F28C40ADF883
:101B600006004FF40570ADF812006820ADF81400BF
:101B70004FF40050ADF80C00ADF80E0040F21E50CE
:101B800006900820ADF81C006846FFF733FE09B048
:101B900000BD0000A7E8482EFF2109407047000063
:101BA00010B518210C48FEF7B5FC0C490880182127
:101BB0000B48FEF7AFFC0B4908800B48017802295F
:101BC0001CBF0078032804D10848016821F40041B3
:101BD0000160012010BD0000002801402400002009
:101BE000002401402200002044000020082401407D
:101BF0000448016841F40041016004210248FEF7F5
:101C000032BC0000082401400024014010B5014608
:101C10000F4C104801290CD00022012101F0E8FBF3
:101C2000206820F480502060206840F4004020604C
:101C300010BD216841F4805121600121044601F06A
:101C40005EFB20460122BDE81040114601F0D0BBEA
:101C500008240140002C01402DE9F04F04B244F269
:101C6000A8356C43051442F210766E4377423D1955
:101C700000223444C4F1000405EBD57504EBD474A0
:101C8000C44E83B09446134611466D104FEA640467
:101C90004DD5002CB8BF052703DB002FD4BF042788
:101CA00003277770BB4E002744F2A838377096F8A8
:101CB00001B0061442F21077774300B200FB08F936
:101CC00007EB09007E42404200EBD0704010371A0B
:101CD00042F2107EB14409EBD9794FEA69094FEA23
:101CE000E07807EB0E0AA9EB0000CDF808904FEA68
:101CF000EA7700EB0E090197F71706EBD7374FEAA3
:101D0000E970AEEB06060090DDF808E00298764434
:101D1000C0174FEAE67ECDF808E0BBF1070F80F070
:101D2000D280DFE80BF0D00D41779EE7FD00002C5C
:101D3000A8BF0227B5DA002FD4BF06270127B0E7D6
:101D400001980AEB903140F2E24000EBA14082B2F0
:101D500004EBD83002EB60401FFA80FCACEB67402C
:101D600083B240F6C414A01A80B2F12800F20281B6
:101D7000A2EB0C0189B2B1EB400F02D9A2F10F0026
:101D80000AE002F1F10081B2A14206D3814C0120A8
:101D9000207041F28730401A81B2804C7E4820602A
:101DA000804C7F4820608EE0009905EBD03009EB35
:101DB000913240F2E24101EBA2418AB204EBD83108
:101DC00002EB6141A2EB60401FFA81FC83B240F656
:101DD000C414A4EB0C0080B2F12833D8ACEB0201A0
:101DE00089B2B1EB400F02D9ACF10F000AE00CF15F
:101DF000F10081B2A14206D3664C0120207041F26D
:101E00008730401A81B2654C67482060654C644851
:101E1000206058E0029905EBD03006EB913240F299
:101E2000E24101EBA2418AB2A2EB604083B203EB34
:101E300067401FFA80FC40F6C414A4EB0C0080B28B
:101E4000F12802D940F6C311DDE7ACEB030189B2FA
:101E5000B1EB400FC8D80CF1F10081B2A142D2D34E
:101E6000CAE701980AEB903140F2E24000EBA14052
:101E700082B204EBD83002EB60401FFA80FCACEB7E
:101E8000674083B240F6C414E01A80B2F1284CD8FF
:101E9000A3EB0C0189B2B1EB400F02D9A3F10F0003
:101EA0000AE003F1F10081B2A14206D3394C0120CE
:101EB000207041F28730401A81B2384C3A48206095
:101EC000384C3A482060334804783948002C04885C
:101ED0000CBF24F4005444F40054048035480280BC
:101EE000001DA0F800C0001D0380001D018003B08C
:101EF000BDE8F08F009905EBD03009EB913240F24C
:101F0000E24101EBA2418AB204EBD83102EB61411C
:101F1000A2EB60401FFA81FC83B240F6C41400E0DB
:101F200011E0E01A80B2F12802D940F6C311C4E7EB
:101F3000991A89B2B1EB400FB0D803F1F10081B228
:101F4000A142BAD3B2E7029905EBD03006EB913249
:101F500040F2E24101EBA2418AB2A2EB604083B2BF
:101F600003EB67401FFA80FC40F6C414A01A80B24D
:101F7000F12802D940F6C3110FE7D11A89B2B1EBAB
:101F8000400F3FF6FBAE02F1F10081B2A142FFF437
:101F900004AFFBE678000020001C1000382401404C
:101FA000003816003828014000181000001C1600E8
:101FB000202C0140342C014070B5434E00224FF4D8
:101FC00090613046FEF7AAFA404C00254FF4E041FC
:101FD000A580E58025813046FEF77AFA012130465A
:101FE000FEF76CFA03213046FEF7EBFA00230122DC
:101FF00006213046FEF7C0FA0023022207213046B0
:10200000FEF7BAFA002303220E213046FEF7B4FA97
:1020100004213046FEF727FA01213046FEF7D9FAAF
:102020006580354604212846FEF75FFA0028F9D07E
:1020300014212846FEF76EFAA18801EBD000A0809B
:1020400018212846FEF766FAE18801EBD000E0800F
:102050001C212846FEF75EFA218901EBD000208181
:1020600004212846FEF7FFF901212846FEF7B1FAC0
:102070006088401C80B260801028D3D3022128469B
:10208000FEF79FFA124C02212046FEF79AFA00232F
:10209000012207212846FEF76FFA00230222194683
:1020A0002846FEF769FA00212846FEF711FA0121B9
:1020B0002046FEF703FA2846BDE8704001224FF49F
:1020C000B861FEF72BBA0000002401407800002020
:1020D000002801402DE9F0014049414F0A464E7861
:1020E0009188D3883F4D1289DFF8FCC047F6FF7412
:1020F000072E24BFBDE8F0017047DFE806F01C2C76
:10210000535304042C003A68A1EB420111F5004F2F
:10211000B8BF6CF30F0006DBB1F5004FACBF64F342
:102120000F0061F30F002968A3EB410111F5004F87
:1021300004DA6CF31F40BDE8F0017047B1F5004FC1
:1021400004DB64F31F40BDE8F0017047BDE8F00117
:1021500061F31F4070473968A3EB410111F5004F4F
:10216000B8BF6CF31F4006DBB1F5004FACBF64F3A2
:102170001F4061F31F402968C2EB4101A1EB2041E0
:10218000B1F5004FA2BF64F30F00BDE8F001704746
:1021900011F5004FB4BF6CF30F0061F30F00BDE801
:1021A000F00170473B68A1EB430111F5004FB8BF48
:1021B0006CF30F0006DBB1F5004FACBF64F30F000A
:1021C00061F30F002968C2EB410102B2891AB1F52F
:1021D000004FB6DA11F5004FB8DAAAE77800002010
:1021E0003C2401403C2801400080FFFF2DE9F04FD6
:1021F00093B04FF40040FFF721F801210846FFF7A4
:1022000027F801213D20FFF747F801214802FFF799
:1022100043F801218802FFF73FF80121C802FFF7C8
:102220003BF809A8FEF717FCCF20ADF824000026E4
:102230008DF8276009A9B348FEF792FB09A8FEF7BD
:102240000AFC1827ADF8247000208DF8270009A992
:10225000AD48FEF785FB4FF48058ADF8248001258A
:102260008DF826501020DFF8A4B28DF8270009A9B8
:102270005846FEF775FBA64801F05EF80FA801F07E
:10228000EFF90020ADF83C002020ADF83E0040F60C
:10229000C410ADF8400001204FF480798DF844005F
:1022A000ADF842900FA99A4801F0BCF9684601F0D8
:1022B000A7F96020ADF800000120ADF8020004206D
:1022C000ADF8040040F20550ADF806000220ADF86C
:1022D00008000020ADF80C004FF0080AADF80E0021
:1022E000ADF80AA069468A4801F08AF8694688482C
:1022F00001F0BCF86946864801F002F909A8FEF72A
:10230000AAFB4FF4E060ADF824008DF82770032499
:102310008DF8264009A97B48FEF722FB4FF4604068
:10232000ADF824008DF827708DF8264009A958468D
:10233000FEF716FB09A8FEF78EFB684601F060F970
:102340007020ADF800000120ADF802000020ADF8CB
:10235000040040F6C310ADF806000020ADF80800F8
:10236000ADF80C00ADF80E00ADF80AA0694668485B
:1023700001F00AF90821664801F072F80821644862
:1023800001F0B4F80821624801F0F8F8082160482B
:1023900001F02CF94FF4006AADF82CA0A802ADF8BA
:1023A0002E00ADF830901C20ADF832000020ADF8C2
:1023B0003480ADF83600ADF838000BA9544800F071
:1023C0008DFF2021524801F025F98021504800F06E
:1023D00099FF012280214E4801F00AF801214C4862
:1023E00000F093FF01214A4801F000F8012148481C
:1023F00000F085FF00220121454800F0F9FF00228E
:102400001021434800F0F4FFDFF808814046FEF752
:1024100037F8414F3846FEF733F801214046FEF7C2
:1024200025F801213846FEF721F804A8FEF7E0F868
:102430004FF4A020049001208DF8140000208DF8A6
:1024400015004FF460240120CDE9064A8DF82000E4
:1024500004A94046FEF76CF804A8FEF7C9F801206D
:102460008DF8140000208DF815000120CDE9064AF2
:102470008DF8200004A93846FEF75AF84046FEF7CA
:10248000B2F83846FEF7AFF84046FEF727F80446A4
:102490003846FEF723F80442F6D1FFF78DFD0221FE
:1024A0003846FEF78EF80023012206213846FEF753
:1024B00063F8002302220C213846FEF75DF84FF442
:1024C000A060FEF72BFD0AA8FEF73CFD12208DF858
:1024D00028008DF829508DF82A608DF82B500AA815
:1024E000FEF7DEFC19208DF828008DF829508DF8B4
:1024F0002A608DF82B500AA8FEF7D2FC13B0BDE875
:10250000F08F00000008014000100140000C014065
:10251000002C0140002401400028014070B5134BFD
:102520000E460024197810F0400202D0402A07D14C
:1025300002E021F0010102E0012441F001011970E3
:1025400000F03F0040F0400506F0070040F0B80002
:10255000214601F00BF92146284601F007F92146F2
:10256000BDE87040C02001F001B90000100000205B
:102570002DE9F04F174F8046154638788B46C00737
:1025800002D11046FFF7CAFF14490024B946124E83
:10259000A24601EBCB1718E099F80000C0070FD155
:1025A0003078C00706D12819402803D3C0B2594655
:1025B000FFF7B4FF307800F00101002001F010FABD
:1025C0002919641C07F801A0E4B24445E4D3BDE82E
:1025D000F08F00000100002010000020D200002039
:1025E0002DE9F047DFF8608006468A4698F800003B
:1025F0001D469146C00703D111461846FFF78EFFCE
:102600000024124F1BE098F80000C0070FD1387863
:10261000C00706D12819402803D3C0B24946FFF7A6
:102620007DFF387800F00101305D01F0D9F9084AEA
:10263000315D02EBC9102A19641C8154E4B254457F
:10264000E1D3BDE8F0870000010000201000002069
:10265000D200002000B50120FEF736F800205DF81A
:1026600004EBFEF731B800002DE9F843E74DE84EE2
:10267000E84F2878DFF8A083C0074FF07F047DD0B3
:10268000FEF70CF800231A460521E448FFF7A8FFDF
:10269000062300220521E248FFF7A2FF0C230022B7
:1026A0000521E048FFF79CFF182300220521DB48A5
:1026B000FFF796FF1E2300220521DB48FFF790FF5E
:1026C000242300220521D948FFF78AFF2A2300226C
:1026D0000321D748FFF784FF0094B6F900000023D8
:1026E00000EB400040001A46052100F0C7F9002326
:1026F00001220521CF48FFF773FF062301220521A0
:10270000CD48FFF76DFF0C2301220521CB48FFF7D1
:1027100067FF182301220521C048FFF761FF1E2330
:1027200001220521C048FFF75BFF24230122052178
:10273000BE48FFF755FF2A2301220321BC48FFF7BB
:102740004FFFFFF781F800EB4000400000B201238B
:1027500000220521009400F091F9002302220521B6
:10276000B048FFF73DFF062302220521B448FFF7DA
:1027700037FF0C2302220521B04800E0A6E0FFF756
:102780002FFF122302220521AE48FFF729FF18234D
:1027900002220521A848FFF723FF1E23022205215C
:1027A0009F48FFF71DFF242302220321A048FFF7C3
:1027B00017FF0094022300220521B7F9000000F062
:1027C0005DF90023032205219F48FFF709FF062337
:1027D000032205219D48FFF703FF0C230322052157
:1027E0009B48FFF7FDFE1223032205219948FFF7BE
:1027F000F7FE1E23032205219748FFF7F1FE24234D
:10280000032205219548FFF7EBFE2A230322052129
:102810008E48FFF7E5FE3023032205219048FFF79D
:10282000DFFE0322362311468148FFF7D9FE0094CC
:102830004646B8F9000003230022052100F01EF9E6
:102840000023042205218748FFF7CAFE062304223D
:1028500005218548FFF7C4FE0C230422052180488A
:10286000FFF7BEFE1223042205217A48FFF7B8FEC7
:102870001E23042205217848FFF7B2FE24230422F8
:1028800005217648FFF7ACFE2A23042205216F4874
:10289000FFF7A6FE3023042205217148FFF7A0FEB2
:1028A0003623042203216248FFF79AFE0094B6F90A
:1028B000020004230022052100F0E0F8287820F02F
:1028C00001002870BDE8F843FFF7C4BE0094B6F9D4
:1028D0000000002300EB400040001A46042100F0F5
:1028E000CDF8FEF7B1FF00EB4000400000B201233D
:1028F00000220421009400F0C1F800940223002279
:102900000521B7F9000000F0B9F800944546B8F980
:10291000000003230022052100F0B0F80094B5F96F
:10292000020004230022052100F0A8F82A23062231
:1029300005214E48FFF754FE30230622052140486A
:10294000FFF74EFE3C23062205214948FFF748FECB
:102950004223062205213C48FFF742FE4823062277
:1029600005214448FFF73CFE4E230622052141483D
:10297000FFF736FE05225A2311462A48FFF730FE9C
:102980000522602311463048FFF72AFE0522662300
:1029900011463648FFF724FE05226C2311463648BF
:1029A000FFF71EFE0522722311462548FFF718FE89
:1029B0000522782311462148FFF712FE0023072243
:1029C00005211848FFF70CFE0623072205211E48A3
:1029D000FFF706FE0C23072205212448FFF700FE1F
:1029E0001223072205212448FFF7FAFD18230722A6
:1029F00005211348FFF7F4FD01B01E23BDE8F043A5
:102A0000072205210D48FFF7EBBD00000100002063
:102A10004A000020480000203C000020BD3D000886
:102A2000903D0008C23D0008AE3D00088B3D000807
:102A3000EF3D0008863D0008C73D0008B83D00088E
:102A4000A93D0008B33D00087C3D0008E03D0008BA
:102A5000DB3D0008D13D0008CC3D0008E53D000805
:102A6000EA3D0008813D0008D63D0008A43D00086D
:102A7000953D00089F3D00089A3D00082DE9FF4F55
:102A80008DB00D460746A1EB85001A9E5FEA02094C
:102A900006EB400001EB450109D0002F03DA0938AD
:102AA000C2B20A200BE0C01EC2B2042007E0002F11
:102AB00003DA801FC2B2072001E0C2B2012000EB9E
:102AC0004100C0B21099FFF753FD3846FEF768FA8F
:102AD000FA48002F01784278069282780592C278EF
:102AE000049290F8048042790A9282790992C2791C
:102AF0000C92007A0B9001DA7C4200E03C46A6F191
:102B00000B030393A6F11103DFF8B4C35FEA0902D4
:102B1000A6F1050007937DD0DB1C08939B1F029351
:102B20009B1F01939B1FA6F12609A6F12C0AA6F173
:102B3000320B0093012A6ED0022A6DD0032A6CD189
:102B4000C3B201EB8101604608440521109AFFF7EA
:102B500047FD0398109AC3B2069800EB8001D8484D
:102B600008440521FFF73CFD0798109AC3B2059869
:102B700000EB8001D24808440521FFF731FD02989F
:102B80000221C3B2CF48109AFFF72AFD0198109A8C
:102B9000C3B2049800EB8001C94808440521FFF73F
:102BA0001FFD42F20F7084420BD9042D09D9009801
:102BB00008EB8801C3B2C248109A08440521FFF708
:102BC0000FFDC14884420CD9052D0AD90A9809F095
:102BD000FF0300EB8001BA48109A08440521FFF773
:102BE000FFFCDFF8E88244450CD9062D0AD9099884
:102BF0000AF0FF0300EB8001B148109A0844052158
:102C0000FFF7EEFCB248844211D9072D0FD90BF023
:102C1000FF0303E025E0C1E066E199E00C98109A1B
:102C200000EB8001A64808440521FFF7D9FCA9481C
:102C300084420CD9082D0AD90B980BF0FF0300EB46
:102C400080019F48109A08440521FFF7C9FC002F16
:102C50007EDA9F4884427CD9072DFCD9383EF3B2F6
:102C60001DE1C3B201EB8101E14601EB0900052141
:102C7000109AFFF7B5FC092C0CD9012D0AD903983D
:102C8000109AC3B2069800EB800101EB0900052100
:102C9000FFF7A6FC632C0CD9022D0AD90798109ACD
:102CA000C3B2059800EB800101EB09000521FFF795
:102CB00097FCA6F117000090B4F57A7F0BD3032D93
:102CC00009D9C3B20498109A00EB800101EB090006
:102CD0000521FFF785FC42F20F71A6F11D0001905E
:102CE0008C420AD9042D08D9C3B208EB880101EB44
:102CF00009000521109AFFF773FC7349A6F1230B15
:102D00008C420BD9052D09D908EB880101EB09008C
:102D10000BF0FF030521109AFFF762FC6B49A6F147
:102D2000290A8C420BD9062D09D908EB880101EB41
:102D300009000AF0FF030521109AFFF751FC002F4C
:102D400006DA6248844205D9062D03D92F3E86E76C
:102D50000BE14CE15C48844204D9052D02D90AF00C
:102D6000FF039CE042F20F70844204D9042D02D983
:102D70000BF0FF0393E0B4F57A7F02D3032D7CD8E8
:102D800001E0632C01D9022D78D8092C04D9012D3A
:102D900002D90798C3B282E00398FBE7C3B2484860
:102DA00001EB810108440521109AFFF719FC083E48
:102DB000F3B202214348109AFFF712FC0898109AC8
:102DC000C3B2069800EB80013D4808440521FFF797
:102DD00007FC632C4AD9022D0AD90298109AC3B273
:102DE000059800EB8001364808440521FFF7F8FB01
:102DF000B4F57A7F3AD3032D0AD90198109AC3B259
:102E0000049800EB80012E4808440521FFF7E8FBF9
:102E100042F20F7084420BD9042D09D9009808EBB7
:102E20008801C3B22648109A08440521FFF7D8FB51
:102E3000254884420BD9052D09D9214808EB880182
:102E4000084409F0FF030521109AFFF7C9FB1F484A
:102E500084420BD9062D09D9194808EB880108448A
:102E60000AF0FF030521109AFFF7BAFB002F7CDA66
:102E70001648844205D9062D01E09CE09AE03FF611
:102E800077AF1148844202D9052D3FF668AF42F270
:102E90000F7084420BD9042D09D909F0FF03109A51
:102EA00011B00521BDE8F04F0B48FFF799BBB4F511
:102EB0007A7F13D3032D7DD812E00000C8000020D4
:102EC000F93D0008F23D00089F8601003F420F00D7
:102ED0007F969800FFE0F505F43D0008632C01D9CA
:102EE000022D68D8029855E7C3B201EB810166460E
:102EF00088190521109AFFF773FB0398109AC3B243
:102F0000069800EB800188190521FFF769FB0898F6
:102F10000221C3B23D48109AFFF762FB0298109A53
:102F2000C3B2059800EB800188190521FFF758FB13
:102F3000B4F57A7F3AD3032D09D90198109AC3B218
:102F4000049800EB800188190521FFF749FB42F244
:102F50000F7084420CD9042D0AD9009808EB88011F
:102F6000C3B288190521109A00E04BE0FFF738FB47
:102F7000274884420BD9052D09D90A9809F0FF0387
:102F800000EB800188190521109AFFF729FB2148E1
:102F900084420BD9062D09D909980AF0FF0300EBEA
:102FA000800188190521109AFFF71AFB002F29DAF2
:102FB000184801E017E018E0844202D9062D3FF6D8
:102FC000D7AE1348844202D9052D3FF6C8AE42F26F
:102FD0000F70844202D9042D3FF65FAFB4F57A7FBB
:102FE00003D3032D01D90098D4E60198D2E64445D5
:102FF00001D9062DE3D8064884427FF64EAF052D51
:10300000FBD9ACE611B0BDE8F08F0000F23D00083E
:103010009F8601003F420F00224B081AB3F91E1091
:10302000B3F920C001FB00F2596B0CFB00F0002942
:103030000FDB0028A4BF93F800C0BCF1000F06D13D
:10304000081844BF6FF00040586310D40EE0002908
:103050000BDC0028DCBF93F801C0BCF1000F04D1E9
:1030600008440028C8BF104800E008445863D1173E
:1030700002EB9141C217891300EB923001EBA040A3
:10308000996B01228842C8BF1A7007DC4942884206
:10309000A2BF00211970597001DA5A70084600B2B7
:1030A000704700008C0000200100008070B5394C92
:1030B000A08810B1A088401EA08037490878401C25
:1030C000C0B2087014282BD93448027842F00202AA
:1030D000027000200870324881680122C1F3C031BB
:1030E000806802EB4101C0F3401041EA80012D48A5
:1030F000026802F0010241EAC20102680068C2F3FC
:10310000400241EA0211C0F3802041EA4010264902
:1031100080F03F0008702548017841F002010170FD
:10312000E08810B1E088401EE080208910B120893D
:10313000401E2081608808B1401E608060891C4D5F
:10314000032610B1401E60810BE06681FEF7F4FAA1
:103150002878032805D1FEF737FB10B90820FDF7C2
:1031600075FE207818B12078401E207070BD267042
:1031700010480068C007287805D00328F6D1BDE8BC
:103180007040FDF7EDBA0328F0D1BDE87040FDF7BF
:103190005DBB00006C000020080000201100002032
:1031A00000100140080C0140030000200100002035
:1031B000440000202C0000204FF0E0210428086982
:1031C00003D020F004000861704740F00400FAE7E3
:1031D0004FF0E021012804D0801C06D00020886137
:1031E0007047086940F0010002E0086920F0010022
:1031F000086170474FF0E0210028086902D040F0D4
:10320000020001E020F00200086170474FF0E02169
:1032100048617047704700000348808808B100206B
:1032200070470120704700006C00002010B504209A
:10323000FFF7C2FF48F6A040FFF7E8FF0120FFF7C5
:10324000C7FF002203210448FDF782FEBDE81040BD
:103250000120FFF7CFBF00009AC302000149888018
:10326000704700006C0000204FF6FF7101EA40003B
:1032700001494880704700006C00002003484088E6
:1032800008B1002070470120704700006C0000204A
:1032900004480078012818BF70478021024800F0D8
:1032A00031B8000000000020002C0140704770473A
:1032B00010B50121034800F022F8BDE81040FEF7E8
:1032C00097BC0000002C0140704770477047704762
:1032D00070477047704770477047704710B50A884D
:1032E0004B88CC881A438B8823431A430B891A4393
:1032F0004B8989891A430A43A0F8442010BDC94369
:1033000001827047C943018270470029018802D0B9
:1033100041F0010102E040F2FE32114001807047AD
:10332000002930F8441F02D041F4004101E0C1F30C
:103330000E010180704700002A4A10B5811A13154A
:10334000D41490423BD010DCB0F1804F22D02649FB
:10335000401826D098422BD0A04241D1012108200C
:10336000FDF78EFF0021082036E099422ED0B1F5FE
:103370008E3F0DD0B1F5923F32D101214C03204652
:10338000FDF796FF2046BDE810400021FDF790BFF5
:103390000121F4E701210846FDF772FF0021012019
:1033A0001AE001210220FDF76BFF0021022013E04B
:1033B00001210420FDF764FF002104200CE001211D
:1033C0001020FDF75DFF0021102005E001212020E5
:1033D000FDF756FF00212020BDE81040FDF750BF4B
:1033E00010BD00000010004000FCFFBF818270474C
:1033F000002A828901D00A4300E08A438281704713
:1034000030B5028C22F001020284028C8388048B86
:1034100022F0020224F070050C882C430D8915431C
:103420004A882A43CD8885860B4DA84202D00B4D91
:10343000A8420DD122F008054A8923F403432A4308
:1034400022F004058A882A438D891D43CB892B43AA
:1034500083800483028430BD002C0140003401408D
:10346000028B22F008020A430283704770B5028C77
:1034700022F010020284028C8388048B0D8824F4CD
:10348000E0464FF6FF7404EA052535430E8922F025
:10349000200204EA061616434A8804EA021232435E
:1034A000CE8806870F4EB04202D00F4EB04215D1E3
:1034B00022F080064A8923F40C4304EA02123243C4
:1034C00022F040068A8804EA021232438E89C989B2
:1034D00004EA86061E4304EA81033343838005839E
:1034E000028470BD002C014000340140028B4FF675
:1034F000FF7322F4006203EA012111430183704744
:1035000070B5028C22F480720284028C8388848BD2
:103510000D8824F0700425430E894FF6FF7422F4C1
:10352000007204EA062616434A8804EA022232435D
:10353000CE8886870F4EB04202D00F4EB04215D1D2
:1035400022F400664A8923F4304304EA022232431B
:1035500022F480668A8804EA022232438E89C9896D
:1035600004EA06161E4304EA01133343838085836D
:10357000028470BD002C014000340140828B22F097
:1035800008020A438283704770B5028C22F480528D
:103590000284058C8288838B0C8823F4E0464FF6E6
:1035A000FF7303EA042434430E8925F4005503EA2B
:1035B00006362E434D8803EA05353543CE88A0F8FC
:1035C0004060084EB04202D0074EB04205D1898912
:1035D000C2F30D0603EA811232438280848305849C
:1035E00070BD0000002C014000340140828B4FF67A
:1035F000FF7322F4006203EA0121114381837047C3
:103600000021018041808180C180018141818181CF
:10361000C1817047828822F07002828082880A43CA
:1036200082807047028802F08F020280CA884B882D
:103630001A4303881A4302808A8882850A88028591
:1036400001228282044A904202D0044A904201D16F
:10365000097A018670470000002C014000340140C7
:103660004FF6FF71818000210180C180418001728D
:103670007047000070B515490878820725D5144DAC
:1036800020F0020008702888124A401C80B228806E
:1036900011780024491CC9B211700A2900D3147092
:1036A000642812D30C4A0D4B107840F020011170A1
:1036B0001878401CC0B218700A2803D31C7041F05F
:1036C00020001070FEF7D0FF2C8070BD110000208C
:1036D0000A0000200D0000200F0000200C00002038
:1036E00000F50042920900F5004112F44073C1F365
:1036F0008711DFF860C0C1F1FF0217D0B3F5807FFA
:103700001DD0B3F5007F0AD0B3F5407F18BF7047D6
:103710003CF812203CF8111062F31F400DE03CF819
:10372000111061F31F403CF812100FE03CF811102B
:10373000494261F31F403CF81210494206E03CF850
:1037400012203CF81110524262F31F4061F30F0047
:1037500070470000B23E00087047704770477047DE
:103760007047704770477047FEE77047F0B54FF4F9
:103770008075964A6C00131D11B1012905D102E034
:1037800015601C6001E01D601460914D4FF4805481
:103790002C6066102E608F495FEAC07CA5F104079B
:1037A00008704FF4004101D0396000E029608A4977
:1037B0005FEA807E4FF4806C02D5C1F810C001E052
:1037C000C1F814C05FEA407C01D50E6100E04E6193
:1037D000060701D50C6100E04C61C6064FF00401FC
:1037E00001D57E4E01E07D4E361D316086064FF0DC
:1037F000080101D5116000E0196046064FF0100184
:1038000001D5116000E0196001064FF0200001D5DC
:10381000106000E0186000BF00BF00BF00BF00BF25
:1038200000BF00BF00BF00BF00BF00BF00BF00BFA0
:1038300000BF00BF00BF00BF00BF00BF00BF00BF90
:1038400000BF00BF00BF00BF00BF00BF00BF00BF80
:1038500000BF00BF00BF00BF00BF00BF00BF00BF70
:1038600000BF00BF00BF00BF00BF00BF00BF00BF60
:1038700000BF00BF00BF00BF00BF00BF00BF00BF50
:1038800000BF00BF00BF00BF00BF00BF00BF00BF40
:1038900000BF00BF00BF00BF00BF00BF00BF00BF30
:1038A00000BF00BF00BF00BF00BF00BF00BF00BF20
:1038B00000BF00BF00BF00BF00BF00BF00BF00BF10
:1038C00000BF00BF00BF00BF00BF00BF00BF00BF00
:1038D00000BF00BF00BF00BF00BF00BF00BF00BFF0
:1038E00000BF00BF00BF00BF00BF00BF00BF00BFE0
:1038F00000BF00BF00BF00BF00BF00BF00BF00BFD0
:1039000000BF00BF00BF00BF00BF00BF00BF00BFBF
:1039100000BF00BF00BF00BF00BF00BF00BF00BFAF
:1039200000BF00BF00BF00BF00BF00BF00BF00BF9F
:1039300000BF00BF00BF3C6000BF00BF00BF00BFB2
:1039400000BF00BF00BF00BF00BF00BF00BF00BF7F
:1039500000BF00BF00BF00BF00BF00BF00BF00BF6F
:1039600000BF00BF00BF00BF00BF00BF00BF00BF5F
:1039700000BF00BF00BF00BF00BF00BF00BF00BF4F
:1039800000BF00BF00BF00BF00BF00BF00BF00BF3F
:1039900000BF00BF00BF00BF00BF00BF00BF00BF2F
:1039A00000BF00BF00BF00BF00BF00BF00BF00BF1F
:1039B00000BF00BF00BF00BF00BF00BF00BF00BF0F
:1039C00000BF00BF00BF00BF2C60F0BD100C014065
:1039D000140801400E0000200010014010140140A6
:1039E000F0B54FF48075964A6C00131D11B1012992
:1039F00005D102E015601C6001E01D601460914D6E
:103A00004FF480542C6066102F1F3E608E495FEA91
:103A1000C07C08704FF4004101D0396000E029609B
:103A20008A495FEA807E4FF4806C02D5C1F810C0ED
:103A300001E0C1F814C05FEA407C01D50E6100E0EE
:103A40004E61060701D50C6100E04C61C6064FF0DF
:103A5000040101D57E4E01E07D4E361D31608606A3
:103A60004FF0080101D5116000E0196046064FF0E3
:103A7000100101D5116000E0196001064FF020002F
:103A800001D5106000E0186000BF00BF00BF00BF9C
:103A900000BF00BF00BF00BF00BF00BF00BF00BF2E
:103AA00000BF00BF00BF00BF00BF00BF00BF00BF1E
:103AB00000BF00BF00BF00BF00BF00BF00BF00BF0E
:103AC00000BF00BF00BF00BF00BF00BF00BF00BFFE
:103AD00000BF00BF00BF00BF00BF00BF00BF00BFEE
:103AE00000BF00BF00BF00BF00BF00BF00BF00BFDE
:103AF00000BF00BF00BF00BF00BF00BF00BF00BFCE
:103B000000BF00BF00BF00BF00BF00BF00BF00BFBD
:103B100000BF00BF00BF00BF00BF00BF00BF00BFAD
:103B200000BF00BF00BF00BF00BF00BF00BF00BF9D
:103B300000BF00BF00BF00BF00BF00BF00BF00BF8D
:103B400000BF00BF00BF00BF00BF00BF00BF00BF7D
:103B500000BF00BF00BF00BF00BF00BF00BF00BF6D
:103B600000BF00BF00BF00BF00BF00BF00BF00BF5D
:103B700000BF00BF00BF00BF00BF00BF00BF00BF4D
:103B800000BF00BF00BF00BF00BF00BF00BF00BF3D
:103B900000BF00BF00BF00BF00BF00BF00BF00BF2D
:103BA00000BF00BF00BF00BF3C6000BF00BF00BF40
:103BB00000BF00BF00BF00BF00BF00BF00BF00BF0D
:103BC00000BF00BF00BF00BF00BF00BF00BF00BFFD
:103BD00000BF00BF00BF00BF00BF00BF00BF00BFED
:103BE00000BF00BF00BF00BF00BF00BF00BF00BFDD
:103BF00000BF00BF00BF00BF00BF00BF00BF00BFCD
:103C000000BF00BF00BF00BF00BF00BF00BF00BFBC
:103C100000BF00BF00BF00BF00BF00BF00BF00BFAC
:103C200000BF00BF00BF00BF00BF00BF00BF00BF9C
:103C300000BF00BF00BF00BF00BF2C60F0BD000090
:103C4000100C0140140801400E000020001001403B
:103C50001014014002E008C8121F08C1002AFAD15E
:103C600070477047002001E001C1121F002AFBD1FC
:103C700070470000FDF728FBFCF7F8FDFEF7B6FAE9
:103C8000FDF73AFFFDF7ECFDFFF7D0FA314A324974
:103C90003248FDF7CBF94FF480513148FCF7D9FE9B
:103CA000FCF72CFFFDF7BAF8FDF7F4F8FCF7DEFFA0
:103CB0002C4901202C4F0870481C002501782B4C02
:103CC00041F0010101702A4EFCF758FFFFF7D2FCCA
:103CD00020780828F8D2DFE800F0040504040E0478
:103CE000222AF1E7FDF770F840F6B830FFF7BCFA8A
:103CF00002202070E8E700211E48FFF711FB062094
:103D000020700020FDF782FF1B4845800580006879
:103D1000FDF7A2FF4FF4FA60FFF7A0FAD4E7FFF730
:103D20007BFA0128D0D1FDF7B3FD2570CCE7FCF775
:103D3000F5FF0128C8D13068C00701D03D7001E00F
:103D40000C203870FDF7A4FD2570306840F00200AB
:103D50003060B9E714050020D4040020F4040020EA
:103D6000000C0140000000206B00002044000020F7
:103D70002C000020002C0140400000207E11111179
:103D80007E7F4949493E3E414141227F4141221CBB
:103D90007F494949417F0808087F7F081422417FF5
:103DA000404040407F0408107F3E4141413E7F0932
:103DB0000909063E4151215E7F09192946464949B4
:103DC000493101017F01013F4040403F1F20402019
:103DD0001F20545454783854545418087E09010252
:103DE00000417F40003844444438043F44402000B0
:103DF0006C6C606008080808083E5149453E004266
:103E00007F400042615149462141454B311814120F
:103E10007F1027454545393C4A494930017109051C
:103E2000033649494936064949291E00EE7E687E17
:103E3000607D5F7C637B6E7A7E799478AF77CF7696
:103E4000F4751D754B747D73187351728D71CE703E
:103E500012705A6FA56EF46D466D9B6CF36B4E6BD2
:103E6000AD6A5D6ABF6924698C68F6676367D2666C
:103E70004466B7652D65A66420649C635B63DB6262
:103E80005C62DF616461EB607460FE5F8A5F175F94
:103E9000A65E375EC95D5D5D285DBD5C555CED5B12
:103EA000875B235BBF5A5D5AFC599D593E59E158C7
:103EB00085580000C90092015B022403ED03B6049B
:103EC0007F0548061107D907A2086A09330AFB0AC9
:103ED000C40B8C0C540D1C0EE30EAB0F72103A1178
:103EE0000112C8128F1355141C15E215A8166E176F
:103EF0003318F918BE19821A471B0B1CCF1C931DCF
:103F0000571E1A1FDD1F9F2061212322E522A623B1
:103F100067242825E825A82667272628E528A32939
:103F2000612A1F2BDC2B992C552D112ECC2E872F7F
:103F30004130FB30B5316E322633DF3396344D35A8
:103F40000436BA366F372438D9388C39403AF23AC9
:103F5000A53B563C073DB83D683E173FC53F734003
:103F60002141CE417A422543D0437A442445CD4570
:103F700075461C47C34769480F49B449584AFB4A2C
:103F80009D4B3F4CE04C814D204EBF4E5D4FFB4F53
:103F900097503351CE51685202539B533254C954F7
:103FA0006055F5558A561D57B0574258D358645935
:103FB000F359825A0F5B9C5B285CB35C3E5DC75D26
:103FC0004F5ED75E5D5FE35F6860EB606E61F061DE
:103FD0007162F1627063EE636C64E8646365DD6571
:103FE0005666CF664667BC673268A66819698B69F2
:103FF000FD696D6ADC6A4A6BB76B236C8E6CF86C7A
:10400000616DC96D306E966EFB6E5E6FC16F227012
:104010008370E27040719D71F9715472AE720773D2
:104020005E73B5730A745F74B27404755575A575C3
:10403000F37541768D76D87622776B77B377FA77FA
:104040003F788478C77809794A798979C879057A77
:10405000417A7C7AB67AEE7A267B5C7B917BC57B53
:10406000F87B297C597C887CB67CE37C0E7D397D8D
:10407000627D897DB07DD57DFA7D1D7E3E7E5F7E31
:104080007E7E9C7EB97ED57EEF7E097F217F377F45
:104090004D7F617F747F867F977FA67FB47FC17FCE
:1040A000CD7FD87FE17FE97FF07FF57FF97FFD7FCE
:1040B000FE7F0000D440000800000020C80000007F
:1040C000543C00089C410008C8000020F008000093
:1040D000643C000800000000000000000000000038
:1040E00000000000000000000000000000000000D0
:1040F00000000000000000000000000000000000C0
:1041000003000000000000000000000000000000AC
:10411000000000000000000000000000000000009F
:10412000000000000000000000000000000000008F
:10413000000000000000000000000000000000007F
:104140000300000000000000000003000000000069
:10415000000000000000000000000000000000005F
:10416000000000000000000000000000000000004F
:10417000000000000000000000000000000000003F
:10418000000000000000000000000000000000002F
:0C41900000000000000000000000000023
:0400000508000131BD
:00000001FF
